{
	"contracts/boe.sol": {
		"BillOfExchange": {
			"abi": [
				{
					"inputs": [
						{
							"internalType": "string",
							"name": "_promiseeName",
							"type": "string"
						}
					],
					"stateMutability": "nonpayable",
					"type": "constructor"
				},
				{
					"inputs": [],
					"name": "acceptPayment",
					"outputs": [],
					"stateMutability": "nonpayable",
					"type": "function"
				},
				{
					"inputs": [],
					"name": "getInfo",
					"outputs": [
						{
							"components": [
								{
									"internalType": "address payable",
									"name": "promisee",
									"type": "address"
								},
								{
									"internalType": "string",
									"name": "promiseeName",
									"type": "string"
								},
								{
									"internalType": "address",
									"name": "promisor",
									"type": "address"
								},
								{
									"internalType": "string",
									"name": "promisorName",
									"type": "string"
								},
								{
									"internalType": "uint256",
									"name": "billAmount",
									"type": "uint256"
								},
								{
									"internalType": "string",
									"name": "billDescription",
									"type": "string"
								},
								{
									"internalType": "uint256",
									"name": "dateOfEntry",
									"type": "uint256"
								},
								{
									"internalType": "string",
									"name": "dateOfExpiry",
									"type": "string"
								},
								{
									"internalType": "bool",
									"name": "promiseeConsent",
									"type": "bool"
								},
								{
									"internalType": "uint256",
									"name": "dateOfPromiseeConsent",
									"type": "uint256"
								},
								{
									"internalType": "bool",
									"name": "promisorConsent",
									"type": "bool"
								},
								{
									"internalType": "uint256",
									"name": "dateOfPromisorConsent",
									"type": "uint256"
								},
								{
									"internalType": "string",
									"name": "naturalLanguage",
									"type": "string"
								}
							],
							"internalType": "struct BillOfExchange.billInfo",
							"name": "",
							"type": "tuple"
						}
					],
					"stateMutability": "view",
					"type": "function"
				},
				{
					"inputs": [],
					"name": "kill",
					"outputs": [],
					"stateMutability": "nonpayable",
					"type": "function"
				},
				{
					"inputs": [],
					"name": "payBill",
					"outputs": [],
					"stateMutability": "payable",
					"type": "function"
				},
				{
					"inputs": [
						{
							"internalType": "string",
							"name": "_promisorName",
							"type": "string"
						},
						{
							"internalType": "address",
							"name": "_promisor",
							"type": "address"
						},
						{
							"internalType": "uint256",
							"name": "_billAmount",
							"type": "uint256"
						},
						{
							"internalType": "string",
							"name": "_billDescription",
							"type": "string"
						},
						{
							"internalType": "string",
							"name": "_dateOfExpiry",
							"type": "string"
						},
						{
							"internalType": "string",
							"name": "_naturalLanguage",
							"type": "string"
						}
					],
					"name": "setDetails",
					"outputs": [],
					"stateMutability": "nonpayable",
					"type": "function"
				},
				{
					"inputs": [],
					"name": "setPromiseeConsent",
					"outputs": [],
					"stateMutability": "nonpayable",
					"type": "function"
				},
				{
					"inputs": [],
					"name": "setPromisorConsent",
					"outputs": [],
					"stateMutability": "nonpayable",
					"type": "function"
				}
			],
			"devdoc": {
				"details": "Implement bills of exchange through a smart contrac      NOTE: This is purely a proof of concept, it is not to be used in real-life transactions as it has not been tested properly.      Made use of:   BillOfSale.sol by Michael Rice (https://github.com/mrice/solidity-legal-contracts)",
				"kind": "dev",
				"methods": {},
				"title": "Bills of Exchange Smart Contract",
				"version": 1
			},
			"evm": {
				"assembly": "    /* \"contracts/boe.sol\":416:4253  contract BillOfExchange {... */\n  mstore(0x40, 0x80)\n    /* \"contracts/boe.sol\":488:493  false */\n  0x00\n    /* \"contracts/boe.sol\":464:493  bool private billPaid = false */\n  dup1\n  exp(0x0100, 0x00)\n  dup2\n  sload\n  dup2\n  0xff\n  mul\n  not\n  and\n  swap1\n  dup4\n  iszero\n  iszero\n  mul\n  or\n  swap1\n  sstore\n  pop\n    /* \"contracts/boe.sol\":530:535  false */\n  0x00\n    /* \"contracts/boe.sol\":499:535  bool private paymentAccepted = false */\n  dup1\n  exp(0x0100, 0x01)\n  dup2\n  sload\n  dup2\n  0xff\n  mul\n  not\n  and\n  swap1\n  dup4\n  iszero\n  iszero\n  mul\n  or\n  swap1\n  sstore\n  pop\n    /* \"contracts/boe.sol\":1150:1286  constructor(string memory _promiseeName) {... */\n  callvalue\n  dup1\n  iszero\n  tag_1\n  jumpi\n  0x00\n  dup1\n  revert\ntag_1:\n  pop\n  mload(0x40)\n  sub(codesize, bytecodeSize)\n  dup1\n  bytecodeSize\n  dup4\n  codecopy\n  dup2\n  dup2\n  add\n  0x40\n  mstore\n  dup2\n  add\n  swap1\n  tag_2\n  swap2\n  swap1\n  tag_3\n  jump\t// in\ntag_2:\n    /* \"contracts/boe.sol\":1225:1235  msg.sender */\n  caller\n    /* \"contracts/boe.sol\":1201:1205  bill */\n  0x01\n    /* \"contracts/boe.sol\":1201:1214  bill.promisee */\n  0x00\n  add\n  0x00\n    /* \"contracts/boe.sol\":1201:1236  bill.promisee = payable(msg.sender) */\n  0x0100\n  exp\n  dup2\n  sload\n  dup2\n  0xffffffffffffffffffffffffffffffffffffffff\n  mul\n  not\n  and\n  swap1\n  dup4\n  0xffffffffffffffffffffffffffffffffffffffff\n  and\n  mul\n  or\n  swap1\n  sstore\n  pop\n    /* \"contracts/boe.sol\":1266:1279  _promiseeName */\n  dup1\n    /* \"contracts/boe.sol\":1246:1250  bill */\n  0x01\n    /* \"contracts/boe.sol\":1246:1263  bill.promiseeName */\n  dup1\n  add\n    /* \"contracts/boe.sol\":1246:1279  bill.promiseeName = _promiseeName */\n  swap1\n  dup1\n  mload\n  swap1\n  0x20\n  add\n  swap1\n  tag_6\n  swap3\n  swap2\n  swap1\n  tag_7\n  jump\t// in\ntag_6:\n  pop\n    /* \"contracts/boe.sol\":1150:1286  constructor(string memory _promiseeName) {... */\n  pop\n    /* \"contracts/boe.sol\":416:4253  contract BillOfExchange {... */\n  jump(tag_8)\ntag_7:\n  dup3\n  dup1\n  sload\n  tag_9\n  swap1\n  tag_10\n  jump\t// in\ntag_9:\n  swap1\n  0x00\n  mstore\n  keccak256(0x00, 0x20)\n  swap1\n  0x1f\n  add\n  0x20\n  swap1\n  div\n  dup2\n  add\n  swap3\n  dup3\n  tag_12\n  jumpi\n  0x00\n  dup6\n  sstore\n  jump(tag_11)\ntag_12:\n  dup3\n  0x1f\n  lt\n  tag_13\n  jumpi\n  dup1\n  mload\n  not(0xff)\n  and\n  dup4\n  dup1\n  add\n  or\n  dup6\n  sstore\n  jump(tag_11)\ntag_13:\n  dup3\n  dup1\n  add\n  0x01\n  add\n  dup6\n  sstore\n  dup3\n  iszero\n  tag_11\n  jumpi\n  swap2\n  dup3\n  add\ntag_14:\n  dup3\n  dup2\n  gt\n  iszero\n  tag_15\n  jumpi\n  dup3\n  mload\n  dup3\n  sstore\n  swap2\n  0x20\n  add\n  swap2\n  swap1\n  0x01\n  add\n  swap1\n  jump(tag_14)\ntag_15:\ntag_11:\n  pop\n  swap1\n  pop\n  tag_16\n  swap2\n  swap1\n  tag_17\n  jump\t// in\ntag_16:\n  pop\n  swap1\n  jump\t// out\ntag_17:\ntag_18:\n  dup1\n  dup3\n  gt\n  iszero\n  tag_19\n  jumpi\n  0x00\n  dup2\n  0x00\n  swap1\n  sstore\n  pop\n  0x01\n  add\n  jump(tag_18)\ntag_19:\n  pop\n  swap1\n  jump\t// out\n    /* \"#utility.yul\":7:428   */\ntag_21:\n    /* \"#utility.yul\":96:101   */\n  0x00\n    /* \"#utility.yul\":121:187   */\n  tag_23\n    /* \"#utility.yul\":137:186   */\n  tag_24\n    /* \"#utility.yul\":179:185   */\n  dup5\n    /* \"#utility.yul\":137:186   */\n  tag_25\n  jump\t// in\ntag_24:\n    /* \"#utility.yul\":121:187   */\n  tag_26\n  jump\t// in\ntag_23:\n    /* \"#utility.yul\":112:187   */\n  swap1\n  pop\n    /* \"#utility.yul\":210:216   */\n  dup3\n    /* \"#utility.yul\":203:208   */\n  dup2\n    /* \"#utility.yul\":196:217   */\n  mstore\n    /* \"#utility.yul\":248:252   */\n  0x20\n    /* \"#utility.yul\":241:246   */\n  dup2\n    /* \"#utility.yul\":237:253   */\n  add\n    /* \"#utility.yul\":286:289   */\n  dup5\n    /* \"#utility.yul\":277:283   */\n  dup5\n    /* \"#utility.yul\":272:275   */\n  dup5\n    /* \"#utility.yul\":268:284   */\n  add\n    /* \"#utility.yul\":265:290   */\n  gt\n    /* \"#utility.yul\":262:374   */\n  iszero\n  tag_27\n  jumpi\n    /* \"#utility.yul\":293:372   */\n  tag_28\n  tag_29\n  jump\t// in\ntag_28:\n    /* \"#utility.yul\":262:374   */\ntag_27:\n    /* \"#utility.yul\":383:422   */\n  tag_30\n    /* \"#utility.yul\":415:421   */\n  dup5\n    /* \"#utility.yul\":410:413   */\n  dup3\n    /* \"#utility.yul\":405:408   */\n  dup6\n    /* \"#utility.yul\":383:422   */\n  tag_31\n  jump\t// in\ntag_30:\n    /* \"#utility.yul\":102:428   */\n  pop\n    /* \"#utility.yul\":7:428   */\n  swap4\n  swap3\n  pop\n  pop\n  pop\n  jump\t// out\n    /* \"#utility.yul\":448:803   */\ntag_32:\n    /* \"#utility.yul\":515:520   */\n  0x00\n    /* \"#utility.yul\":564:567   */\n  dup3\n    /* \"#utility.yul\":557:561   */\n  0x1f\n    /* \"#utility.yul\":549:555   */\n  dup4\n    /* \"#utility.yul\":545:562   */\n  add\n    /* \"#utility.yul\":541:568   */\n  slt\n    /* \"#utility.yul\":531:653   */\n  tag_34\n  jumpi\n    /* \"#utility.yul\":572:651   */\n  tag_35\n  tag_36\n  jump\t// in\ntag_35:\n    /* \"#utility.yul\":531:653   */\ntag_34:\n    /* \"#utility.yul\":682:688   */\n  dup2\n    /* \"#utility.yul\":676:689   */\n  mload\n    /* \"#utility.yul\":707:797   */\n  tag_37\n    /* \"#utility.yul\":793:796   */\n  dup5\n    /* \"#utility.yul\":785:791   */\n  dup3\n    /* \"#utility.yul\":778:782   */\n  0x20\n    /* \"#utility.yul\":770:776   */\n  dup7\n    /* \"#utility.yul\":766:783   */\n  add\n    /* \"#utility.yul\":707:797   */\n  tag_21\n  jump\t// in\ntag_37:\n    /* \"#utility.yul\":698:797   */\n  swap2\n  pop\n    /* \"#utility.yul\":521:803   */\n  pop\n    /* \"#utility.yul\":448:803   */\n  swap3\n  swap2\n  pop\n  pop\n  jump\t// out\n    /* \"#utility.yul\":809:1333   */\ntag_3:\n    /* \"#utility.yul\":889:895   */\n  0x00\n    /* \"#utility.yul\":938:940   */\n  0x20\n    /* \"#utility.yul\":926:935   */\n  dup3\n    /* \"#utility.yul\":917:924   */\n  dup5\n    /* \"#utility.yul\":913:936   */\n  sub\n    /* \"#utility.yul\":909:941   */\n  slt\n    /* \"#utility.yul\":906:1025   */\n  iszero\n  tag_39\n  jumpi\n    /* \"#utility.yul\":944:1023   */\n  tag_40\n  tag_41\n  jump\t// in\ntag_40:\n    /* \"#utility.yul\":906:1025   */\ntag_39:\n    /* \"#utility.yul\":1085:1086   */\n  0x00\n    /* \"#utility.yul\":1074:1083   */\n  dup3\n    /* \"#utility.yul\":1070:1087   */\n  add\n    /* \"#utility.yul\":1064:1088   */\n  mload\n    /* \"#utility.yul\":1115:1133   */\n  0xffffffffffffffff\n    /* \"#utility.yul\":1107:1113   */\n  dup2\n    /* \"#utility.yul\":1104:1134   */\n  gt\n    /* \"#utility.yul\":1101:1218   */\n  iszero\n  tag_42\n  jumpi\n    /* \"#utility.yul\":1137:1216   */\n  tag_43\n  tag_44\n  jump\t// in\ntag_43:\n    /* \"#utility.yul\":1101:1218   */\ntag_42:\n    /* \"#utility.yul\":1242:1316   */\n  tag_45\n    /* \"#utility.yul\":1308:1315   */\n  dup5\n    /* \"#utility.yul\":1299:1305   */\n  dup3\n    /* \"#utility.yul\":1288:1297   */\n  dup6\n    /* \"#utility.yul\":1284:1306   */\n  add\n    /* \"#utility.yul\":1242:1316   */\n  tag_32\n  jump\t// in\ntag_45:\n    /* \"#utility.yul\":1232:1316   */\n  swap2\n  pop\n    /* \"#utility.yul\":1035:1326   */\n  pop\n    /* \"#utility.yul\":809:1333   */\n  swap3\n  swap2\n  pop\n  pop\n  jump\t// out\n    /* \"#utility.yul\":1339:1468   */\ntag_26:\n    /* \"#utility.yul\":1373:1379   */\n  0x00\n    /* \"#utility.yul\":1400:1420   */\n  tag_47\n  tag_48\n  jump\t// in\ntag_47:\n    /* \"#utility.yul\":1390:1420   */\n  swap1\n  pop\n    /* \"#utility.yul\":1429:1462   */\n  tag_49\n    /* \"#utility.yul\":1457:1461   */\n  dup3\n    /* \"#utility.yul\":1449:1455   */\n  dup3\n    /* \"#utility.yul\":1429:1462   */\n  tag_50\n  jump\t// in\ntag_49:\n    /* \"#utility.yul\":1339:1468   */\n  swap2\n  swap1\n  pop\n  jump\t// out\n    /* \"#utility.yul\":1474:1549   */\ntag_48:\n    /* \"#utility.yul\":1507:1513   */\n  0x00\n    /* \"#utility.yul\":1540:1542   */\n  0x40\n    /* \"#utility.yul\":1534:1543   */\n  mload\n    /* \"#utility.yul\":1524:1543   */\n  swap1\n  pop\n    /* \"#utility.yul\":1474:1549   */\n  swap1\n  jump\t// out\n    /* \"#utility.yul\":1555:1863   */\ntag_25:\n    /* \"#utility.yul\":1617:1621   */\n  0x00\n    /* \"#utility.yul\":1707:1725   */\n  0xffffffffffffffff\n    /* \"#utility.yul\":1699:1705   */\n  dup3\n    /* \"#utility.yul\":1696:1726   */\n  gt\n    /* \"#utility.yul\":1693:1749   */\n  iszero\n  tag_53\n  jumpi\n    /* \"#utility.yul\":1729:1747   */\n  tag_54\n  tag_55\n  jump\t// in\ntag_54:\n    /* \"#utility.yul\":1693:1749   */\ntag_53:\n    /* \"#utility.yul\":1767:1796   */\n  tag_56\n    /* \"#utility.yul\":1789:1795   */\n  dup3\n    /* \"#utility.yul\":1767:1796   */\n  tag_57\n  jump\t// in\ntag_56:\n    /* \"#utility.yul\":1759:1796   */\n  swap1\n  pop\n    /* \"#utility.yul\":1851:1855   */\n  0x20\n    /* \"#utility.yul\":1845:1849   */\n  dup2\n    /* \"#utility.yul\":1841:1856   */\n  add\n    /* \"#utility.yul\":1833:1856   */\n  swap1\n  pop\n    /* \"#utility.yul\":1555:1863   */\n  swap2\n  swap1\n  pop\n  jump\t// out\n    /* \"#utility.yul\":1869:2176   */\ntag_31:\n    /* \"#utility.yul\":1937:1938   */\n  0x00\n    /* \"#utility.yul\":1947:2060   */\ntag_59:\n    /* \"#utility.yul\":1961:1967   */\n  dup4\n    /* \"#utility.yul\":1958:1959   */\n  dup2\n    /* \"#utility.yul\":1955:1968   */\n  lt\n    /* \"#utility.yul\":1947:2060   */\n  iszero\n  tag_61\n  jumpi\n    /* \"#utility.yul\":2046:2047   */\n  dup1\n    /* \"#utility.yul\":2041:2044   */\n  dup3\n    /* \"#utility.yul\":2037:2048   */\n  add\n    /* \"#utility.yul\":2031:2049   */\n  mload\n    /* \"#utility.yul\":2027:2028   */\n  dup2\n    /* \"#utility.yul\":2022:2025   */\n  dup5\n    /* \"#utility.yul\":2018:2029   */\n  add\n    /* \"#utility.yul\":2011:2050   */\n  mstore\n    /* \"#utility.yul\":1983:1985   */\n  0x20\n    /* \"#utility.yul\":1980:1981   */\n  dup2\n    /* \"#utility.yul\":1976:1986   */\n  add\n    /* \"#utility.yul\":1971:1986   */\n  swap1\n  pop\n    /* \"#utility.yul\":1947:2060   */\n  jump(tag_59)\ntag_61:\n    /* \"#utility.yul\":2078:2084   */\n  dup4\n    /* \"#utility.yul\":2075:2076   */\n  dup2\n    /* \"#utility.yul\":2072:2085   */\n  gt\n    /* \"#utility.yul\":2069:2170   */\n  iszero\n  tag_62\n  jumpi\n    /* \"#utility.yul\":2158:2159   */\n  0x00\n    /* \"#utility.yul\":2149:2155   */\n  dup5\n    /* \"#utility.yul\":2144:2147   */\n  dup5\n    /* \"#utility.yul\":2140:2156   */\n  add\n    /* \"#utility.yul\":2133:2160   */\n  mstore\n    /* \"#utility.yul\":2069:2170   */\ntag_62:\n    /* \"#utility.yul\":1918:2176   */\n  pop\n    /* \"#utility.yul\":1869:2176   */\n  pop\n  pop\n  pop\n  jump\t// out\n    /* \"#utility.yul\":2182:2502   */\ntag_10:\n    /* \"#utility.yul\":2226:2232   */\n  0x00\n    /* \"#utility.yul\":2263:2264   */\n  0x02\n    /* \"#utility.yul\":2257:2261   */\n  dup3\n    /* \"#utility.yul\":2253:2265   */\n  div\n    /* \"#utility.yul\":2243:2265   */\n  swap1\n  pop\n    /* \"#utility.yul\":2310:2311   */\n  0x01\n    /* \"#utility.yul\":2304:2308   */\n  dup3\n    /* \"#utility.yul\":2300:2312   */\n  and\n    /* \"#utility.yul\":2331:2349   */\n  dup1\n    /* \"#utility.yul\":2321:2402   */\n  tag_64\n  jumpi\n    /* \"#utility.yul\":2387:2391   */\n  0x7f\n    /* \"#utility.yul\":2379:2385   */\n  dup3\n    /* \"#utility.yul\":2375:2392   */\n  and\n    /* \"#utility.yul\":2365:2392   */\n  swap2\n  pop\n    /* \"#utility.yul\":2321:2402   */\ntag_64:\n    /* \"#utility.yul\":2449:2451   */\n  0x20\n    /* \"#utility.yul\":2441:2447   */\n  dup3\n    /* \"#utility.yul\":2438:2452   */\n  lt\n    /* \"#utility.yul\":2418:2436   */\n  dup2\n    /* \"#utility.yul\":2415:2453   */\n  eq\n    /* \"#utility.yul\":2412:2496   */\n  iszero\n  tag_65\n  jumpi\n    /* \"#utility.yul\":2468:2486   */\n  tag_66\n  tag_67\n  jump\t// in\ntag_66:\n    /* \"#utility.yul\":2412:2496   */\ntag_65:\n    /* \"#utility.yul\":2233:2502   */\n  pop\n    /* \"#utility.yul\":2182:2502   */\n  swap2\n  swap1\n  pop\n  jump\t// out\n    /* \"#utility.yul\":2508:2789   */\ntag_50:\n    /* \"#utility.yul\":2591:2618   */\n  tag_69\n    /* \"#utility.yul\":2613:2617   */\n  dup3\n    /* \"#utility.yul\":2591:2618   */\n  tag_57\n  jump\t// in\ntag_69:\n    /* \"#utility.yul\":2583:2589   */\n  dup2\n    /* \"#utility.yul\":2579:2619   */\n  add\n    /* \"#utility.yul\":2721:2727   */\n  dup2\n    /* \"#utility.yul\":2709:2719   */\n  dup2\n    /* \"#utility.yul\":2706:2728   */\n  lt\n    /* \"#utility.yul\":2685:2703   */\n  0xffffffffffffffff\n    /* \"#utility.yul\":2673:2683   */\n  dup3\n    /* \"#utility.yul\":2670:2704   */\n  gt\n    /* \"#utility.yul\":2667:2729   */\n  or\n    /* \"#utility.yul\":2664:2752   */\n  iszero\n  tag_70\n  jumpi\n    /* \"#utility.yul\":2732:2750   */\n  tag_71\n  tag_55\n  jump\t// in\ntag_71:\n    /* \"#utility.yul\":2664:2752   */\ntag_70:\n    /* \"#utility.yul\":2772:2782   */\n  dup1\n    /* \"#utility.yul\":2768:2770   */\n  0x40\n    /* \"#utility.yul\":2761:2783   */\n  mstore\n    /* \"#utility.yul\":2551:2789   */\n  pop\n    /* \"#utility.yul\":2508:2789   */\n  pop\n  pop\n  jump\t// out\n    /* \"#utility.yul\":2795:2975   */\ntag_67:\n    /* \"#utility.yul\":2843:2920   */\n  0x4e487b7100000000000000000000000000000000000000000000000000000000\n    /* \"#utility.yul\":2840:2841   */\n  0x00\n    /* \"#utility.yul\":2833:2921   */\n  mstore\n    /* \"#utility.yul\":2940:2944   */\n  0x22\n    /* \"#utility.yul\":2937:2938   */\n  0x04\n    /* \"#utility.yul\":2930:2945   */\n  mstore\n    /* \"#utility.yul\":2964:2968   */\n  0x24\n    /* \"#utility.yul\":2961:2962   */\n  0x00\n    /* \"#utility.yul\":2954:2969   */\n  revert\n    /* \"#utility.yul\":2981:3161   */\ntag_55:\n    /* \"#utility.yul\":3029:3106   */\n  0x4e487b7100000000000000000000000000000000000000000000000000000000\n    /* \"#utility.yul\":3026:3027   */\n  0x00\n    /* \"#utility.yul\":3019:3107   */\n  mstore\n    /* \"#utility.yul\":3126:3130   */\n  0x41\n    /* \"#utility.yul\":3123:3124   */\n  0x04\n    /* \"#utility.yul\":3116:3131   */\n  mstore\n    /* \"#utility.yul\":3150:3154   */\n  0x24\n    /* \"#utility.yul\":3147:3148   */\n  0x00\n    /* \"#utility.yul\":3140:3155   */\n  revert\n    /* \"#utility.yul\":3167:3284   */\ntag_36:\n    /* \"#utility.yul\":3276:3277   */\n  0x00\n    /* \"#utility.yul\":3273:3274   */\n  dup1\n    /* \"#utility.yul\":3266:3278   */\n  revert\n    /* \"#utility.yul\":3290:3407   */\ntag_29:\n    /* \"#utility.yul\":3399:3400   */\n  0x00\n    /* \"#utility.yul\":3396:3397   */\n  dup1\n    /* \"#utility.yul\":3389:3401   */\n  revert\n    /* \"#utility.yul\":3413:3530   */\ntag_44:\n    /* \"#utility.yul\":3522:3523   */\n  0x00\n    /* \"#utility.yul\":3519:3520   */\n  dup1\n    /* \"#utility.yul\":3512:3524   */\n  revert\n    /* \"#utility.yul\":3536:3653   */\ntag_41:\n    /* \"#utility.yul\":3645:3646   */\n  0x00\n    /* \"#utility.yul\":3642:3643   */\n  dup1\n    /* \"#utility.yul\":3635:3647   */\n  revert\n    /* \"#utility.yul\":3659:3761   */\ntag_57:\n    /* \"#utility.yul\":3700:3706   */\n  0x00\n    /* \"#utility.yul\":3751:3753   */\n  0x1f\n    /* \"#utility.yul\":3747:3754   */\n  not\n    /* \"#utility.yul\":3742:3744   */\n  0x1f\n    /* \"#utility.yul\":3735:3740   */\n  dup4\n    /* \"#utility.yul\":3731:3745   */\n  add\n    /* \"#utility.yul\":3727:3755   */\n  and\n    /* \"#utility.yul\":3717:3755   */\n  swap1\n  pop\n    /* \"#utility.yul\":3659:3761   */\n  swap2\n  swap1\n  pop\n  jump\t// out\n    /* \"contracts/boe.sol\":416:4253  contract BillOfExchange {... */\ntag_8:\n  dataSize(sub_0)\n  dup1\n  dataOffset(sub_0)\n  0x00\n  codecopy\n  0x00\n  return\nstop\n\nsub_0: assembly {\n        /* \"contracts/boe.sol\":416:4253  contract BillOfExchange {... */\n      mstore(0x40, 0x80)\n      jumpi(tag_1, lt(calldatasize, 0x04))\n      shr(0xe0, calldataload(0x00))\n      dup1\n      0x7a781658\n      gt\n      tag_9\n      jumpi\n      dup1\n      0x7a781658\n      eq\n      tag_5\n      jumpi\n      dup1\n      0x8c4adcbd\n      eq\n      tag_6\n      jumpi\n      dup1\n      0x93d6d824\n      eq\n      tag_7\n      jumpi\n      dup1\n      0xae0aba8c\n      eq\n      tag_8\n      jumpi\n      jump(tag_1)\n    tag_9:\n      dup1\n      0x41c0e1b5\n      eq\n      tag_2\n      jumpi\n      dup1\n      0x5a9b0b89\n      eq\n      tag_3\n      jumpi\n      dup1\n      0x74cd7aed\n      eq\n      tag_4\n      jumpi\n    tag_1:\n      0x00\n      dup1\n      revert\n        /* \"contracts/boe.sol\":3266:3346  function kill() promiseeOnly public {... */\n    tag_2:\n      callvalue\n      dup1\n      iszero\n      tag_10\n      jumpi\n      0x00\n      dup1\n      revert\n    tag_10:\n      pop\n      tag_11\n      tag_12\n      jump\t// in\n    tag_11:\n      stop\n        /* \"contracts/boe.sol\":3439:3522  function getInfo() public view returns(billInfo memory){... */\n    tag_3:\n      callvalue\n      dup1\n      iszero\n      tag_13\n      jumpi\n      0x00\n      dup1\n      revert\n    tag_13:\n      pop\n      tag_14\n      tag_15\n      jump\t// in\n    tag_14:\n      mload(0x40)\n      tag_16\n      swap2\n      swap1\n      tag_17\n      jump\t// in\n    tag_16:\n      mload(0x40)\n      dup1\n      swap2\n      sub\n      swap1\n      return\n        /* \"contracts/boe.sol\":2066:2298  function setPromiseeConsent() public promiseeOnly {... */\n    tag_4:\n      callvalue\n      dup1\n      iszero\n      tag_18\n      jumpi\n      0x00\n      dup1\n      revert\n    tag_18:\n      pop\n      tag_19\n      tag_20\n      jump\t// in\n    tag_19:\n      stop\n        /* \"contracts/boe.sol\":2695:2872  function payBill () public payable needConsent promisorOnly {... */\n    tag_5:\n      tag_21\n      tag_22\n      jump\t// in\n    tag_21:\n      stop\n        /* \"contracts/boe.sol\":1356:1915  function setDetails (string memory _promisorName, address _promisor, uint _billAmount, string memory _billDescription, string memory _dateOfExpiry, string memory _naturalLanguage) public promiseeOnly {... */\n    tag_6:\n      callvalue\n      dup1\n      iszero\n      tag_23\n      jumpi\n      0x00\n      dup1\n      revert\n    tag_23:\n      pop\n      tag_24\n      0x04\n      dup1\n      calldatasize\n      sub\n      dup2\n      add\n      swap1\n      tag_25\n      swap2\n      swap1\n      tag_26\n      jump\t// in\n    tag_25:\n      tag_27\n      jump\t// in\n    tag_24:\n      stop\n        /* \"contracts/boe.sol\":2304:2536  function setPromisorConsent() public promisorOnly {... */\n    tag_7:\n      callvalue\n      dup1\n      iszero\n      tag_28\n      jumpi\n      0x00\n      dup1\n      revert\n    tag_28:\n      pop\n      tag_29\n      tag_30\n      jump\t// in\n    tag_29:\n      stop\n        /* \"contracts/boe.sol\":3027:3193  function acceptPayment () public promiseeOnly billHasBeenPaid {... */\n    tag_8:\n      callvalue\n      dup1\n      iszero\n      tag_31\n      jumpi\n      0x00\n      dup1\n      revert\n    tag_31:\n      pop\n      tag_32\n      tag_33\n      jump\t// in\n    tag_32:\n      stop\n        /* \"contracts/boe.sol\":3266:3346  function kill() promiseeOnly public {... */\n    tag_12:\n        /* \"contracts/boe.sol\":3737:3741  bill */\n      0x01\n        /* \"contracts/boe.sol\":3737:3750  bill.promisee */\n      0x00\n      add\n      0x00\n      swap1\n      sload\n      swap1\n      0x0100\n      exp\n      swap1\n      div\n      0xffffffffffffffffffffffffffffffffffffffff\n      and\n        /* \"contracts/boe.sol\":3723:3750  msg.sender == bill.promisee */\n      0xffffffffffffffffffffffffffffffffffffffff\n      and\n        /* \"contracts/boe.sol\":3723:3733  msg.sender */\n      caller\n        /* \"contracts/boe.sol\":3723:3750  msg.sender == bill.promisee */\n      0xffffffffffffffffffffffffffffffffffffffff\n      and\n      eq\n        /* \"contracts/boe.sol\":3715:3794  require(msg.sender == bill.promisee, \"only the promisee can send this message\") */\n      tag_35\n      jumpi\n      mload(0x40)\n      0x08c379a000000000000000000000000000000000000000000000000000000000\n      dup2\n      mstore\n      0x04\n      add\n      tag_36\n      swap1\n      tag_37\n      jump\t// in\n    tag_36:\n      mload(0x40)\n      dup1\n      swap2\n      sub\n      swap1\n      revert\n    tag_35:\n        /* \"contracts/boe.sol\":3325:3329  bill */\n      0x01\n        /* \"contracts/boe.sol\":3325:3338  bill.promisee */\n      0x00\n      add\n      0x00\n      swap1\n      sload\n      swap1\n      0x0100\n      exp\n      swap1\n      div\n      0xffffffffffffffffffffffffffffffffffffffff\n      and\n        /* \"contracts/boe.sol\":3312:3339  selfdestruct(bill.promisee) */\n      0xffffffffffffffffffffffffffffffffffffffff\n      and\n      selfdestruct\n        /* \"contracts/boe.sol\":3439:3522  function getInfo() public view returns(billInfo memory){... */\n    tag_15:\n        /* \"contracts/boe.sol\":3478:3493  billInfo memory */\n      tag_39\n      tag_40\n      jump\t// in\n    tag_39:\n        /* \"contracts/boe.sol\":3511:3515  bill */\n      0x01\n        /* \"contracts/boe.sol\":3504:3515  return bill */\n      mload(0x40)\n      dup1\n      0x01a0\n      add\n      0x40\n      mstore\n      swap1\n      dup2\n      0x00\n      dup3\n      add\n      0x00\n      swap1\n      sload\n      swap1\n      0x0100\n      exp\n      swap1\n      div\n      0xffffffffffffffffffffffffffffffffffffffff\n      and\n      0xffffffffffffffffffffffffffffffffffffffff\n      and\n      0xffffffffffffffffffffffffffffffffffffffff\n      and\n      dup2\n      mstore\n      0x20\n      add\n      0x01\n      dup3\n      add\n      dup1\n      sload\n      tag_42\n      swap1\n      tag_43\n      jump\t// in\n    tag_42:\n      dup1\n      0x1f\n      add\n      0x20\n      dup1\n      swap2\n      div\n      mul\n      0x20\n      add\n      mload(0x40)\n      swap1\n      dup2\n      add\n      0x40\n      mstore\n      dup1\n      swap3\n      swap2\n      swap1\n      dup2\n      dup2\n      mstore\n      0x20\n      add\n      dup3\n      dup1\n      sload\n      tag_44\n      swap1\n      tag_43\n      jump\t// in\n    tag_44:\n      dup1\n      iszero\n      tag_45\n      jumpi\n      dup1\n      0x1f\n      lt\n      tag_46\n      jumpi\n      0x0100\n      dup1\n      dup4\n      sload\n      div\n      mul\n      dup4\n      mstore\n      swap2\n      0x20\n      add\n      swap2\n      jump(tag_45)\n    tag_46:\n      dup3\n      add\n      swap2\n      swap1\n      0x00\n      mstore\n      keccak256(0x00, 0x20)\n      swap1\n    tag_47:\n      dup2\n      sload\n      dup2\n      mstore\n      swap1\n      0x01\n      add\n      swap1\n      0x20\n      add\n      dup1\n      dup4\n      gt\n      tag_47\n      jumpi\n      dup3\n      swap1\n      sub\n      0x1f\n      and\n      dup3\n      add\n      swap2\n    tag_45:\n      pop\n      pop\n      pop\n      pop\n      pop\n      dup2\n      mstore\n      0x20\n      add\n      0x02\n      dup3\n      add\n      0x00\n      swap1\n      sload\n      swap1\n      0x0100\n      exp\n      swap1\n      div\n      0xffffffffffffffffffffffffffffffffffffffff\n      and\n      0xffffffffffffffffffffffffffffffffffffffff\n      and\n      0xffffffffffffffffffffffffffffffffffffffff\n      and\n      dup2\n      mstore\n      0x20\n      add\n      0x03\n      dup3\n      add\n      dup1\n      sload\n      tag_48\n      swap1\n      tag_43\n      jump\t// in\n    tag_48:\n      dup1\n      0x1f\n      add\n      0x20\n      dup1\n      swap2\n      div\n      mul\n      0x20\n      add\n      mload(0x40)\n      swap1\n      dup2\n      add\n      0x40\n      mstore\n      dup1\n      swap3\n      swap2\n      swap1\n      dup2\n      dup2\n      mstore\n      0x20\n      add\n      dup3\n      dup1\n      sload\n      tag_49\n      swap1\n      tag_43\n      jump\t// in\n    tag_49:\n      dup1\n      iszero\n      tag_50\n      jumpi\n      dup1\n      0x1f\n      lt\n      tag_51\n      jumpi\n      0x0100\n      dup1\n      dup4\n      sload\n      div\n      mul\n      dup4\n      mstore\n      swap2\n      0x20\n      add\n      swap2\n      jump(tag_50)\n    tag_51:\n      dup3\n      add\n      swap2\n      swap1\n      0x00\n      mstore\n      keccak256(0x00, 0x20)\n      swap1\n    tag_52:\n      dup2\n      sload\n      dup2\n      mstore\n      swap1\n      0x01\n      add\n      swap1\n      0x20\n      add\n      dup1\n      dup4\n      gt\n      tag_52\n      jumpi\n      dup3\n      swap1\n      sub\n      0x1f\n      and\n      dup3\n      add\n      swap2\n    tag_50:\n      pop\n      pop\n      pop\n      pop\n      pop\n      dup2\n      mstore\n      0x20\n      add\n      0x04\n      dup3\n      add\n      sload\n      dup2\n      mstore\n      0x20\n      add\n      0x05\n      dup3\n      add\n      dup1\n      sload\n      tag_53\n      swap1\n      tag_43\n      jump\t// in\n    tag_53:\n      dup1\n      0x1f\n      add\n      0x20\n      dup1\n      swap2\n      div\n      mul\n      0x20\n      add\n      mload(0x40)\n      swap1\n      dup2\n      add\n      0x40\n      mstore\n      dup1\n      swap3\n      swap2\n      swap1\n      dup2\n      dup2\n      mstore\n      0x20\n      add\n      dup3\n      dup1\n      sload\n      tag_54\n      swap1\n      tag_43\n      jump\t// in\n    tag_54:\n      dup1\n      iszero\n      tag_55\n      jumpi\n      dup1\n      0x1f\n      lt\n      tag_56\n      jumpi\n      0x0100\n      dup1\n      dup4\n      sload\n      div\n      mul\n      dup4\n      mstore\n      swap2\n      0x20\n      add\n      swap2\n      jump(tag_55)\n    tag_56:\n      dup3\n      add\n      swap2\n      swap1\n      0x00\n      mstore\n      keccak256(0x00, 0x20)\n      swap1\n    tag_57:\n      dup2\n      sload\n      dup2\n      mstore\n      swap1\n      0x01\n      add\n      swap1\n      0x20\n      add\n      dup1\n      dup4\n      gt\n      tag_57\n      jumpi\n      dup3\n      swap1\n      sub\n      0x1f\n      and\n      dup3\n      add\n      swap2\n    tag_55:\n      pop\n      pop\n      pop\n      pop\n      pop\n      dup2\n      mstore\n      0x20\n      add\n      0x06\n      dup3\n      add\n      sload\n      dup2\n      mstore\n      0x20\n      add\n      0x07\n      dup3\n      add\n      dup1\n      sload\n      tag_58\n      swap1\n      tag_43\n      jump\t// in\n    tag_58:\n      dup1\n      0x1f\n      add\n      0x20\n      dup1\n      swap2\n      div\n      mul\n      0x20\n      add\n      mload(0x40)\n      swap1\n      dup2\n      add\n      0x40\n      mstore\n      dup1\n      swap3\n      swap2\n      swap1\n      dup2\n      dup2\n      mstore\n      0x20\n      add\n      dup3\n      dup1\n      sload\n      tag_59\n      swap1\n      tag_43\n      jump\t// in\n    tag_59:\n      dup1\n      iszero\n      tag_60\n      jumpi\n      dup1\n      0x1f\n      lt\n      tag_61\n      jumpi\n      0x0100\n      dup1\n      dup4\n      sload\n      div\n      mul\n      dup4\n      mstore\n      swap2\n      0x20\n      add\n      swap2\n      jump(tag_60)\n    tag_61:\n      dup3\n      add\n      swap2\n      swap1\n      0x00\n      mstore\n      keccak256(0x00, 0x20)\n      swap1\n    tag_62:\n      dup2\n      sload\n      dup2\n      mstore\n      swap1\n      0x01\n      add\n      swap1\n      0x20\n      add\n      dup1\n      dup4\n      gt\n      tag_62\n      jumpi\n      dup3\n      swap1\n      sub\n      0x1f\n      and\n      dup3\n      add\n      swap2\n    tag_60:\n      pop\n      pop\n      pop\n      pop\n      pop\n      dup2\n      mstore\n      0x20\n      add\n      0x08\n      dup3\n      add\n      0x00\n      swap1\n      sload\n      swap1\n      0x0100\n      exp\n      swap1\n      div\n      0xff\n      and\n      iszero\n      iszero\n      iszero\n      iszero\n      dup2\n      mstore\n      0x20\n      add\n      0x09\n      dup3\n      add\n      sload\n      dup2\n      mstore\n      0x20\n      add\n      0x0a\n      dup3\n      add\n      0x00\n      swap1\n      sload\n      swap1\n      0x0100\n      exp\n      swap1\n      div\n      0xff\n      and\n      iszero\n      iszero\n      iszero\n      iszero\n      dup2\n      mstore\n      0x20\n      add\n      0x0b\n      dup3\n      add\n      sload\n      dup2\n      mstore\n      0x20\n      add\n      0x0c\n      dup3\n      add\n      dup1\n      sload\n      tag_63\n      swap1\n      tag_43\n      jump\t// in\n    tag_63:\n      dup1\n      0x1f\n      add\n      0x20\n      dup1\n      swap2\n      div\n      mul\n      0x20\n      add\n      mload(0x40)\n      swap1\n      dup2\n      add\n      0x40\n      mstore\n      dup1\n      swap3\n      swap2\n      swap1\n      dup2\n      dup2\n      mstore\n      0x20\n      add\n      dup3\n      dup1\n      sload\n      tag_64\n      swap1\n      tag_43\n      jump\t// in\n    tag_64:\n      dup1\n      iszero\n      tag_65\n      jumpi\n      dup1\n      0x1f\n      lt\n      tag_66\n      jumpi\n      0x0100\n      dup1\n      dup4\n      sload\n      div\n      mul\n      dup4\n      mstore\n      swap2\n      0x20\n      add\n      swap2\n      jump(tag_65)\n    tag_66:\n      dup3\n      add\n      swap2\n      swap1\n      0x00\n      mstore\n      keccak256(0x00, 0x20)\n      swap1\n    tag_67:\n      dup2\n      sload\n      dup2\n      mstore\n      swap1\n      0x01\n      add\n      swap1\n      0x20\n      add\n      dup1\n      dup4\n      gt\n      tag_67\n      jumpi\n      dup3\n      swap1\n      sub\n      0x1f\n      and\n      dup3\n      add\n      swap2\n    tag_65:\n      pop\n      pop\n      pop\n      pop\n      pop\n      dup2\n      mstore\n      pop\n      pop\n      swap1\n      pop\n        /* \"contracts/boe.sol\":3439:3522  function getInfo() public view returns(billInfo memory){... */\n      swap1\n      jump\t// out\n        /* \"contracts/boe.sol\":2066:2298  function setPromiseeConsent() public promiseeOnly {... */\n    tag_20:\n        /* \"contracts/boe.sol\":3737:3741  bill */\n      0x01\n        /* \"contracts/boe.sol\":3737:3750  bill.promisee */\n      0x00\n      add\n      0x00\n      swap1\n      sload\n      swap1\n      0x0100\n      exp\n      swap1\n      div\n      0xffffffffffffffffffffffffffffffffffffffff\n      and\n        /* \"contracts/boe.sol\":3723:3750  msg.sender == bill.promisee */\n      0xffffffffffffffffffffffffffffffffffffffff\n      and\n        /* \"contracts/boe.sol\":3723:3733  msg.sender */\n      caller\n        /* \"contracts/boe.sol\":3723:3750  msg.sender == bill.promisee */\n      0xffffffffffffffffffffffffffffffffffffffff\n      and\n      eq\n        /* \"contracts/boe.sol\":3715:3794  require(msg.sender == bill.promisee, \"only the promisee can send this message\") */\n      tag_69\n      jumpi\n      mload(0x40)\n      0x08c379a000000000000000000000000000000000000000000000000000000000\n      dup2\n      mstore\n      0x04\n      add\n      tag_70\n      swap1\n      tag_37\n      jump\t// in\n    tag_70:\n      mload(0x40)\n      dup1\n      swap2\n      sub\n      swap1\n      revert\n    tag_69:\n        /* \"contracts/boe.sol\":2149:2153  true */\n      0x01\n        /* \"contracts/boe.sol\":2126:2130  bill */\n      dup1\n        /* \"contracts/boe.sol\":2126:2146  bill.promiseeConsent */\n      0x08\n      add\n      0x00\n        /* \"contracts/boe.sol\":2126:2153  bill.promiseeConsent = true */\n      0x0100\n      exp\n      dup2\n      sload\n      dup2\n      0xff\n      mul\n      not\n      and\n      swap1\n      dup4\n      iszero\n      iszero\n      mul\n      or\n      swap1\n      sstore\n      pop\n        /* \"contracts/boe.sol\":2192:2207  block.timestamp */\n      timestamp\n        /* \"contracts/boe.sol\":2163:2167  bill */\n      0x01\n        /* \"contracts/boe.sol\":2163:2189  bill.dateOfPromiseeConsent */\n      0x09\n      add\n        /* \"contracts/boe.sol\":2163:2207  bill.dateOfPromiseeConsent = block.timestamp */\n      dup2\n      swap1\n      sstore\n      pop\n        /* \"contracts/boe.sol\":2245:2249  true */\n      0x01\n        /* \"contracts/boe.sol\":2221:2249  bill.promisorConsent == true */\n      iszero\n      iszero\n        /* \"contracts/boe.sol\":2221:2225  bill */\n      0x01\n        /* \"contracts/boe.sol\":2221:2241  bill.promisorConsent */\n      0x0a\n      add\n      0x00\n      swap1\n      sload\n      swap1\n      0x0100\n      exp\n      swap1\n      div\n      0xff\n      and\n        /* \"contracts/boe.sol\":2221:2249  bill.promisorConsent == true */\n      iszero\n      iszero\n      eq\n        /* \"contracts/boe.sol\":2217:2292  if (bill.promisorConsent == true) {... */\n      iszero\n      tag_72\n      jumpi\n        /* \"contracts/boe.sol\":2265:2281  setDateOfEntry() */\n      tag_73\n        /* \"contracts/boe.sol\":2265:2279  setDateOfEntry */\n      tag_74\n        /* \"contracts/boe.sol\":2265:2281  setDateOfEntry() */\n      jump\t// in\n    tag_73:\n        /* \"contracts/boe.sol\":2217:2292  if (bill.promisorConsent == true) {... */\n    tag_72:\n        /* \"contracts/boe.sol\":2066:2298  function setPromiseeConsent() public promiseeOnly {... */\n      jump\t// out\n        /* \"contracts/boe.sol\":2695:2872  function payBill () public payable needConsent promisorOnly {... */\n    tag_22:\n        /* \"contracts/boe.sol\":4061:4065  true */\n      0x01\n        /* \"contracts/boe.sol\":4037:4065  bill.promiseeConsent == true */\n      iszero\n      iszero\n        /* \"contracts/boe.sol\":4037:4041  bill */\n      0x01\n        /* \"contracts/boe.sol\":4037:4057  bill.promiseeConsent */\n      0x08\n      add\n      0x00\n      swap1\n      sload\n      swap1\n      0x0100\n      exp\n      swap1\n      div\n      0xff\n      and\n        /* \"contracts/boe.sol\":4037:4065  bill.promiseeConsent == true */\n      iszero\n      iszero\n      eq\n        /* \"contracts/boe.sol\":4037:4097  bill.promiseeConsent == true && bill.promisorConsent == true */\n      dup1\n      iszero\n      tag_76\n      jumpi\n      pop\n        /* \"contracts/boe.sol\":4093:4097  true */\n      0x01\n        /* \"contracts/boe.sol\":4069:4097  bill.promisorConsent == true */\n      iszero\n      iszero\n        /* \"contracts/boe.sol\":4069:4073  bill */\n      0x01\n        /* \"contracts/boe.sol\":4069:4089  bill.promisorConsent */\n      0x0a\n      add\n      0x00\n      swap1\n      sload\n      swap1\n      0x0100\n      exp\n      swap1\n      div\n      0xff\n      and\n        /* \"contracts/boe.sol\":4069:4097  bill.promisorConsent == true */\n      iszero\n      iszero\n      eq\n        /* \"contracts/boe.sol\":4037:4097  bill.promiseeConsent == true && bill.promisorConsent == true */\n    tag_76:\n        /* \"contracts/boe.sol\":4029:4098  require(bill.promiseeConsent == true && bill.promisorConsent == true) */\n      tag_77\n      jumpi\n      0x00\n      dup1\n      revert\n    tag_77:\n        /* \"contracts/boe.sol\":3601:3605  bill */\n      0x01\n        /* \"contracts/boe.sol\":3601:3614  bill.promisor */\n      0x02\n      add\n      0x00\n      swap1\n      sload\n      swap1\n      0x0100\n      exp\n      swap1\n      div\n      0xffffffffffffffffffffffffffffffffffffffff\n      and\n        /* \"contracts/boe.sol\":3587:3614  msg.sender == bill.promisor */\n      0xffffffffffffffffffffffffffffffffffffffff\n      and\n        /* \"contracts/boe.sol\":3587:3597  msg.sender */\n      caller\n        /* \"contracts/boe.sol\":3587:3614  msg.sender == bill.promisor */\n      0xffffffffffffffffffffffffffffffffffffffff\n      and\n      eq\n        /* \"contracts/boe.sol\":3579:3658  require(msg.sender == bill.promisor, \"only the promisor can send this message\") */\n      tag_79\n      jumpi\n      mload(0x40)\n      0x08c379a000000000000000000000000000000000000000000000000000000000\n      dup2\n      mstore\n      0x04\n      add\n      tag_80\n      swap1\n      tag_81\n      jump\t// in\n    tag_80:\n      mload(0x40)\n      dup1\n      swap2\n      sub\n      swap1\n      revert\n    tag_79:\n        /* \"contracts/boe.sol\":2786:2790  bill */\n      0x01\n        /* \"contracts/boe.sol\":2786:2801  bill.billAmount */\n      0x04\n      add\n      sload\n        /* \"contracts/boe.sol\":2773:2782  msg.value */\n      callvalue\n        /* \"contracts/boe.sol\":2773:2801  msg.value == bill.billAmount */\n      eq\n        /* \"contracts/boe.sol\":2765:2840  require(msg.value == bill.billAmount, \"You must pay the amount stipulated\") */\n      tag_83\n      jumpi\n      mload(0x40)\n      0x08c379a000000000000000000000000000000000000000000000000000000000\n      dup2\n      mstore\n      0x04\n      add\n      tag_84\n      swap1\n      tag_85\n      jump\t// in\n    tag_84:\n      mload(0x40)\n      dup1\n      swap2\n      sub\n      swap1\n      revert\n    tag_83:\n        /* \"contracts/boe.sol\":2861:2865  true */\n      0x01\n        /* \"contracts/boe.sol\":2850:2858  billPaid */\n      0x00\n      dup1\n        /* \"contracts/boe.sol\":2850:2865  billPaid = true */\n      0x0100\n      exp\n      dup2\n      sload\n      dup2\n      0xff\n      mul\n      not\n      and\n      swap1\n      dup4\n      iszero\n      iszero\n      mul\n      or\n      swap1\n      sstore\n      pop\n        /* \"contracts/boe.sol\":2695:2872  function payBill () public payable needConsent promisorOnly {... */\n      jump\t// out\n        /* \"contracts/boe.sol\":1356:1915  function setDetails (string memory _promisorName, address _promisor, uint _billAmount, string memory _billDescription, string memory _dateOfExpiry, string memory _naturalLanguage) public promiseeOnly {... */\n    tag_27:\n        /* \"contracts/boe.sol\":3737:3741  bill */\n      0x01\n        /* \"contracts/boe.sol\":3737:3750  bill.promisee */\n      0x00\n      add\n      0x00\n      swap1\n      sload\n      swap1\n      0x0100\n      exp\n      swap1\n      div\n      0xffffffffffffffffffffffffffffffffffffffff\n      and\n        /* \"contracts/boe.sol\":3723:3750  msg.sender == bill.promisee */\n      0xffffffffffffffffffffffffffffffffffffffff\n      and\n        /* \"contracts/boe.sol\":3723:3733  msg.sender */\n      caller\n        /* \"contracts/boe.sol\":3723:3750  msg.sender == bill.promisee */\n      0xffffffffffffffffffffffffffffffffffffffff\n      and\n      eq\n        /* \"contracts/boe.sol\":3715:3794  require(msg.sender == bill.promisee, \"only the promisee can send this message\") */\n      tag_87\n      jumpi\n      mload(0x40)\n      0x08c379a000000000000000000000000000000000000000000000000000000000\n      dup2\n      mstore\n      0x04\n      add\n      tag_88\n      swap1\n      tag_37\n      jump\t// in\n    tag_88:\n      mload(0x40)\n      dup1\n      swap2\n      sub\n      swap1\n      revert\n    tag_87:\n        /* \"contracts/boe.sol\":1585:1589  bill */\n      0x01\n        /* \"contracts/boe.sol\":1585:1598  bill.promisee */\n      0x00\n      add\n      0x00\n      swap1\n      sload\n      swap1\n      0x0100\n      exp\n      swap1\n      div\n      0xffffffffffffffffffffffffffffffffffffffff\n      and\n        /* \"contracts/boe.sol\":1574:1598  _promisor!=bill.promisee */\n      0xffffffffffffffffffffffffffffffffffffffff\n      and\n        /* \"contracts/boe.sol\":1574:1583  _promisor */\n      dup6\n        /* \"contracts/boe.sol\":1574:1598  _promisor!=bill.promisee */\n      0xffffffffffffffffffffffffffffffffffffffff\n      and\n      eq\n      iszero\n        /* \"contracts/boe.sol\":1566:1650  require(_promisor!=bill.promisee, \"Promisor and Promisee must be different parties\") */\n      tag_90\n      jumpi\n      mload(0x40)\n      0x08c379a000000000000000000000000000000000000000000000000000000000\n      dup2\n      mstore\n      0x04\n      add\n      tag_91\n      swap1\n      tag_92\n      jump\t// in\n    tag_91:\n      mload(0x40)\n      dup1\n      swap2\n      sub\n      swap1\n      revert\n    tag_90:\n        /* \"contracts/boe.sol\":1676:1685  _promisor */\n      dup5\n        /* \"contracts/boe.sol\":1660:1664  bill */\n      0x01\n        /* \"contracts/boe.sol\":1660:1673  bill.promisor */\n      0x02\n      add\n      0x00\n        /* \"contracts/boe.sol\":1660:1685  bill.promisor = _promisor */\n      0x0100\n      exp\n      dup2\n      sload\n      dup2\n      0xffffffffffffffffffffffffffffffffffffffff\n      mul\n      not\n      and\n      swap1\n      dup4\n      0xffffffffffffffffffffffffffffffffffffffff\n      and\n      mul\n      or\n      swap1\n      sstore\n      pop\n        /* \"contracts/boe.sol\":1715:1728  _promisorName */\n      dup6\n        /* \"contracts/boe.sol\":1695:1699  bill */\n      0x01\n        /* \"contracts/boe.sol\":1695:1712  bill.promisorName */\n      0x03\n      add\n        /* \"contracts/boe.sol\":1695:1728  bill.promisorName = _promisorName */\n      swap1\n      dup1\n      mload\n      swap1\n      0x20\n      add\n      swap1\n      tag_93\n      swap3\n      swap2\n      swap1\n      tag_94\n      jump\t// in\n    tag_93:\n      pop\n        /* \"contracts/boe.sol\":1756:1767  _billAmount */\n      dup4\n        /* \"contracts/boe.sol\":1738:1742  bill */\n      0x01\n        /* \"contracts/boe.sol\":1738:1753  bill.billAmount */\n      0x04\n      add\n        /* \"contracts/boe.sol\":1738:1767  bill.billAmount = _billAmount */\n      dup2\n      swap1\n      sstore\n      pop\n        /* \"contracts/boe.sol\":1800:1816  _billDescription */\n      dup3\n        /* \"contracts/boe.sol\":1777:1781  bill */\n      0x01\n        /* \"contracts/boe.sol\":1777:1797  bill.billDescription */\n      0x05\n      add\n        /* \"contracts/boe.sol\":1777:1816  bill.billDescription = _billDescription */\n      swap1\n      dup1\n      mload\n      swap1\n      0x20\n      add\n      swap1\n      tag_95\n      swap3\n      swap2\n      swap1\n      tag_94\n      jump\t// in\n    tag_95:\n      pop\n        /* \"contracts/boe.sol\":1846:1859  _dateOfExpiry */\n      dup2\n        /* \"contracts/boe.sol\":1826:1830  bill */\n      0x01\n        /* \"contracts/boe.sol\":1826:1843  bill.dateOfExpiry */\n      0x07\n      add\n        /* \"contracts/boe.sol\":1826:1859  bill.dateOfExpiry = _dateOfExpiry */\n      swap1\n      dup1\n      mload\n      swap1\n      0x20\n      add\n      swap1\n      tag_96\n      swap3\n      swap2\n      swap1\n      tag_94\n      jump\t// in\n    tag_96:\n      pop\n        /* \"contracts/boe.sol\":1892:1908  _naturalLanguage */\n      dup1\n        /* \"contracts/boe.sol\":1869:1873  bill */\n      0x01\n        /* \"contracts/boe.sol\":1869:1889  bill.naturalLanguage */\n      0x0c\n      add\n        /* \"contracts/boe.sol\":1869:1908  bill.naturalLanguage = _naturalLanguage */\n      swap1\n      dup1\n      mload\n      swap1\n      0x20\n      add\n      swap1\n      tag_97\n      swap3\n      swap2\n      swap1\n      tag_94\n      jump\t// in\n    tag_97:\n      pop\n        /* \"contracts/boe.sol\":1356:1915  function setDetails (string memory _promisorName, address _promisor, uint _billAmount, string memory _billDescription, string memory _dateOfExpiry, string memory _naturalLanguage) public promiseeOnly {... */\n      pop\n      pop\n      pop\n      pop\n      pop\n      pop\n      jump\t// out\n        /* \"contracts/boe.sol\":2304:2536  function setPromisorConsent() public promisorOnly {... */\n    tag_30:\n        /* \"contracts/boe.sol\":3601:3605  bill */\n      0x01\n        /* \"contracts/boe.sol\":3601:3614  bill.promisor */\n      0x02\n      add\n      0x00\n      swap1\n      sload\n      swap1\n      0x0100\n      exp\n      swap1\n      div\n      0xffffffffffffffffffffffffffffffffffffffff\n      and\n        /* \"contracts/boe.sol\":3587:3614  msg.sender == bill.promisor */\n      0xffffffffffffffffffffffffffffffffffffffff\n      and\n        /* \"contracts/boe.sol\":3587:3597  msg.sender */\n      caller\n        /* \"contracts/boe.sol\":3587:3614  msg.sender == bill.promisor */\n      0xffffffffffffffffffffffffffffffffffffffff\n      and\n      eq\n        /* \"contracts/boe.sol\":3579:3658  require(msg.sender == bill.promisor, \"only the promisor can send this message\") */\n      tag_99\n      jumpi\n      mload(0x40)\n      0x08c379a000000000000000000000000000000000000000000000000000000000\n      dup2\n      mstore\n      0x04\n      add\n      tag_100\n      swap1\n      tag_81\n      jump\t// in\n    tag_100:\n      mload(0x40)\n      dup1\n      swap2\n      sub\n      swap1\n      revert\n    tag_99:\n        /* \"contracts/boe.sol\":2387:2391  true */\n      0x01\n        /* \"contracts/boe.sol\":2364:2368  bill */\n      dup1\n        /* \"contracts/boe.sol\":2364:2384  bill.promisorConsent */\n      0x0a\n      add\n      0x00\n        /* \"contracts/boe.sol\":2364:2391  bill.promisorConsent = true */\n      0x0100\n      exp\n      dup2\n      sload\n      dup2\n      0xff\n      mul\n      not\n      and\n      swap1\n      dup4\n      iszero\n      iszero\n      mul\n      or\n      swap1\n      sstore\n      pop\n        /* \"contracts/boe.sol\":2430:2445  block.timestamp */\n      timestamp\n        /* \"contracts/boe.sol\":2401:2405  bill */\n      0x01\n        /* \"contracts/boe.sol\":2401:2427  bill.dateOfPromisorConsent */\n      0x0b\n      add\n        /* \"contracts/boe.sol\":2401:2445  bill.dateOfPromisorConsent = block.timestamp */\n      dup2\n      swap1\n      sstore\n      pop\n        /* \"contracts/boe.sol\":2483:2487  true */\n      0x01\n        /* \"contracts/boe.sol\":2459:2487  bill.promiseeConsent == true */\n      iszero\n      iszero\n        /* \"contracts/boe.sol\":2459:2463  bill */\n      0x01\n        /* \"contracts/boe.sol\":2459:2479  bill.promiseeConsent */\n      0x08\n      add\n      0x00\n      swap1\n      sload\n      swap1\n      0x0100\n      exp\n      swap1\n      div\n      0xff\n      and\n        /* \"contracts/boe.sol\":2459:2487  bill.promiseeConsent == true */\n      iszero\n      iszero\n      eq\n        /* \"contracts/boe.sol\":2455:2530  if (bill.promiseeConsent == true) {... */\n      iszero\n      tag_102\n      jumpi\n        /* \"contracts/boe.sol\":2503:2519  setDateOfEntry() */\n      tag_103\n        /* \"contracts/boe.sol\":2503:2517  setDateOfEntry */\n      tag_74\n        /* \"contracts/boe.sol\":2503:2519  setDateOfEntry() */\n      jump\t// in\n    tag_103:\n        /* \"contracts/boe.sol\":2455:2530  if (bill.promiseeConsent == true) {... */\n    tag_102:\n        /* \"contracts/boe.sol\":2304:2536  function setPromisorConsent() public promisorOnly {... */\n      jump\t// out\n        /* \"contracts/boe.sol\":3027:3193  function acceptPayment () public promiseeOnly billHasBeenPaid {... */\n    tag_33:\n        /* \"contracts/boe.sol\":3737:3741  bill */\n      0x01\n        /* \"contracts/boe.sol\":3737:3750  bill.promisee */\n      0x00\n      add\n      0x00\n      swap1\n      sload\n      swap1\n      0x0100\n      exp\n      swap1\n      div\n      0xffffffffffffffffffffffffffffffffffffffff\n      and\n        /* \"contracts/boe.sol\":3723:3750  msg.sender == bill.promisee */\n      0xffffffffffffffffffffffffffffffffffffffff\n      and\n        /* \"contracts/boe.sol\":3723:3733  msg.sender */\n      caller\n        /* \"contracts/boe.sol\":3723:3750  msg.sender == bill.promisee */\n      0xffffffffffffffffffffffffffffffffffffffff\n      and\n      eq\n        /* \"contracts/boe.sol\":3715:3794  require(msg.sender == bill.promisee, \"only the promisee can send this message\") */\n      tag_105\n      jumpi\n      mload(0x40)\n      0x08c379a000000000000000000000000000000000000000000000000000000000\n      dup2\n      mstore\n      0x04\n      add\n      tag_106\n      swap1\n      tag_37\n      jump\t// in\n    tag_106:\n      mload(0x40)\n      dup1\n      swap2\n      sub\n      swap1\n      revert\n    tag_105:\n        /* \"contracts/boe.sol\":4178:4182  true */\n      0x01\n        /* \"contracts/boe.sol\":4166:4182  billPaid == true */\n      iszero\n      iszero\n        /* \"contracts/boe.sol\":4166:4174  billPaid */\n      0x00\n      dup1\n      sload\n      swap1\n      0x0100\n      exp\n      swap1\n      div\n      0xff\n      and\n        /* \"contracts/boe.sol\":4166:4182  billPaid == true */\n      iszero\n      iszero\n      eq\n        /* \"contracts/boe.sol\":4158:4232  require(billPaid == true, \"Payment must be made before withdrawing funds\") */\n      tag_108\n      jumpi\n      mload(0x40)\n      0x08c379a000000000000000000000000000000000000000000000000000000000\n      dup2\n      mstore\n      0x04\n      add\n      tag_109\n      swap1\n      tag_110\n      jump\t// in\n    tag_109:\n      mload(0x40)\n      dup1\n      swap2\n      sub\n      swap1\n      revert\n    tag_108:\n        /* \"contracts/boe.sol\":3117:3121  true */\n      0x01\n        /* \"contracts/boe.sol\":3099:3114  paymentAccepted */\n      0x00\n      0x01\n        /* \"contracts/boe.sol\":3099:3121  paymentAccepted = true */\n      0x0100\n      exp\n      dup2\n      sload\n      dup2\n      0xff\n      mul\n      not\n      and\n      swap1\n      dup4\n      iszero\n      iszero\n      mul\n      or\n      swap1\n      sstore\n      pop\n        /* \"contracts/boe.sol\":3131:3135  bill */\n      0x01\n        /* \"contracts/boe.sol\":3131:3144  bill.promisee */\n      0x00\n      add\n      0x00\n      swap1\n      sload\n      swap1\n      0x0100\n      exp\n      swap1\n      div\n      0xffffffffffffffffffffffffffffffffffffffff\n      and\n        /* \"contracts/boe.sol\":3131:3153  bill.promisee.transfer */\n      0xffffffffffffffffffffffffffffffffffffffff\n      and\n        /* \"contracts/boe.sol\":3131:3170  bill.promisee.transfer(bill.billAmount) */\n      0x08fc\n        /* \"contracts/boe.sol\":3154:3158  bill */\n      0x01\n        /* \"contracts/boe.sol\":3154:3169  bill.billAmount */\n      0x04\n      add\n      sload\n        /* \"contracts/boe.sol\":3131:3170  bill.promisee.transfer(bill.billAmount) */\n      swap1\n      dup2\n      iszero\n      mul\n      swap1\n      mload(0x40)\n      0x00\n      mload(0x40)\n      dup1\n      dup4\n      sub\n      dup2\n      dup6\n      dup9\n      dup9\n      call\n      swap4\n      pop\n      pop\n      pop\n      pop\n      iszero\n      dup1\n      iszero\n      tag_113\n      jumpi\n      returndatasize\n      0x00\n      dup1\n      returndatacopy\n      revert(0x00, returndatasize)\n    tag_113:\n      pop\n        /* \"contracts/boe.sol\":3180:3186  kill() */\n      tag_114\n        /* \"contracts/boe.sol\":3180:3184  kill */\n      tag_12\n        /* \"contracts/boe.sol\":3180:3186  kill() */\n      jump\t// in\n    tag_114:\n        /* \"contracts/boe.sol\":3027:3193  function acceptPayment () public promiseeOnly billHasBeenPaid {... */\n      jump\t// out\n        /* \"contracts/boe.sol\":2568:2654  function setDateOfEntry() internal {... */\n    tag_74:\n        /* \"contracts/boe.sol\":2632:2647  block.timestamp */\n      timestamp\n        /* \"contracts/boe.sol\":2613:2617  bill */\n      0x01\n        /* \"contracts/boe.sol\":2613:2629  bill.dateOfEntry */\n      0x06\n      add\n        /* \"contracts/boe.sol\":2613:2647  bill.dateOfEntry = block.timestamp */\n      dup2\n      swap1\n      sstore\n      pop\n        /* \"contracts/boe.sol\":2568:2654  function setDateOfEntry() internal {... */\n      jump\t// out\n    tag_40:\n      mload(0x40)\n      dup1\n      0x01a0\n      add\n      0x40\n      mstore\n      dup1\n      and(0xffffffffffffffffffffffffffffffffffffffff, 0x00)\n      dup2\n      mstore\n      0x20\n      add\n      0x60\n      dup2\n      mstore\n      0x20\n      add\n      and(0xffffffffffffffffffffffffffffffffffffffff, 0x00)\n      dup2\n      mstore\n      0x20\n      add\n      0x60\n      dup2\n      mstore\n      0x20\n      add\n      0x00\n      dup2\n      mstore\n      0x20\n      add\n      0x60\n      dup2\n      mstore\n      0x20\n      add\n      0x00\n      dup2\n      mstore\n      0x20\n      add\n      0x60\n      dup2\n      mstore\n      0x20\n      add\n      iszero(iszero(0x00))\n      dup2\n      mstore\n      0x20\n      add\n      0x00\n      dup2\n      mstore\n      0x20\n      add\n      iszero(iszero(0x00))\n      dup2\n      mstore\n      0x20\n      add\n      0x00\n      dup2\n      mstore\n      0x20\n      add\n      0x60\n      dup2\n      mstore\n      pop\n      swap1\n      jump\t// out\n    tag_94:\n      dup3\n      dup1\n      sload\n      tag_116\n      swap1\n      tag_43\n      jump\t// in\n    tag_116:\n      swap1\n      0x00\n      mstore\n      keccak256(0x00, 0x20)\n      swap1\n      0x1f\n      add\n      0x20\n      swap1\n      div\n      dup2\n      add\n      swap3\n      dup3\n      tag_118\n      jumpi\n      0x00\n      dup6\n      sstore\n      jump(tag_117)\n    tag_118:\n      dup3\n      0x1f\n      lt\n      tag_119\n      jumpi\n      dup1\n      mload\n      not(0xff)\n      and\n      dup4\n      dup1\n      add\n      or\n      dup6\n      sstore\n      jump(tag_117)\n    tag_119:\n      dup3\n      dup1\n      add\n      0x01\n      add\n      dup6\n      sstore\n      dup3\n      iszero\n      tag_117\n      jumpi\n      swap2\n      dup3\n      add\n    tag_120:\n      dup3\n      dup2\n      gt\n      iszero\n      tag_121\n      jumpi\n      dup3\n      mload\n      dup3\n      sstore\n      swap2\n      0x20\n      add\n      swap2\n      swap1\n      0x01\n      add\n      swap1\n      jump(tag_120)\n    tag_121:\n    tag_117:\n      pop\n      swap1\n      pop\n      tag_122\n      swap2\n      swap1\n      tag_123\n      jump\t// in\n    tag_122:\n      pop\n      swap1\n      jump\t// out\n    tag_123:\n    tag_124:\n      dup1\n      dup3\n      gt\n      iszero\n      tag_125\n      jumpi\n      0x00\n      dup2\n      0x00\n      swap1\n      sstore\n      pop\n      0x01\n      add\n      jump(tag_124)\n    tag_125:\n      pop\n      swap1\n      jump\t// out\n        /* \"#utility.yul\":7:419   */\n    tag_127:\n        /* \"#utility.yul\":85:90   */\n      0x00\n        /* \"#utility.yul\":110:176   */\n      tag_129\n        /* \"#utility.yul\":126:175   */\n      tag_130\n        /* \"#utility.yul\":168:174   */\n      dup5\n        /* \"#utility.yul\":126:175   */\n      tag_131\n      jump\t// in\n    tag_130:\n        /* \"#utility.yul\":110:176   */\n      tag_132\n      jump\t// in\n    tag_129:\n        /* \"#utility.yul\":101:176   */\n      swap1\n      pop\n        /* \"#utility.yul\":199:205   */\n      dup3\n        /* \"#utility.yul\":192:197   */\n      dup2\n        /* \"#utility.yul\":185:206   */\n      mstore\n        /* \"#utility.yul\":237:241   */\n      0x20\n        /* \"#utility.yul\":230:235   */\n      dup2\n        /* \"#utility.yul\":226:242   */\n      add\n        /* \"#utility.yul\":275:278   */\n      dup5\n        /* \"#utility.yul\":266:272   */\n      dup5\n        /* \"#utility.yul\":261:264   */\n      dup5\n        /* \"#utility.yul\":257:273   */\n      add\n        /* \"#utility.yul\":254:279   */\n      gt\n        /* \"#utility.yul\":251:363   */\n      iszero\n      tag_133\n      jumpi\n        /* \"#utility.yul\":282:361   */\n      tag_134\n      tag_135\n      jump\t// in\n    tag_134:\n        /* \"#utility.yul\":251:363   */\n    tag_133:\n        /* \"#utility.yul\":372:413   */\n      tag_136\n        /* \"#utility.yul\":406:412   */\n      dup5\n        /* \"#utility.yul\":401:404   */\n      dup3\n        /* \"#utility.yul\":396:399   */\n      dup6\n        /* \"#utility.yul\":372:413   */\n      tag_137\n      jump\t// in\n    tag_136:\n        /* \"#utility.yul\":91:419   */\n      pop\n        /* \"#utility.yul\":7:419   */\n      swap4\n      swap3\n      pop\n      pop\n      pop\n      jump\t// out\n        /* \"#utility.yul\":425:564   */\n    tag_138:\n        /* \"#utility.yul\":471:476   */\n      0x00\n        /* \"#utility.yul\":509:515   */\n      dup2\n        /* \"#utility.yul\":496:516   */\n      calldataload\n        /* \"#utility.yul\":487:516   */\n      swap1\n      pop\n        /* \"#utility.yul\":525:558   */\n      tag_140\n        /* \"#utility.yul\":552:557   */\n      dup2\n        /* \"#utility.yul\":525:558   */\n      tag_141\n      jump\t// in\n    tag_140:\n        /* \"#utility.yul\":425:564   */\n      swap3\n      swap2\n      pop\n      pop\n      jump\t// out\n        /* \"#utility.yul\":584:924   */\n    tag_142:\n        /* \"#utility.yul\":640:645   */\n      0x00\n        /* \"#utility.yul\":689:692   */\n      dup3\n        /* \"#utility.yul\":682:686   */\n      0x1f\n        /* \"#utility.yul\":674:680   */\n      dup4\n        /* \"#utility.yul\":670:687   */\n      add\n        /* \"#utility.yul\":666:693   */\n      slt\n        /* \"#utility.yul\":656:778   */\n      tag_144\n      jumpi\n        /* \"#utility.yul\":697:776   */\n      tag_145\n      tag_146\n      jump\t// in\n    tag_145:\n        /* \"#utility.yul\":656:778   */\n    tag_144:\n        /* \"#utility.yul\":814:820   */\n      dup2\n        /* \"#utility.yul\":801:821   */\n      calldataload\n        /* \"#utility.yul\":839:918   */\n      tag_147\n        /* \"#utility.yul\":914:917   */\n      dup5\n        /* \"#utility.yul\":906:912   */\n      dup3\n        /* \"#utility.yul\":899:903   */\n      0x20\n        /* \"#utility.yul\":891:897   */\n      dup7\n        /* \"#utility.yul\":887:904   */\n      add\n        /* \"#utility.yul\":839:918   */\n      tag_127\n      jump\t// in\n    tag_147:\n        /* \"#utility.yul\":830:918   */\n      swap2\n      pop\n        /* \"#utility.yul\":646:924   */\n      pop\n        /* \"#utility.yul\":584:924   */\n      swap3\n      swap2\n      pop\n      pop\n      jump\t// out\n        /* \"#utility.yul\":930:1069   */\n    tag_148:\n        /* \"#utility.yul\":976:981   */\n      0x00\n        /* \"#utility.yul\":1014:1020   */\n      dup2\n        /* \"#utility.yul\":1001:1021   */\n      calldataload\n        /* \"#utility.yul\":992:1021   */\n      swap1\n      pop\n        /* \"#utility.yul\":1030:1063   */\n      tag_150\n        /* \"#utility.yul\":1057:1062   */\n      dup2\n        /* \"#utility.yul\":1030:1063   */\n      tag_151\n      jump\t// in\n    tag_150:\n        /* \"#utility.yul\":930:1069   */\n      swap3\n      swap2\n      pop\n      pop\n      jump\t// out\n        /* \"#utility.yul\":1075:2852   */\n    tag_26:\n        /* \"#utility.yul\":1219:1225   */\n      0x00\n        /* \"#utility.yul\":1227:1233   */\n      dup1\n        /* \"#utility.yul\":1235:1241   */\n      0x00\n        /* \"#utility.yul\":1243:1249   */\n      dup1\n        /* \"#utility.yul\":1251:1257   */\n      0x00\n        /* \"#utility.yul\":1259:1265   */\n      dup1\n        /* \"#utility.yul\":1308:1311   */\n      0xc0\n        /* \"#utility.yul\":1296:1305   */\n      dup8\n        /* \"#utility.yul\":1287:1294   */\n      dup10\n        /* \"#utility.yul\":1283:1306   */\n      sub\n        /* \"#utility.yul\":1279:1312   */\n      slt\n        /* \"#utility.yul\":1276:1396   */\n      iszero\n      tag_153\n      jumpi\n        /* \"#utility.yul\":1315:1394   */\n      tag_154\n      tag_155\n      jump\t// in\n    tag_154:\n        /* \"#utility.yul\":1276:1396   */\n    tag_153:\n        /* \"#utility.yul\":1463:1464   */\n      0x00\n        /* \"#utility.yul\":1452:1461   */\n      dup8\n        /* \"#utility.yul\":1448:1465   */\n      add\n        /* \"#utility.yul\":1435:1466   */\n      calldataload\n        /* \"#utility.yul\":1493:1511   */\n      0xffffffffffffffff\n        /* \"#utility.yul\":1485:1491   */\n      dup2\n        /* \"#utility.yul\":1482:1512   */\n      gt\n        /* \"#utility.yul\":1479:1596   */\n      iszero\n      tag_156\n      jumpi\n        /* \"#utility.yul\":1515:1594   */\n      tag_157\n      tag_158\n      jump\t// in\n    tag_157:\n        /* \"#utility.yul\":1479:1596   */\n    tag_156:\n        /* \"#utility.yul\":1620:1683   */\n      tag_159\n        /* \"#utility.yul\":1675:1682   */\n      dup10\n        /* \"#utility.yul\":1666:1672   */\n      dup3\n        /* \"#utility.yul\":1655:1664   */\n      dup11\n        /* \"#utility.yul\":1651:1673   */\n      add\n        /* \"#utility.yul\":1620:1683   */\n      tag_142\n      jump\t// in\n    tag_159:\n        /* \"#utility.yul\":1610:1683   */\n      swap7\n      pop\n        /* \"#utility.yul\":1406:1693   */\n      pop\n        /* \"#utility.yul\":1732:1734   */\n      0x20\n        /* \"#utility.yul\":1758:1811   */\n      tag_160\n        /* \"#utility.yul\":1803:1810   */\n      dup10\n        /* \"#utility.yul\":1794:1800   */\n      dup3\n        /* \"#utility.yul\":1783:1792   */\n      dup11\n        /* \"#utility.yul\":1779:1801   */\n      add\n        /* \"#utility.yul\":1758:1811   */\n      tag_138\n      jump\t// in\n    tag_160:\n        /* \"#utility.yul\":1748:1811   */\n      swap6\n      pop\n        /* \"#utility.yul\":1703:1821   */\n      pop\n        /* \"#utility.yul\":1860:1862   */\n      0x40\n        /* \"#utility.yul\":1886:1939   */\n      tag_161\n        /* \"#utility.yul\":1931:1938   */\n      dup10\n        /* \"#utility.yul\":1922:1928   */\n      dup3\n        /* \"#utility.yul\":1911:1920   */\n      dup11\n        /* \"#utility.yul\":1907:1929   */\n      add\n        /* \"#utility.yul\":1886:1939   */\n      tag_148\n      jump\t// in\n    tag_161:\n        /* \"#utility.yul\":1876:1939   */\n      swap5\n      pop\n        /* \"#utility.yul\":1831:1949   */\n      pop\n        /* \"#utility.yul\":2016:2018   */\n      0x60\n        /* \"#utility.yul\":2005:2014   */\n      dup8\n        /* \"#utility.yul\":2001:2019   */\n      add\n        /* \"#utility.yul\":1988:2020   */\n      calldataload\n        /* \"#utility.yul\":2047:2065   */\n      0xffffffffffffffff\n        /* \"#utility.yul\":2039:2045   */\n      dup2\n        /* \"#utility.yul\":2036:2066   */\n      gt\n        /* \"#utility.yul\":2033:2150   */\n      iszero\n      tag_162\n      jumpi\n        /* \"#utility.yul\":2069:2148   */\n      tag_163\n      tag_158\n      jump\t// in\n    tag_163:\n        /* \"#utility.yul\":2033:2150   */\n    tag_162:\n        /* \"#utility.yul\":2174:2237   */\n      tag_164\n        /* \"#utility.yul\":2229:2236   */\n      dup10\n        /* \"#utility.yul\":2220:2226   */\n      dup3\n        /* \"#utility.yul\":2209:2218   */\n      dup11\n        /* \"#utility.yul\":2205:2227   */\n      add\n        /* \"#utility.yul\":2174:2237   */\n      tag_142\n      jump\t// in\n    tag_164:\n        /* \"#utility.yul\":2164:2237   */\n      swap4\n      pop\n        /* \"#utility.yul\":1959:2247   */\n      pop\n        /* \"#utility.yul\":2314:2317   */\n      0x80\n        /* \"#utility.yul\":2303:2312   */\n      dup8\n        /* \"#utility.yul\":2299:2318   */\n      add\n        /* \"#utility.yul\":2286:2319   */\n      calldataload\n        /* \"#utility.yul\":2346:2364   */\n      0xffffffffffffffff\n        /* \"#utility.yul\":2338:2344   */\n      dup2\n        /* \"#utility.yul\":2335:2365   */\n      gt\n        /* \"#utility.yul\":2332:2449   */\n      iszero\n      tag_165\n      jumpi\n        /* \"#utility.yul\":2368:2447   */\n      tag_166\n      tag_158\n      jump\t// in\n    tag_166:\n        /* \"#utility.yul\":2332:2449   */\n    tag_165:\n        /* \"#utility.yul\":2473:2536   */\n      tag_167\n        /* \"#utility.yul\":2528:2535   */\n      dup10\n        /* \"#utility.yul\":2519:2525   */\n      dup3\n        /* \"#utility.yul\":2508:2517   */\n      dup11\n        /* \"#utility.yul\":2504:2526   */\n      add\n        /* \"#utility.yul\":2473:2536   */\n      tag_142\n      jump\t// in\n    tag_167:\n        /* \"#utility.yul\":2463:2536   */\n      swap3\n      pop\n        /* \"#utility.yul\":2257:2546   */\n      pop\n        /* \"#utility.yul\":2613:2616   */\n      0xa0\n        /* \"#utility.yul\":2602:2611   */\n      dup8\n        /* \"#utility.yul\":2598:2617   */\n      add\n        /* \"#utility.yul\":2585:2618   */\n      calldataload\n        /* \"#utility.yul\":2645:2663   */\n      0xffffffffffffffff\n        /* \"#utility.yul\":2637:2643   */\n      dup2\n        /* \"#utility.yul\":2634:2664   */\n      gt\n        /* \"#utility.yul\":2631:2748   */\n      iszero\n      tag_168\n      jumpi\n        /* \"#utility.yul\":2667:2746   */\n      tag_169\n      tag_158\n      jump\t// in\n    tag_169:\n        /* \"#utility.yul\":2631:2748   */\n    tag_168:\n        /* \"#utility.yul\":2772:2835   */\n      tag_170\n        /* \"#utility.yul\":2827:2834   */\n      dup10\n        /* \"#utility.yul\":2818:2824   */\n      dup3\n        /* \"#utility.yul\":2807:2816   */\n      dup11\n        /* \"#utility.yul\":2803:2825   */\n      add\n        /* \"#utility.yul\":2772:2835   */\n      tag_142\n      jump\t// in\n    tag_170:\n        /* \"#utility.yul\":2762:2835   */\n      swap2\n      pop\n        /* \"#utility.yul\":2556:2845   */\n      pop\n        /* \"#utility.yul\":1075:2852   */\n      swap3\n      swap6\n      pop\n      swap3\n      swap6\n      pop\n      swap3\n      swap6\n      jump\t// out\n        /* \"#utility.yul\":2858:2990   */\n    tag_171:\n        /* \"#utility.yul\":2951:2983   */\n      tag_173\n        /* \"#utility.yul\":2977:2982   */\n      dup2\n        /* \"#utility.yul\":2951:2983   */\n      tag_174\n      jump\t// in\n    tag_173:\n        /* \"#utility.yul\":2946:2949   */\n      dup3\n        /* \"#utility.yul\":2939:2984   */\n      mstore\n        /* \"#utility.yul\":2858:2990   */\n      pop\n      pop\n      jump\t// out\n        /* \"#utility.yul\":2996:3104   */\n    tag_175:\n        /* \"#utility.yul\":3073:3097   */\n      tag_177\n        /* \"#utility.yul\":3091:3096   */\n      dup2\n        /* \"#utility.yul\":3073:3097   */\n      tag_178\n      jump\t// in\n    tag_177:\n        /* \"#utility.yul\":3068:3071   */\n      dup3\n        /* \"#utility.yul\":3061:3098   */\n      mstore\n        /* \"#utility.yul\":2996:3104   */\n      pop\n      pop\n      jump\t// out\n        /* \"#utility.yul\":3110:3209   */\n    tag_179:\n        /* \"#utility.yul\":3181:3202   */\n      tag_181\n        /* \"#utility.yul\":3196:3201   */\n      dup2\n        /* \"#utility.yul\":3181:3202   */\n      tag_182\n      jump\t// in\n    tag_181:\n        /* \"#utility.yul\":3176:3179   */\n      dup3\n        /* \"#utility.yul\":3169:3203   */\n      mstore\n        /* \"#utility.yul\":3110:3209   */\n      pop\n      pop\n      jump\t// out\n        /* \"#utility.yul\":3215:3559   */\n    tag_183:\n        /* \"#utility.yul\":3293:3296   */\n      0x00\n        /* \"#utility.yul\":3321:3360   */\n      tag_185\n        /* \"#utility.yul\":3354:3359   */\n      dup3\n        /* \"#utility.yul\":3321:3360   */\n      tag_186\n      jump\t// in\n    tag_185:\n        /* \"#utility.yul\":3376:3437   */\n      tag_187\n        /* \"#utility.yul\":3430:3436   */\n      dup2\n        /* \"#utility.yul\":3425:3428   */\n      dup6\n        /* \"#utility.yul\":3376:3437   */\n      tag_188\n      jump\t// in\n    tag_187:\n        /* \"#utility.yul\":3369:3437   */\n      swap4\n      pop\n        /* \"#utility.yul\":3446:3498   */\n      tag_189\n        /* \"#utility.yul\":3491:3497   */\n      dup2\n        /* \"#utility.yul\":3486:3489   */\n      dup6\n        /* \"#utility.yul\":3479:3483   */\n      0x20\n        /* \"#utility.yul\":3472:3477   */\n      dup7\n        /* \"#utility.yul\":3468:3484   */\n      add\n        /* \"#utility.yul\":3446:3498   */\n      tag_190\n      jump\t// in\n    tag_189:\n        /* \"#utility.yul\":3523:3552   */\n      tag_191\n        /* \"#utility.yul\":3545:3551   */\n      dup2\n        /* \"#utility.yul\":3523:3552   */\n      tag_192\n      jump\t// in\n    tag_191:\n        /* \"#utility.yul\":3518:3521   */\n      dup5\n        /* \"#utility.yul\":3514:3553   */\n      add\n        /* \"#utility.yul\":3507:3553   */\n      swap2\n      pop\n        /* \"#utility.yul\":3297:3559   */\n      pop\n        /* \"#utility.yul\":3215:3559   */\n      swap3\n      swap2\n      pop\n      pop\n      jump\t// out\n        /* \"#utility.yul\":3565:3931   */\n    tag_193:\n        /* \"#utility.yul\":3707:3710   */\n      0x00\n        /* \"#utility.yul\":3728:3795   */\n      tag_195\n        /* \"#utility.yul\":3792:3794   */\n      0x2d\n        /* \"#utility.yul\":3787:3790   */\n      dup4\n        /* \"#utility.yul\":3728:3795   */\n      tag_196\n      jump\t// in\n    tag_195:\n        /* \"#utility.yul\":3721:3795   */\n      swap2\n      pop\n        /* \"#utility.yul\":3804:3897   */\n      tag_197\n        /* \"#utility.yul\":3893:3896   */\n      dup3\n        /* \"#utility.yul\":3804:3897   */\n      tag_198\n      jump\t// in\n    tag_197:\n        /* \"#utility.yul\":3922:3924   */\n      0x40\n        /* \"#utility.yul\":3917:3920   */\n      dup3\n        /* \"#utility.yul\":3913:3925   */\n      add\n        /* \"#utility.yul\":3906:3925   */\n      swap1\n      pop\n        /* \"#utility.yul\":3565:3931   */\n      swap2\n      swap1\n      pop\n      jump\t// out\n        /* \"#utility.yul\":3937:4303   */\n    tag_199:\n        /* \"#utility.yul\":4079:4082   */\n      0x00\n        /* \"#utility.yul\":4100:4167   */\n      tag_201\n        /* \"#utility.yul\":4164:4166   */\n      0x2f\n        /* \"#utility.yul\":4159:4162   */\n      dup4\n        /* \"#utility.yul\":4100:4167   */\n      tag_196\n      jump\t// in\n    tag_201:\n        /* \"#utility.yul\":4093:4167   */\n      swap2\n      pop\n        /* \"#utility.yul\":4176:4269   */\n      tag_202\n        /* \"#utility.yul\":4265:4268   */\n      dup3\n        /* \"#utility.yul\":4176:4269   */\n      tag_203\n      jump\t// in\n    tag_202:\n        /* \"#utility.yul\":4294:4296   */\n      0x40\n        /* \"#utility.yul\":4289:4292   */\n      dup3\n        /* \"#utility.yul\":4285:4297   */\n      add\n        /* \"#utility.yul\":4278:4297   */\n      swap1\n      pop\n        /* \"#utility.yul\":3937:4303   */\n      swap2\n      swap1\n      pop\n      jump\t// out\n        /* \"#utility.yul\":4309:4675   */\n    tag_204:\n        /* \"#utility.yul\":4451:4454   */\n      0x00\n        /* \"#utility.yul\":4472:4539   */\n      tag_206\n        /* \"#utility.yul\":4536:4538   */\n      0x27\n        /* \"#utility.yul\":4531:4534   */\n      dup4\n        /* \"#utility.yul\":4472:4539   */\n      tag_196\n      jump\t// in\n    tag_206:\n        /* \"#utility.yul\":4465:4539   */\n      swap2\n      pop\n        /* \"#utility.yul\":4548:4641   */\n      tag_207\n        /* \"#utility.yul\":4637:4640   */\n      dup3\n        /* \"#utility.yul\":4548:4641   */\n      tag_208\n      jump\t// in\n    tag_207:\n        /* \"#utility.yul\":4666:4668   */\n      0x40\n        /* \"#utility.yul\":4661:4664   */\n      dup3\n        /* \"#utility.yul\":4657:4669   */\n      add\n        /* \"#utility.yul\":4650:4669   */\n      swap1\n      pop\n        /* \"#utility.yul\":4309:4675   */\n      swap2\n      swap1\n      pop\n      jump\t// out\n        /* \"#utility.yul\":4681:5047   */\n    tag_209:\n        /* \"#utility.yul\":4823:4826   */\n      0x00\n        /* \"#utility.yul\":4844:4911   */\n      tag_211\n        /* \"#utility.yul\":4908:4910   */\n      0x22\n        /* \"#utility.yul\":4903:4906   */\n      dup4\n        /* \"#utility.yul\":4844:4911   */\n      tag_196\n      jump\t// in\n    tag_211:\n        /* \"#utility.yul\":4837:4911   */\n      swap2\n      pop\n        /* \"#utility.yul\":4920:5013   */\n      tag_212\n        /* \"#utility.yul\":5009:5012   */\n      dup3\n        /* \"#utility.yul\":4920:5013   */\n      tag_213\n      jump\t// in\n    tag_212:\n        /* \"#utility.yul\":5038:5040   */\n      0x40\n        /* \"#utility.yul\":5033:5036   */\n      dup3\n        /* \"#utility.yul\":5029:5041   */\n      add\n        /* \"#utility.yul\":5022:5041   */\n      swap1\n      pop\n        /* \"#utility.yul\":4681:5047   */\n      swap2\n      swap1\n      pop\n      jump\t// out\n        /* \"#utility.yul\":5053:5419   */\n    tag_214:\n        /* \"#utility.yul\":5195:5198   */\n      0x00\n        /* \"#utility.yul\":5216:5283   */\n      tag_216\n        /* \"#utility.yul\":5280:5282   */\n      0x27\n        /* \"#utility.yul\":5275:5278   */\n      dup4\n        /* \"#utility.yul\":5216:5283   */\n      tag_196\n      jump\t// in\n    tag_216:\n        /* \"#utility.yul\":5209:5283   */\n      swap2\n      pop\n        /* \"#utility.yul\":5292:5385   */\n      tag_217\n        /* \"#utility.yul\":5381:5384   */\n      dup3\n        /* \"#utility.yul\":5292:5385   */\n      tag_218\n      jump\t// in\n    tag_217:\n        /* \"#utility.yul\":5410:5412   */\n      0x40\n        /* \"#utility.yul\":5405:5408   */\n      dup3\n        /* \"#utility.yul\":5401:5413   */\n      add\n        /* \"#utility.yul\":5394:5413   */\n      swap1\n      pop\n        /* \"#utility.yul\":5053:5419   */\n      swap2\n      swap1\n      pop\n      jump\t// out\n        /* \"#utility.yul\":5497:8448   */\n    tag_219:\n        /* \"#utility.yul\":5614:5617   */\n      0x00\n        /* \"#utility.yul\":5650:5656   */\n      0x01a0\n        /* \"#utility.yul\":5645:5648   */\n      dup4\n        /* \"#utility.yul\":5641:5657   */\n      add\n        /* \"#utility.yul\":5743:5747   */\n      0x00\n        /* \"#utility.yul\":5736:5741   */\n      dup4\n        /* \"#utility.yul\":5732:5748   */\n      add\n        /* \"#utility.yul\":5726:5749   */\n      mload\n        /* \"#utility.yul\":5762:5841   */\n      tag_221\n        /* \"#utility.yul\":5835:5839   */\n      0x00\n        /* \"#utility.yul\":5830:5833   */\n      dup7\n        /* \"#utility.yul\":5826:5840   */\n      add\n        /* \"#utility.yul\":5812:5824   */\n      dup3\n        /* \"#utility.yul\":5762:5841   */\n      tag_171\n      jump\t// in\n    tag_221:\n        /* \"#utility.yul\":5667:5851   */\n      pop\n        /* \"#utility.yul\":5941:5945   */\n      0x20\n        /* \"#utility.yul\":5934:5939   */\n      dup4\n        /* \"#utility.yul\":5930:5946   */\n      add\n        /* \"#utility.yul\":5924:5947   */\n      mload\n        /* \"#utility.yul\":5994:5997   */\n      dup5\n        /* \"#utility.yul\":5988:5992   */\n      dup3\n        /* \"#utility.yul\":5984:5998   */\n      sub\n        /* \"#utility.yul\":5977:5981   */\n      0x20\n        /* \"#utility.yul\":5972:5975   */\n      dup7\n        /* \"#utility.yul\":5968:5982   */\n      add\n        /* \"#utility.yul\":5961:5999   */\n      mstore\n        /* \"#utility.yul\":6020:6093   */\n      tag_222\n        /* \"#utility.yul\":6088:6092   */\n      dup3\n        /* \"#utility.yul\":6074:6086   */\n      dup3\n        /* \"#utility.yul\":6020:6093   */\n      tag_183\n      jump\t// in\n    tag_222:\n        /* \"#utility.yul\":6012:6093   */\n      swap2\n      pop\n        /* \"#utility.yul\":5861:6104   */\n      pop\n        /* \"#utility.yul\":6190:6194   */\n      0x40\n        /* \"#utility.yul\":6183:6188   */\n      dup4\n        /* \"#utility.yul\":6179:6195   */\n      add\n        /* \"#utility.yul\":6173:6196   */\n      mload\n        /* \"#utility.yul\":6209:6272   */\n      tag_223\n        /* \"#utility.yul\":6266:6270   */\n      0x40\n        /* \"#utility.yul\":6261:6264   */\n      dup7\n        /* \"#utility.yul\":6257:6271   */\n      add\n        /* \"#utility.yul\":6243:6255   */\n      dup3\n        /* \"#utility.yul\":6209:6272   */\n      tag_175\n      jump\t// in\n    tag_223:\n        /* \"#utility.yul\":6114:6282   */\n      pop\n        /* \"#utility.yul\":6372:6376   */\n      0x60\n        /* \"#utility.yul\":6365:6370   */\n      dup4\n        /* \"#utility.yul\":6361:6377   */\n      add\n        /* \"#utility.yul\":6355:6378   */\n      mload\n        /* \"#utility.yul\":6425:6428   */\n      dup5\n        /* \"#utility.yul\":6419:6423   */\n      dup3\n        /* \"#utility.yul\":6415:6429   */\n      sub\n        /* \"#utility.yul\":6408:6412   */\n      0x60\n        /* \"#utility.yul\":6403:6406   */\n      dup7\n        /* \"#utility.yul\":6399:6413   */\n      add\n        /* \"#utility.yul\":6392:6430   */\n      mstore\n        /* \"#utility.yul\":6451:6524   */\n      tag_224\n        /* \"#utility.yul\":6519:6523   */\n      dup3\n        /* \"#utility.yul\":6505:6517   */\n      dup3\n        /* \"#utility.yul\":6451:6524   */\n      tag_183\n      jump\t// in\n    tag_224:\n        /* \"#utility.yul\":6443:6524   */\n      swap2\n      pop\n        /* \"#utility.yul\":6292:6535   */\n      pop\n        /* \"#utility.yul\":6623:6627   */\n      0x80\n        /* \"#utility.yul\":6616:6621   */\n      dup4\n        /* \"#utility.yul\":6612:6628   */\n      add\n        /* \"#utility.yul\":6606:6629   */\n      mload\n        /* \"#utility.yul\":6642:6705   */\n      tag_225\n        /* \"#utility.yul\":6699:6703   */\n      0x80\n        /* \"#utility.yul\":6694:6697   */\n      dup7\n        /* \"#utility.yul\":6690:6704   */\n      add\n        /* \"#utility.yul\":6676:6688   */\n      dup3\n        /* \"#utility.yul\":6642:6705   */\n      tag_226\n      jump\t// in\n    tag_225:\n        /* \"#utility.yul\":6545:6715   */\n      pop\n        /* \"#utility.yul\":6808:6812   */\n      0xa0\n        /* \"#utility.yul\":6801:6806   */\n      dup4\n        /* \"#utility.yul\":6797:6813   */\n      add\n        /* \"#utility.yul\":6791:6814   */\n      mload\n        /* \"#utility.yul\":6861:6864   */\n      dup5\n        /* \"#utility.yul\":6855:6859   */\n      dup3\n        /* \"#utility.yul\":6851:6865   */\n      sub\n        /* \"#utility.yul\":6844:6848   */\n      0xa0\n        /* \"#utility.yul\":6839:6842   */\n      dup7\n        /* \"#utility.yul\":6835:6849   */\n      add\n        /* \"#utility.yul\":6828:6866   */\n      mstore\n        /* \"#utility.yul\":6887:6960   */\n      tag_227\n        /* \"#utility.yul\":6955:6959   */\n      dup3\n        /* \"#utility.yul\":6941:6953   */\n      dup3\n        /* \"#utility.yul\":6887:6960   */\n      tag_183\n      jump\t// in\n    tag_227:\n        /* \"#utility.yul\":6879:6960   */\n      swap2\n      pop\n        /* \"#utility.yul\":6725:6971   */\n      pop\n        /* \"#utility.yul\":7060:7064   */\n      0xc0\n        /* \"#utility.yul\":7053:7058   */\n      dup4\n        /* \"#utility.yul\":7049:7065   */\n      add\n        /* \"#utility.yul\":7043:7066   */\n      mload\n        /* \"#utility.yul\":7079:7142   */\n      tag_228\n        /* \"#utility.yul\":7136:7140   */\n      0xc0\n        /* \"#utility.yul\":7131:7134   */\n      dup7\n        /* \"#utility.yul\":7127:7141   */\n      add\n        /* \"#utility.yul\":7113:7125   */\n      dup3\n        /* \"#utility.yul\":7079:7142   */\n      tag_226\n      jump\t// in\n    tag_228:\n        /* \"#utility.yul\":6981:7152   */\n      pop\n        /* \"#utility.yul\":7242:7246   */\n      0xe0\n        /* \"#utility.yul\":7235:7240   */\n      dup4\n        /* \"#utility.yul\":7231:7247   */\n      add\n        /* \"#utility.yul\":7225:7248   */\n      mload\n        /* \"#utility.yul\":7295:7298   */\n      dup5\n        /* \"#utility.yul\":7289:7293   */\n      dup3\n        /* \"#utility.yul\":7285:7299   */\n      sub\n        /* \"#utility.yul\":7278:7282   */\n      0xe0\n        /* \"#utility.yul\":7273:7276   */\n      dup7\n        /* \"#utility.yul\":7269:7283   */\n      add\n        /* \"#utility.yul\":7262:7300   */\n      mstore\n        /* \"#utility.yul\":7321:7394   */\n      tag_229\n        /* \"#utility.yul\":7389:7393   */\n      dup3\n        /* \"#utility.yul\":7375:7387   */\n      dup3\n        /* \"#utility.yul\":7321:7394   */\n      tag_183\n      jump\t// in\n    tag_229:\n        /* \"#utility.yul\":7313:7394   */\n      swap2\n      pop\n        /* \"#utility.yul\":7162:7405   */\n      pop\n        /* \"#utility.yul\":7498:7504   */\n      0x0100\n        /* \"#utility.yul\":7491:7496   */\n      dup4\n        /* \"#utility.yul\":7487:7505   */\n      add\n        /* \"#utility.yul\":7481:7506   */\n      mload\n        /* \"#utility.yul\":7519:7578   */\n      tag_230\n        /* \"#utility.yul\":7570:7576   */\n      0x0100\n        /* \"#utility.yul\":7565:7568   */\n      dup7\n        /* \"#utility.yul\":7561:7577   */\n      add\n        /* \"#utility.yul\":7547:7559   */\n      dup3\n        /* \"#utility.yul\":7519:7578   */\n      tag_179\n      jump\t// in\n    tag_230:\n        /* \"#utility.yul\":7415:7588   */\n      pop\n        /* \"#utility.yul\":7687:7693   */\n      0x0120\n        /* \"#utility.yul\":7680:7685   */\n      dup4\n        /* \"#utility.yul\":7676:7694   */\n      add\n        /* \"#utility.yul\":7670:7695   */\n      mload\n        /* \"#utility.yul\":7708:7773   */\n      tag_231\n        /* \"#utility.yul\":7765:7771   */\n      0x0120\n        /* \"#utility.yul\":7760:7763   */\n      dup7\n        /* \"#utility.yul\":7756:7772   */\n      add\n        /* \"#utility.yul\":7742:7754   */\n      dup3\n        /* \"#utility.yul\":7708:7773   */\n      tag_226\n      jump\t// in\n    tag_231:\n        /* \"#utility.yul\":7598:7783   */\n      pop\n        /* \"#utility.yul\":7876:7882   */\n      0x0140\n        /* \"#utility.yul\":7869:7874   */\n      dup4\n        /* \"#utility.yul\":7865:7883   */\n      add\n        /* \"#utility.yul\":7859:7884   */\n      mload\n        /* \"#utility.yul\":7897:7956   */\n      tag_232\n        /* \"#utility.yul\":7948:7954   */\n      0x0140\n        /* \"#utility.yul\":7943:7946   */\n      dup7\n        /* \"#utility.yul\":7939:7955   */\n      add\n        /* \"#utility.yul\":7925:7937   */\n      dup3\n        /* \"#utility.yul\":7897:7956   */\n      tag_179\n      jump\t// in\n    tag_232:\n        /* \"#utility.yul\":7793:7966   */\n      pop\n        /* \"#utility.yul\":8065:8071   */\n      0x0160\n        /* \"#utility.yul\":8058:8063   */\n      dup4\n        /* \"#utility.yul\":8054:8072   */\n      add\n        /* \"#utility.yul\":8048:8073   */\n      mload\n        /* \"#utility.yul\":8086:8151   */\n      tag_233\n        /* \"#utility.yul\":8143:8149   */\n      0x0160\n        /* \"#utility.yul\":8138:8141   */\n      dup7\n        /* \"#utility.yul\":8134:8150   */\n      add\n        /* \"#utility.yul\":8120:8132   */\n      dup3\n        /* \"#utility.yul\":8086:8151   */\n      tag_226\n      jump\t// in\n    tag_233:\n        /* \"#utility.yul\":7976:8161   */\n      pop\n        /* \"#utility.yul\":8254:8260   */\n      0x0180\n        /* \"#utility.yul\":8247:8252   */\n      dup4\n        /* \"#utility.yul\":8243:8261   */\n      add\n        /* \"#utility.yul\":8237:8262   */\n      mload\n        /* \"#utility.yul\":8311:8314   */\n      dup5\n        /* \"#utility.yul\":8305:8309   */\n      dup3\n        /* \"#utility.yul\":8301:8315   */\n      sub\n        /* \"#utility.yul\":8292:8298   */\n      0x0180\n        /* \"#utility.yul\":8287:8290   */\n      dup7\n        /* \"#utility.yul\":8283:8299   */\n      add\n        /* \"#utility.yul\":8276:8316   */\n      mstore\n        /* \"#utility.yul\":8337:8410   */\n      tag_234\n        /* \"#utility.yul\":8405:8409   */\n      dup3\n        /* \"#utility.yul\":8391:8403   */\n      dup3\n        /* \"#utility.yul\":8337:8410   */\n      tag_183\n      jump\t// in\n    tag_234:\n        /* \"#utility.yul\":8329:8410   */\n      swap2\n      pop\n        /* \"#utility.yul\":8171:8421   */\n      pop\n        /* \"#utility.yul\":8438:8442   */\n      dup1\n        /* \"#utility.yul\":8431:8442   */\n      swap2\n      pop\n        /* \"#utility.yul\":5619:8448   */\n      pop\n        /* \"#utility.yul\":5497:8448   */\n      swap3\n      swap2\n      pop\n      pop\n      jump\t// out\n        /* \"#utility.yul\":8454:8562   */\n    tag_226:\n        /* \"#utility.yul\":8531:8555   */\n      tag_236\n        /* \"#utility.yul\":8549:8554   */\n      dup2\n        /* \"#utility.yul\":8531:8555   */\n      tag_237\n      jump\t// in\n    tag_236:\n        /* \"#utility.yul\":8526:8529   */\n      dup3\n        /* \"#utility.yul\":8519:8556   */\n      mstore\n        /* \"#utility.yul\":8454:8562   */\n      pop\n      pop\n      jump\t// out\n        /* \"#utility.yul\":8568:8987   */\n    tag_110:\n        /* \"#utility.yul\":8734:8738   */\n      0x00\n        /* \"#utility.yul\":8772:8774   */\n      0x20\n        /* \"#utility.yul\":8761:8770   */\n      dup3\n        /* \"#utility.yul\":8757:8775   */\n      add\n        /* \"#utility.yul\":8749:8775   */\n      swap1\n      pop\n        /* \"#utility.yul\":8821:8830   */\n      dup2\n        /* \"#utility.yul\":8815:8819   */\n      dup2\n        /* \"#utility.yul\":8811:8831   */\n      sub\n        /* \"#utility.yul\":8807:8808   */\n      0x00\n        /* \"#utility.yul\":8796:8805   */\n      dup4\n        /* \"#utility.yul\":8792:8809   */\n      add\n        /* \"#utility.yul\":8785:8832   */\n      mstore\n        /* \"#utility.yul\":8849:8980   */\n      tag_239\n        /* \"#utility.yul\":8975:8979   */\n      dup2\n        /* \"#utility.yul\":8849:8980   */\n      tag_193\n      jump\t// in\n    tag_239:\n        /* \"#utility.yul\":8841:8980   */\n      swap1\n      pop\n        /* \"#utility.yul\":8568:8987   */\n      swap2\n      swap1\n      pop\n      jump\t// out\n        /* \"#utility.yul\":8993:9412   */\n    tag_92:\n        /* \"#utility.yul\":9159:9163   */\n      0x00\n        /* \"#utility.yul\":9197:9199   */\n      0x20\n        /* \"#utility.yul\":9186:9195   */\n      dup3\n        /* \"#utility.yul\":9182:9200   */\n      add\n        /* \"#utility.yul\":9174:9200   */\n      swap1\n      pop\n        /* \"#utility.yul\":9246:9255   */\n      dup2\n        /* \"#utility.yul\":9240:9244   */\n      dup2\n        /* \"#utility.yul\":9236:9256   */\n      sub\n        /* \"#utility.yul\":9232:9233   */\n      0x00\n        /* \"#utility.yul\":9221:9230   */\n      dup4\n        /* \"#utility.yul\":9217:9234   */\n      add\n        /* \"#utility.yul\":9210:9257   */\n      mstore\n        /* \"#utility.yul\":9274:9405   */\n      tag_241\n        /* \"#utility.yul\":9400:9404   */\n      dup2\n        /* \"#utility.yul\":9274:9405   */\n      tag_199\n      jump\t// in\n    tag_241:\n        /* \"#utility.yul\":9266:9405   */\n      swap1\n      pop\n        /* \"#utility.yul\":8993:9412   */\n      swap2\n      swap1\n      pop\n      jump\t// out\n        /* \"#utility.yul\":9418:9837   */\n    tag_81:\n        /* \"#utility.yul\":9584:9588   */\n      0x00\n        /* \"#utility.yul\":9622:9624   */\n      0x20\n        /* \"#utility.yul\":9611:9620   */\n      dup3\n        /* \"#utility.yul\":9607:9625   */\n      add\n        /* \"#utility.yul\":9599:9625   */\n      swap1\n      pop\n        /* \"#utility.yul\":9671:9680   */\n      dup2\n        /* \"#utility.yul\":9665:9669   */\n      dup2\n        /* \"#utility.yul\":9661:9681   */\n      sub\n        /* \"#utility.yul\":9657:9658   */\n      0x00\n        /* \"#utility.yul\":9646:9655   */\n      dup4\n        /* \"#utility.yul\":9642:9659   */\n      add\n        /* \"#utility.yul\":9635:9682   */\n      mstore\n        /* \"#utility.yul\":9699:9830   */\n      tag_243\n        /* \"#utility.yul\":9825:9829   */\n      dup2\n        /* \"#utility.yul\":9699:9830   */\n      tag_204\n      jump\t// in\n    tag_243:\n        /* \"#utility.yul\":9691:9830   */\n      swap1\n      pop\n        /* \"#utility.yul\":9418:9837   */\n      swap2\n      swap1\n      pop\n      jump\t// out\n        /* \"#utility.yul\":9843:10262   */\n    tag_85:\n        /* \"#utility.yul\":10009:10013   */\n      0x00\n        /* \"#utility.yul\":10047:10049   */\n      0x20\n        /* \"#utility.yul\":10036:10045   */\n      dup3\n        /* \"#utility.yul\":10032:10050   */\n      add\n        /* \"#utility.yul\":10024:10050   */\n      swap1\n      pop\n        /* \"#utility.yul\":10096:10105   */\n      dup2\n        /* \"#utility.yul\":10090:10094   */\n      dup2\n        /* \"#utility.yul\":10086:10106   */\n      sub\n        /* \"#utility.yul\":10082:10083   */\n      0x00\n        /* \"#utility.yul\":10071:10080   */\n      dup4\n        /* \"#utility.yul\":10067:10084   */\n      add\n        /* \"#utility.yul\":10060:10107   */\n      mstore\n        /* \"#utility.yul\":10124:10255   */\n      tag_245\n        /* \"#utility.yul\":10250:10254   */\n      dup2\n        /* \"#utility.yul\":10124:10255   */\n      tag_209\n      jump\t// in\n    tag_245:\n        /* \"#utility.yul\":10116:10255   */\n      swap1\n      pop\n        /* \"#utility.yul\":9843:10262   */\n      swap2\n      swap1\n      pop\n      jump\t// out\n        /* \"#utility.yul\":10268:10687   */\n    tag_37:\n        /* \"#utility.yul\":10434:10438   */\n      0x00\n        /* \"#utility.yul\":10472:10474   */\n      0x20\n        /* \"#utility.yul\":10461:10470   */\n      dup3\n        /* \"#utility.yul\":10457:10475   */\n      add\n        /* \"#utility.yul\":10449:10475   */\n      swap1\n      pop\n        /* \"#utility.yul\":10521:10530   */\n      dup2\n        /* \"#utility.yul\":10515:10519   */\n      dup2\n        /* \"#utility.yul\":10511:10531   */\n      sub\n        /* \"#utility.yul\":10507:10508   */\n      0x00\n        /* \"#utility.yul\":10496:10505   */\n      dup4\n        /* \"#utility.yul\":10492:10509   */\n      add\n        /* \"#utility.yul\":10485:10532   */\n      mstore\n        /* \"#utility.yul\":10549:10680   */\n      tag_247\n        /* \"#utility.yul\":10675:10679   */\n      dup2\n        /* \"#utility.yul\":10549:10680   */\n      tag_214\n      jump\t// in\n    tag_247:\n        /* \"#utility.yul\":10541:10680   */\n      swap1\n      pop\n        /* \"#utility.yul\":10268:10687   */\n      swap2\n      swap1\n      pop\n      jump\t// out\n        /* \"#utility.yul\":10693:11062   */\n    tag_17:\n        /* \"#utility.yul\":10834:10838   */\n      0x00\n        /* \"#utility.yul\":10872:10874   */\n      0x20\n        /* \"#utility.yul\":10861:10870   */\n      dup3\n        /* \"#utility.yul\":10857:10875   */\n      add\n        /* \"#utility.yul\":10849:10875   */\n      swap1\n      pop\n        /* \"#utility.yul\":10921:10930   */\n      dup2\n        /* \"#utility.yul\":10915:10919   */\n      dup2\n        /* \"#utility.yul\":10911:10931   */\n      sub\n        /* \"#utility.yul\":10907:10908   */\n      0x00\n        /* \"#utility.yul\":10896:10905   */\n      dup4\n        /* \"#utility.yul\":10892:10909   */\n      add\n        /* \"#utility.yul\":10885:10932   */\n      mstore\n        /* \"#utility.yul\":10949:11055   */\n      tag_249\n        /* \"#utility.yul\":11050:11054   */\n      dup2\n        /* \"#utility.yul\":11041:11047   */\n      dup5\n        /* \"#utility.yul\":10949:11055   */\n      tag_219\n      jump\t// in\n    tag_249:\n        /* \"#utility.yul\":10941:11055   */\n      swap1\n      pop\n        /* \"#utility.yul\":10693:11062   */\n      swap3\n      swap2\n      pop\n      pop\n      jump\t// out\n        /* \"#utility.yul\":11068:11197   */\n    tag_132:\n        /* \"#utility.yul\":11102:11108   */\n      0x00\n        /* \"#utility.yul\":11129:11149   */\n      tag_251\n      tag_252\n      jump\t// in\n    tag_251:\n        /* \"#utility.yul\":11119:11149   */\n      swap1\n      pop\n        /* \"#utility.yul\":11158:11191   */\n      tag_253\n        /* \"#utility.yul\":11186:11190   */\n      dup3\n        /* \"#utility.yul\":11178:11184   */\n      dup3\n        /* \"#utility.yul\":11158:11191   */\n      tag_254\n      jump\t// in\n    tag_253:\n        /* \"#utility.yul\":11068:11197   */\n      swap2\n      swap1\n      pop\n      jump\t// out\n        /* \"#utility.yul\":11203:11278   */\n    tag_252:\n        /* \"#utility.yul\":11236:11242   */\n      0x00\n        /* \"#utility.yul\":11269:11271   */\n      0x40\n        /* \"#utility.yul\":11263:11272   */\n      mload\n        /* \"#utility.yul\":11253:11272   */\n      swap1\n      pop\n        /* \"#utility.yul\":11203:11278   */\n      swap1\n      jump\t// out\n        /* \"#utility.yul\":11284:11592   */\n    tag_131:\n        /* \"#utility.yul\":11346:11350   */\n      0x00\n        /* \"#utility.yul\":11436:11454   */\n      0xffffffffffffffff\n        /* \"#utility.yul\":11428:11434   */\n      dup3\n        /* \"#utility.yul\":11425:11455   */\n      gt\n        /* \"#utility.yul\":11422:11478   */\n      iszero\n      tag_257\n      jumpi\n        /* \"#utility.yul\":11458:11476   */\n      tag_258\n      tag_259\n      jump\t// in\n    tag_258:\n        /* \"#utility.yul\":11422:11478   */\n    tag_257:\n        /* \"#utility.yul\":11496:11525   */\n      tag_260\n        /* \"#utility.yul\":11518:11524   */\n      dup3\n        /* \"#utility.yul\":11496:11525   */\n      tag_192\n      jump\t// in\n    tag_260:\n        /* \"#utility.yul\":11488:11525   */\n      swap1\n      pop\n        /* \"#utility.yul\":11580:11584   */\n      0x20\n        /* \"#utility.yul\":11574:11578   */\n      dup2\n        /* \"#utility.yul\":11570:11585   */\n      add\n        /* \"#utility.yul\":11562:11585   */\n      swap1\n      pop\n        /* \"#utility.yul\":11284:11592   */\n      swap2\n      swap1\n      pop\n      jump\t// out\n        /* \"#utility.yul\":11598:11697   */\n    tag_186:\n        /* \"#utility.yul\":11650:11656   */\n      0x00\n        /* \"#utility.yul\":11684:11689   */\n      dup2\n        /* \"#utility.yul\":11678:11690   */\n      mload\n        /* \"#utility.yul\":11668:11690   */\n      swap1\n      pop\n        /* \"#utility.yul\":11598:11697   */\n      swap2\n      swap1\n      pop\n      jump\t// out\n        /* \"#utility.yul\":11703:11862   */\n    tag_188:\n        /* \"#utility.yul\":11777:11788   */\n      0x00\n        /* \"#utility.yul\":11811:11817   */\n      dup3\n        /* \"#utility.yul\":11806:11809   */\n      dup3\n        /* \"#utility.yul\":11799:11818   */\n      mstore\n        /* \"#utility.yul\":11851:11855   */\n      0x20\n        /* \"#utility.yul\":11846:11849   */\n      dup3\n        /* \"#utility.yul\":11842:11856   */\n      add\n        /* \"#utility.yul\":11827:11856   */\n      swap1\n      pop\n        /* \"#utility.yul\":11703:11862   */\n      swap3\n      swap2\n      pop\n      pop\n      jump\t// out\n        /* \"#utility.yul\":11868:12037   */\n    tag_196:\n        /* \"#utility.yul\":11952:11963   */\n      0x00\n        /* \"#utility.yul\":11986:11992   */\n      dup3\n        /* \"#utility.yul\":11981:11984   */\n      dup3\n        /* \"#utility.yul\":11974:11993   */\n      mstore\n        /* \"#utility.yul\":12026:12030   */\n      0x20\n        /* \"#utility.yul\":12021:12024   */\n      dup3\n        /* \"#utility.yul\":12017:12031   */\n      add\n        /* \"#utility.yul\":12002:12031   */\n      swap1\n      pop\n        /* \"#utility.yul\":11868:12037   */\n      swap3\n      swap2\n      pop\n      pop\n      jump\t// out\n        /* \"#utility.yul\":12043:12139   */\n    tag_178:\n        /* \"#utility.yul\":12080:12087   */\n      0x00\n        /* \"#utility.yul\":12109:12133   */\n      tag_265\n        /* \"#utility.yul\":12127:12132   */\n      dup3\n        /* \"#utility.yul\":12109:12133   */\n      tag_266\n      jump\t// in\n    tag_265:\n        /* \"#utility.yul\":12098:12133   */\n      swap1\n      pop\n        /* \"#utility.yul\":12043:12139   */\n      swap2\n      swap1\n      pop\n      jump\t// out\n        /* \"#utility.yul\":12145:12249   */\n    tag_174:\n        /* \"#utility.yul\":12190:12197   */\n      0x00\n        /* \"#utility.yul\":12219:12243   */\n      tag_268\n        /* \"#utility.yul\":12237:12242   */\n      dup3\n        /* \"#utility.yul\":12219:12243   */\n      tag_266\n      jump\t// in\n    tag_268:\n        /* \"#utility.yul\":12208:12243   */\n      swap1\n      pop\n        /* \"#utility.yul\":12145:12249   */\n      swap2\n      swap1\n      pop\n      jump\t// out\n        /* \"#utility.yul\":12255:12345   */\n    tag_182:\n        /* \"#utility.yul\":12289:12296   */\n      0x00\n        /* \"#utility.yul\":12332:12337   */\n      dup2\n        /* \"#utility.yul\":12325:12338   */\n      iszero\n        /* \"#utility.yul\":12318:12339   */\n      iszero\n        /* \"#utility.yul\":12307:12339   */\n      swap1\n      pop\n        /* \"#utility.yul\":12255:12345   */\n      swap2\n      swap1\n      pop\n      jump\t// out\n        /* \"#utility.yul\":12351:12477   */\n    tag_266:\n        /* \"#utility.yul\":12388:12395   */\n      0x00\n        /* \"#utility.yul\":12428:12470   */\n      0xffffffffffffffffffffffffffffffffffffffff\n        /* \"#utility.yul\":12421:12426   */\n      dup3\n        /* \"#utility.yul\":12417:12471   */\n      and\n        /* \"#utility.yul\":12406:12471   */\n      swap1\n      pop\n        /* \"#utility.yul\":12351:12477   */\n      swap2\n      swap1\n      pop\n      jump\t// out\n        /* \"#utility.yul\":12483:12560   */\n    tag_237:\n        /* \"#utility.yul\":12520:12527   */\n      0x00\n        /* \"#utility.yul\":12549:12554   */\n      dup2\n        /* \"#utility.yul\":12538:12554   */\n      swap1\n      pop\n        /* \"#utility.yul\":12483:12560   */\n      swap2\n      swap1\n      pop\n      jump\t// out\n        /* \"#utility.yul\":12566:12720   */\n    tag_137:\n        /* \"#utility.yul\":12650:12656   */\n      dup3\n        /* \"#utility.yul\":12645:12648   */\n      dup2\n        /* \"#utility.yul\":12640:12643   */\n      dup4\n        /* \"#utility.yul\":12627:12657   */\n      calldatacopy\n        /* \"#utility.yul\":12712:12713   */\n      0x00\n        /* \"#utility.yul\":12703:12709   */\n      dup4\n        /* \"#utility.yul\":12698:12701   */\n      dup4\n        /* \"#utility.yul\":12694:12710   */\n      add\n        /* \"#utility.yul\":12687:12714   */\n      mstore\n        /* \"#utility.yul\":12566:12720   */\n      pop\n      pop\n      pop\n      jump\t// out\n        /* \"#utility.yul\":12726:13033   */\n    tag_190:\n        /* \"#utility.yul\":12794:12795   */\n      0x00\n        /* \"#utility.yul\":12804:12917   */\n    tag_274:\n        /* \"#utility.yul\":12818:12824   */\n      dup4\n        /* \"#utility.yul\":12815:12816   */\n      dup2\n        /* \"#utility.yul\":12812:12825   */\n      lt\n        /* \"#utility.yul\":12804:12917   */\n      iszero\n      tag_276\n      jumpi\n        /* \"#utility.yul\":12903:12904   */\n      dup1\n        /* \"#utility.yul\":12898:12901   */\n      dup3\n        /* \"#utility.yul\":12894:12905   */\n      add\n        /* \"#utility.yul\":12888:12906   */\n      mload\n        /* \"#utility.yul\":12884:12885   */\n      dup2\n        /* \"#utility.yul\":12879:12882   */\n      dup5\n        /* \"#utility.yul\":12875:12886   */\n      add\n        /* \"#utility.yul\":12868:12907   */\n      mstore\n        /* \"#utility.yul\":12840:12842   */\n      0x20\n        /* \"#utility.yul\":12837:12838   */\n      dup2\n        /* \"#utility.yul\":12833:12843   */\n      add\n        /* \"#utility.yul\":12828:12843   */\n      swap1\n      pop\n        /* \"#utility.yul\":12804:12917   */\n      jump(tag_274)\n    tag_276:\n        /* \"#utility.yul\":12935:12941   */\n      dup4\n        /* \"#utility.yul\":12932:12933   */\n      dup2\n        /* \"#utility.yul\":12929:12942   */\n      gt\n        /* \"#utility.yul\":12926:13027   */\n      iszero\n      tag_277\n      jumpi\n        /* \"#utility.yul\":13015:13016   */\n      0x00\n        /* \"#utility.yul\":13006:13012   */\n      dup5\n        /* \"#utility.yul\":13001:13004   */\n      dup5\n        /* \"#utility.yul\":12997:13013   */\n      add\n        /* \"#utility.yul\":12990:13017   */\n      mstore\n        /* \"#utility.yul\":12926:13027   */\n    tag_277:\n        /* \"#utility.yul\":12775:13033   */\n      pop\n        /* \"#utility.yul\":12726:13033   */\n      pop\n      pop\n      pop\n      jump\t// out\n        /* \"#utility.yul\":13039:13359   */\n    tag_43:\n        /* \"#utility.yul\":13083:13089   */\n      0x00\n        /* \"#utility.yul\":13120:13121   */\n      0x02\n        /* \"#utility.yul\":13114:13118   */\n      dup3\n        /* \"#utility.yul\":13110:13122   */\n      div\n        /* \"#utility.yul\":13100:13122   */\n      swap1\n      pop\n        /* \"#utility.yul\":13167:13168   */\n      0x01\n        /* \"#utility.yul\":13161:13165   */\n      dup3\n        /* \"#utility.yul\":13157:13169   */\n      and\n        /* \"#utility.yul\":13188:13206   */\n      dup1\n        /* \"#utility.yul\":13178:13259   */\n      tag_279\n      jumpi\n        /* \"#utility.yul\":13244:13248   */\n      0x7f\n        /* \"#utility.yul\":13236:13242   */\n      dup3\n        /* \"#utility.yul\":13232:13249   */\n      and\n        /* \"#utility.yul\":13222:13249   */\n      swap2\n      pop\n        /* \"#utility.yul\":13178:13259   */\n    tag_279:\n        /* \"#utility.yul\":13306:13308   */\n      0x20\n        /* \"#utility.yul\":13298:13304   */\n      dup3\n        /* \"#utility.yul\":13295:13309   */\n      lt\n        /* \"#utility.yul\":13275:13293   */\n      dup2\n        /* \"#utility.yul\":13272:13310   */\n      eq\n        /* \"#utility.yul\":13269:13353   */\n      iszero\n      tag_280\n      jumpi\n        /* \"#utility.yul\":13325:13343   */\n      tag_281\n      tag_282\n      jump\t// in\n    tag_281:\n        /* \"#utility.yul\":13269:13353   */\n    tag_280:\n        /* \"#utility.yul\":13090:13359   */\n      pop\n        /* \"#utility.yul\":13039:13359   */\n      swap2\n      swap1\n      pop\n      jump\t// out\n        /* \"#utility.yul\":13365:13646   */\n    tag_254:\n        /* \"#utility.yul\":13448:13475   */\n      tag_284\n        /* \"#utility.yul\":13470:13474   */\n      dup3\n        /* \"#utility.yul\":13448:13475   */\n      tag_192\n      jump\t// in\n    tag_284:\n        /* \"#utility.yul\":13440:13446   */\n      dup2\n        /* \"#utility.yul\":13436:13476   */\n      add\n        /* \"#utility.yul\":13578:13584   */\n      dup2\n        /* \"#utility.yul\":13566:13576   */\n      dup2\n        /* \"#utility.yul\":13563:13585   */\n      lt\n        /* \"#utility.yul\":13542:13560   */\n      0xffffffffffffffff\n        /* \"#utility.yul\":13530:13540   */\n      dup3\n        /* \"#utility.yul\":13527:13561   */\n      gt\n        /* \"#utility.yul\":13524:13586   */\n      or\n        /* \"#utility.yul\":13521:13609   */\n      iszero\n      tag_285\n      jumpi\n        /* \"#utility.yul\":13589:13607   */\n      tag_286\n      tag_259\n      jump\t// in\n    tag_286:\n        /* \"#utility.yul\":13521:13609   */\n    tag_285:\n        /* \"#utility.yul\":13629:13639   */\n      dup1\n        /* \"#utility.yul\":13625:13627   */\n      0x40\n        /* \"#utility.yul\":13618:13640   */\n      mstore\n        /* \"#utility.yul\":13408:13646   */\n      pop\n        /* \"#utility.yul\":13365:13646   */\n      pop\n      pop\n      jump\t// out\n        /* \"#utility.yul\":13652:13832   */\n    tag_282:\n        /* \"#utility.yul\":13700:13777   */\n      0x4e487b7100000000000000000000000000000000000000000000000000000000\n        /* \"#utility.yul\":13697:13698   */\n      0x00\n        /* \"#utility.yul\":13690:13778   */\n      mstore\n        /* \"#utility.yul\":13797:13801   */\n      0x22\n        /* \"#utility.yul\":13794:13795   */\n      0x04\n        /* \"#utility.yul\":13787:13802   */\n      mstore\n        /* \"#utility.yul\":13821:13825   */\n      0x24\n        /* \"#utility.yul\":13818:13819   */\n      0x00\n        /* \"#utility.yul\":13811:13826   */\n      revert\n        /* \"#utility.yul\":13838:14018   */\n    tag_259:\n        /* \"#utility.yul\":13886:13963   */\n      0x4e487b7100000000000000000000000000000000000000000000000000000000\n        /* \"#utility.yul\":13883:13884   */\n      0x00\n        /* \"#utility.yul\":13876:13964   */\n      mstore\n        /* \"#utility.yul\":13983:13987   */\n      0x41\n        /* \"#utility.yul\":13980:13981   */\n      0x04\n        /* \"#utility.yul\":13973:13988   */\n      mstore\n        /* \"#utility.yul\":14007:14011   */\n      0x24\n        /* \"#utility.yul\":14004:14005   */\n      0x00\n        /* \"#utility.yul\":13997:14012   */\n      revert\n        /* \"#utility.yul\":14024:14141   */\n    tag_146:\n        /* \"#utility.yul\":14133:14134   */\n      0x00\n        /* \"#utility.yul\":14130:14131   */\n      dup1\n        /* \"#utility.yul\":14123:14135   */\n      revert\n        /* \"#utility.yul\":14147:14264   */\n    tag_135:\n        /* \"#utility.yul\":14256:14257   */\n      0x00\n        /* \"#utility.yul\":14253:14254   */\n      dup1\n        /* \"#utility.yul\":14246:14258   */\n      revert\n        /* \"#utility.yul\":14270:14387   */\n    tag_158:\n        /* \"#utility.yul\":14379:14380   */\n      0x00\n        /* \"#utility.yul\":14376:14377   */\n      dup1\n        /* \"#utility.yul\":14369:14381   */\n      revert\n        /* \"#utility.yul\":14393:14510   */\n    tag_155:\n        /* \"#utility.yul\":14502:14503   */\n      0x00\n        /* \"#utility.yul\":14499:14500   */\n      dup1\n        /* \"#utility.yul\":14492:14504   */\n      revert\n        /* \"#utility.yul\":14516:14618   */\n    tag_192:\n        /* \"#utility.yul\":14557:14563   */\n      0x00\n        /* \"#utility.yul\":14608:14610   */\n      0x1f\n        /* \"#utility.yul\":14604:14611   */\n      not\n        /* \"#utility.yul\":14599:14601   */\n      0x1f\n        /* \"#utility.yul\":14592:14597   */\n      dup4\n        /* \"#utility.yul\":14588:14602   */\n      add\n        /* \"#utility.yul\":14584:14612   */\n      and\n        /* \"#utility.yul\":14574:14612   */\n      swap1\n      pop\n        /* \"#utility.yul\":14516:14618   */\n      swap2\n      swap1\n      pop\n      jump\t// out\n        /* \"#utility.yul\":14624:14856   */\n    tag_198:\n        /* \"#utility.yul\":14764:14798   */\n      0x5061796d656e74206d757374206265206d616465206265666f72652077697468\n        /* \"#utility.yul\":14760:14761   */\n      0x00\n        /* \"#utility.yul\":14752:14758   */\n      dup3\n        /* \"#utility.yul\":14748:14762   */\n      add\n        /* \"#utility.yul\":14741:14799   */\n      mstore\n        /* \"#utility.yul\":14833:14848   */\n      0x64726177696e672066756e647300000000000000000000000000000000000000\n        /* \"#utility.yul\":14828:14830   */\n      0x20\n        /* \"#utility.yul\":14820:14826   */\n      dup3\n        /* \"#utility.yul\":14816:14831   */\n      add\n        /* \"#utility.yul\":14809:14849   */\n      mstore\n        /* \"#utility.yul\":14624:14856   */\n      pop\n      jump\t// out\n        /* \"#utility.yul\":14862:15096   */\n    tag_203:\n        /* \"#utility.yul\":15002:15036   */\n      0x50726f6d69736f7220616e642050726f6d69736565206d757374206265206469\n        /* \"#utility.yul\":14998:14999   */\n      0x00\n        /* \"#utility.yul\":14990:14996   */\n      dup3\n        /* \"#utility.yul\":14986:15000   */\n      add\n        /* \"#utility.yul\":14979:15037   */\n      mstore\n        /* \"#utility.yul\":15071:15088   */\n      0x66666572656e7420706172746965730000000000000000000000000000000000\n        /* \"#utility.yul\":15066:15068   */\n      0x20\n        /* \"#utility.yul\":15058:15064   */\n      dup3\n        /* \"#utility.yul\":15054:15069   */\n      add\n        /* \"#utility.yul\":15047:15089   */\n      mstore\n        /* \"#utility.yul\":14862:15096   */\n      pop\n      jump\t// out\n        /* \"#utility.yul\":15102:15328   */\n    tag_208:\n        /* \"#utility.yul\":15242:15276   */\n      0x6f6e6c79207468652070726f6d69736f722063616e2073656e64207468697320\n        /* \"#utility.yul\":15238:15239   */\n      0x00\n        /* \"#utility.yul\":15230:15236   */\n      dup3\n        /* \"#utility.yul\":15226:15240   */\n      add\n        /* \"#utility.yul\":15219:15277   */\n      mstore\n        /* \"#utility.yul\":15311:15320   */\n      0x6d65737361676500000000000000000000000000000000000000000000000000\n        /* \"#utility.yul\":15306:15308   */\n      0x20\n        /* \"#utility.yul\":15298:15304   */\n      dup3\n        /* \"#utility.yul\":15294:15309   */\n      add\n        /* \"#utility.yul\":15287:15321   */\n      mstore\n        /* \"#utility.yul\":15102:15328   */\n      pop\n      jump\t// out\n        /* \"#utility.yul\":15334:15555   */\n    tag_213:\n        /* \"#utility.yul\":15474:15508   */\n      0x596f75206d757374207061792074686520616d6f756e742073746970756c6174\n        /* \"#utility.yul\":15470:15471   */\n      0x00\n        /* \"#utility.yul\":15462:15468   */\n      dup3\n        /* \"#utility.yul\":15458:15472   */\n      add\n        /* \"#utility.yul\":15451:15509   */\n      mstore\n        /* \"#utility.yul\":15543:15547   */\n      0x6564000000000000000000000000000000000000000000000000000000000000\n        /* \"#utility.yul\":15538:15540   */\n      0x20\n        /* \"#utility.yul\":15530:15536   */\n      dup3\n        /* \"#utility.yul\":15526:15541   */\n      add\n        /* \"#utility.yul\":15519:15548   */\n      mstore\n        /* \"#utility.yul\":15334:15555   */\n      pop\n      jump\t// out\n        /* \"#utility.yul\":15561:15787   */\n    tag_218:\n        /* \"#utility.yul\":15701:15735   */\n      0x6f6e6c79207468652070726f6d697365652063616e2073656e64207468697320\n        /* \"#utility.yul\":15697:15698   */\n      0x00\n        /* \"#utility.yul\":15689:15695   */\n      dup3\n        /* \"#utility.yul\":15685:15699   */\n      add\n        /* \"#utility.yul\":15678:15736   */\n      mstore\n        /* \"#utility.yul\":15770:15779   */\n      0x6d65737361676500000000000000000000000000000000000000000000000000\n        /* \"#utility.yul\":15765:15767   */\n      0x20\n        /* \"#utility.yul\":15757:15763   */\n      dup3\n        /* \"#utility.yul\":15753:15768   */\n      add\n        /* \"#utility.yul\":15746:15780   */\n      mstore\n        /* \"#utility.yul\":15561:15787   */\n      pop\n      jump\t// out\n        /* \"#utility.yul\":15793:15915   */\n    tag_141:\n        /* \"#utility.yul\":15866:15890   */\n      tag_300\n        /* \"#utility.yul\":15884:15889   */\n      dup2\n        /* \"#utility.yul\":15866:15890   */\n      tag_178\n      jump\t// in\n    tag_300:\n        /* \"#utility.yul\":15859:15864   */\n      dup2\n        /* \"#utility.yul\":15856:15891   */\n      eq\n        /* \"#utility.yul\":15846:15909   */\n      tag_301\n      jumpi\n        /* \"#utility.yul\":15905:15906   */\n      0x00\n        /* \"#utility.yul\":15902:15903   */\n      dup1\n        /* \"#utility.yul\":15895:15907   */\n      revert\n        /* \"#utility.yul\":15846:15909   */\n    tag_301:\n        /* \"#utility.yul\":15793:15915   */\n      pop\n      jump\t// out\n        /* \"#utility.yul\":15921:16043   */\n    tag_151:\n        /* \"#utility.yul\":15994:16018   */\n      tag_303\n        /* \"#utility.yul\":16012:16017   */\n      dup2\n        /* \"#utility.yul\":15994:16018   */\n      tag_237\n      jump\t// in\n    tag_303:\n        /* \"#utility.yul\":15987:15992   */\n      dup2\n        /* \"#utility.yul\":15984:16019   */\n      eq\n        /* \"#utility.yul\":15974:16037   */\n      tag_304\n      jumpi\n        /* \"#utility.yul\":16033:16034   */\n      0x00\n        /* \"#utility.yul\":16030:16031   */\n      dup1\n        /* \"#utility.yul\":16023:16035   */\n      revert\n        /* \"#utility.yul\":15974:16037   */\n    tag_304:\n        /* \"#utility.yul\":15921:16043   */\n      pop\n      jump\t// out\n\n    auxdata: 0xa2646970667358221220e83afce6146a980217523849b6f43f02e5b355602ea906e4e136da0a6005eafb64736f6c63430008070033\n}\n",
				"bytecode": {
					"linkReferences": {},
					"object": "608060405260008060006101000a81548160ff02191690831515021790555060008060016101000a81548160ff0219169083151502179055503480156200004557600080fd5b5060405162001a3538038062001a3583398181016040528101906200006b9190620001ff565b33600160000160006101000a81548173ffffffffffffffffffffffffffffffffffffffff021916908373ffffffffffffffffffffffffffffffffffffffff16021790555080600180019080519060200190620000c9929190620000d1565b5050620003d4565b828054620000df90620002e5565b90600052602060002090601f0160209004810192826200010357600085556200014f565b82601f106200011e57805160ff19168380011785556200014f565b828001600101855582156200014f579182015b828111156200014e57825182559160200191906001019062000131565b5b5090506200015e919062000162565b5090565b5b808211156200017d57600081600090555060010162000163565b5090565b600062000198620001928462000279565b62000250565b905082815260208101848484011115620001b757620001b6620003b4565b5b620001c4848285620002af565b509392505050565b600082601f830112620001e457620001e3620003af565b5b8151620001f684826020860162000181565b91505092915050565b600060208284031215620002185762000217620003be565b5b600082015167ffffffffffffffff811115620002395762000238620003b9565b5b6200024784828501620001cc565b91505092915050565b60006200025c6200026f565b90506200026a82826200031b565b919050565b6000604051905090565b600067ffffffffffffffff82111562000297576200029662000380565b5b620002a282620003c3565b9050602081019050919050565b60005b83811015620002cf578082015181840152602081019050620002b2565b83811115620002df576000848401525b50505050565b60006002820490506001821680620002fe57607f821691505b6020821081141562000315576200031462000351565b5b50919050565b6200032682620003c3565b810181811067ffffffffffffffff8211171562000348576200034762000380565b5b80604052505050565b7f4e487b7100000000000000000000000000000000000000000000000000000000600052602260045260246000fd5b7f4e487b7100000000000000000000000000000000000000000000000000000000600052604160045260246000fd5b600080fd5b600080fd5b600080fd5b600080fd5b6000601f19601f8301169050919050565b61165180620003e46000396000f3fe6080604052600436106100705760003560e01c80637a7816581161004e5780637a781658146100ce5780638c4adcbd146100d857806393d6d82414610101578063ae0aba8c1461011857610070565b806341c0e1b5146100755780635a9b0b891461008c57806374cd7aed146100b7575b600080fd5b34801561008157600080fd5b5061008a61012f565b005b34801561009857600080fd5b506100a1610200565b6040516100ae919061123b565b60405180910390f35b3480156100c357600080fd5b506100cc6105ff565b005b6100d66106e3565b005b3480156100e457600080fd5b506100ff60048036038101906100fa9190610e45565b61081e565b005b34801561010d57600080fd5b50610116610a03565b005b34801561012457600080fd5b5061012d610ae7565b005b600160000160009054906101000a900473ffffffffffffffffffffffffffffffffffffffff1673ffffffffffffffffffffffffffffffffffffffff163373ffffffffffffffffffffffffffffffffffffffff16146101c2576040517f08c379a00000000000000000000000000000000000000000000000000000000081526004016101b99061121b565b60405180910390fd5b600160000160009054906101000a900473ffffffffffffffffffffffffffffffffffffffff1673ffffffffffffffffffffffffffffffffffffffff16ff5b610208610c70565b6001604051806101a00160405290816000820160009054906101000a900473ffffffffffffffffffffffffffffffffffffffff1673ffffffffffffffffffffffffffffffffffffffff1673ffffffffffffffffffffffffffffffffffffffff16815260200160018201805461027c9061137c565b80601f01602080910402602001604051908101604052809291908181526020018280546102a89061137c565b80156102f55780601f106102ca576101008083540402835291602001916102f5565b820191906000526020600020905b8154815290600101906020018083116102d857829003601f168201915b505050505081526020016002820160009054906101000a900473ffffffffffffffffffffffffffffffffffffffff1673ffffffffffffffffffffffffffffffffffffffff1673ffffffffffffffffffffffffffffffffffffffff1681526020016003820180546103649061137c565b80601f01602080910402602001604051908101604052809291908181526020018280546103909061137c565b80156103dd5780601f106103b2576101008083540402835291602001916103dd565b820191906000526020600020905b8154815290600101906020018083116103c057829003601f168201915b50505050508152602001600482015481526020016005820180546104009061137c565b80601f016020809104026020016040519081016040528092919081815260200182805461042c9061137c565b80156104795780601f1061044e57610100808354040283529160200191610479565b820191906000526020600020905b81548152906001019060200180831161045c57829003601f168201915b505050505081526020016006820154815260200160078201805461049c9061137c565b80601f01602080910402602001604051908101604052809291908181526020018280546104c89061137c565b80156105155780601f106104ea57610100808354040283529160200191610515565b820191906000526020600020905b8154815290600101906020018083116104f857829003601f168201915b505050505081526020016008820160009054906101000a900460ff1615151515815260200160098201548152602001600a820160009054906101000a900460ff16151515158152602001600b8201548152602001600c820180546105789061137c565b80601f01602080910402602001604051908101604052809291908181526020018280546105a49061137c565b80156105f15780601f106105c6576101008083540402835291602001916105f1565b820191906000526020600020905b8154815290600101906020018083116105d457829003601f168201915b505050505081525050905090565b600160000160009054906101000a900473ffffffffffffffffffffffffffffffffffffffff1673ffffffffffffffffffffffffffffffffffffffff163373ffffffffffffffffffffffffffffffffffffffff1614610692576040517f08c379a00000000000000000000000000000000000000000000000000000000081526004016106899061121b565b60405180910390fd5b60018060080160006101000a81548160ff02191690831515021790555042600160090181905550600115156001600a0160009054906101000a900460ff16151514156106e1576106e0610c64565b5b565b60011515600160080160009054906101000a900460ff16151514801561071f5750600115156001600a0160009054906101000a900460ff161515145b61072857600080fd5b600160020160009054906101000a900473ffffffffffffffffffffffffffffffffffffffff1673ffffffffffffffffffffffffffffffffffffffff163373ffffffffffffffffffffffffffffffffffffffff16146107bb576040517f08c379a00000000000000000000000000000000000000000000000000000000081526004016107b2906111db565b60405180910390fd5b6001600401543414610802576040517f08c379a00000000000000000000000000000000000000000000000000000000081526004016107f9906111fb565b60405180910390fd5b60016000806101000a81548160ff021916908315150217905550565b600160000160009054906101000a900473ffffffffffffffffffffffffffffffffffffffff1673ffffffffffffffffffffffffffffffffffffffff163373ffffffffffffffffffffffffffffffffffffffff16146108b1576040517f08c379a00000000000000000000000000000000000000000000000000000000081526004016108a89061121b565b60405180910390fd5b600160000160009054906101000a900473ffffffffffffffffffffffffffffffffffffffff1673ffffffffffffffffffffffffffffffffffffffff168573ffffffffffffffffffffffffffffffffffffffff161415610945576040517f08c379a000000000000000000000000000000000000000000000000000000000815260040161093c906111bb565b60405180910390fd5b84600160020160006101000a81548173ffffffffffffffffffffffffffffffffffffffff021916908373ffffffffffffffffffffffffffffffffffffffff16021790555085600160030190805190602001906109a2929190610d08565b508360016004018190555082600160050190805190602001906109c6929190610d08565b5081600160070190805190602001906109e0929190610d08565b50806001600c0190805190602001906109fa929190610d08565b50505050505050565b600160020160009054906101000a900473ffffffffffffffffffffffffffffffffffffffff1673ffffffffffffffffffffffffffffffffffffffff163373ffffffffffffffffffffffffffffffffffffffff1614610a96576040517f08c379a0000000000000000000000000000000000000000000000000000000008152600401610a8d906111db565b60405180910390fd5b600180600a0160006101000a81548160ff021916908315150217905550426001600b018190555060011515600160080160009054906101000a900460ff1615151415610ae557610ae4610c64565b5b565b600160000160009054906101000a900473ffffffffffffffffffffffffffffffffffffffff1673ffffffffffffffffffffffffffffffffffffffff163373ffffffffffffffffffffffffffffffffffffffff1614610b7a576040517f08c379a0000000000000000000000000000000000000000000000000000000008152600401610b719061121b565b60405180910390fd5b6001151560008054906101000a900460ff16151514610bce576040517f08c379a0000000000000000000000000000000000000000000000000000000008152600401610bc59061119b565b60405180910390fd5b6001600060016101000a81548160ff021916908315150217905550600160000160009054906101000a900473ffffffffffffffffffffffffffffffffffffffff1673ffffffffffffffffffffffffffffffffffffffff166108fc6001600401549081150290604051600060405180830381858888f19350505050158015610c59573d6000803e3d6000fd5b50610c6261012f565b565b42600160060181905550565b604051806101a00160405280600073ffffffffffffffffffffffffffffffffffffffff16815260200160608152602001600073ffffffffffffffffffffffffffffffffffffffff16815260200160608152602001600081526020016060815260200160008152602001606081526020016000151581526020016000815260200160001515815260200160008152602001606081525090565b828054610d149061137c565b90600052602060002090601f016020900481019282610d365760008555610d7d565b82601f10610d4f57805160ff1916838001178555610d7d565b82800160010185558215610d7d579182015b82811115610d7c578251825591602001919060010190610d61565b5b509050610d8a9190610d8e565b5090565b5b80821115610da7576000816000905550600101610d8f565b5090565b6000610dbe610db984611282565b61125d565b905082815260208101848484011115610dda57610dd9611442565b5b610de584828561133a565b509392505050565b600081359050610dfc816115ed565b92915050565b600082601f830112610e1757610e1661143d565b5b8135610e27848260208601610dab565b91505092915050565b600081359050610e3f81611604565b92915050565b60008060008060008060c08789031215610e6257610e6161144c565b5b600087013567ffffffffffffffff811115610e8057610e7f611447565b5b610e8c89828a01610e02565b9650506020610e9d89828a01610ded565b9550506040610eae89828a01610e30565b945050606087013567ffffffffffffffff811115610ecf57610ece611447565b5b610edb89828a01610e02565b935050608087013567ffffffffffffffff811115610efc57610efb611447565b5b610f0889828a01610e02565b92505060a087013567ffffffffffffffff811115610f2957610f28611447565b5b610f3589828a01610e02565b9150509295509295509295565b610f4b816112f2565b82525050565b610f5a816112e0565b82525050565b610f6981611304565b82525050565b6000610f7a826112b3565b610f8481856112be565b9350610f94818560208601611349565b610f9d81611451565b840191505092915050565b6000610fb5602d836112cf565b9150610fc082611462565b604082019050919050565b6000610fd8602f836112cf565b9150610fe3826114b1565b604082019050919050565b6000610ffb6027836112cf565b915061100682611500565b604082019050919050565b600061101e6022836112cf565b91506110298261154f565b604082019050919050565b60006110416027836112cf565b915061104c8261159e565b604082019050919050565b60006101a0830160008301516110706000860182610f42565b50602083015184820360208601526110888282610f6f565b915050604083015161109d6040860182610f51565b50606083015184820360608601526110b58282610f6f565b91505060808301516110ca608086018261118c565b5060a083015184820360a08601526110e28282610f6f565b91505060c08301516110f760c086018261118c565b5060e083015184820360e086015261110f8282610f6f565b915050610100830151611126610100860182610f60565b5061012083015161113b61012086018261118c565b50610140830151611150610140860182610f60565b5061016083015161116561016086018261118c565b5061018083015184820361018086015261117f8282610f6f565b9150508091505092915050565b61119581611330565b82525050565b600060208201905081810360008301526111b481610fa8565b9050919050565b600060208201905081810360008301526111d481610fcb565b9050919050565b600060208201905081810360008301526111f481610fee565b9050919050565b6000602082019050818103600083015261121481611011565b9050919050565b6000602082019050818103600083015261123481611034565b9050919050565b600060208201905081810360008301526112558184611057565b905092915050565b6000611267611278565b905061127382826113ae565b919050565b6000604051905090565b600067ffffffffffffffff82111561129d5761129c61140e565b5b6112a682611451565b9050602081019050919050565b600081519050919050565b600082825260208201905092915050565b600082825260208201905092915050565b60006112eb82611310565b9050919050565b60006112fd82611310565b9050919050565b60008115159050919050565b600073ffffffffffffffffffffffffffffffffffffffff82169050919050565b6000819050919050565b82818337600083830152505050565b60005b8381101561136757808201518184015260208101905061134c565b83811115611376576000848401525b50505050565b6000600282049050600182168061139457607f821691505b602082108114156113a8576113a76113df565b5b50919050565b6113b782611451565b810181811067ffffffffffffffff821117156113d6576113d561140e565b5b80604052505050565b7f4e487b7100000000000000000000000000000000000000000000000000000000600052602260045260246000fd5b7f4e487b7100000000000000000000000000000000000000000000000000000000600052604160045260246000fd5b600080fd5b600080fd5b600080fd5b600080fd5b6000601f19601f8301169050919050565b7f5061796d656e74206d757374206265206d616465206265666f7265207769746860008201527f64726177696e672066756e647300000000000000000000000000000000000000602082015250565b7f50726f6d69736f7220616e642050726f6d69736565206d75737420626520646960008201527f66666572656e7420706172746965730000000000000000000000000000000000602082015250565b7f6f6e6c79207468652070726f6d69736f722063616e2073656e6420746869732060008201527f6d65737361676500000000000000000000000000000000000000000000000000602082015250565b7f596f75206d757374207061792074686520616d6f756e742073746970756c617460008201527f6564000000000000000000000000000000000000000000000000000000000000602082015250565b7f6f6e6c79207468652070726f6d697365652063616e2073656e6420746869732060008201527f6d65737361676500000000000000000000000000000000000000000000000000602082015250565b6115f6816112e0565b811461160157600080fd5b50565b61160d81611330565b811461161857600080fd5b5056fea2646970667358221220e83afce6146a980217523849b6f43f02e5b355602ea906e4e136da0a6005eafb64736f6c63430008070033",
					"opcodes": "PUSH1 0x80 PUSH1 0x40 MSTORE PUSH1 0x0 DUP1 PUSH1 0x0 PUSH2 0x100 EXP DUP2 SLOAD DUP2 PUSH1 0xFF MUL NOT AND SWAP1 DUP4 ISZERO ISZERO MUL OR SWAP1 SSTORE POP PUSH1 0x0 DUP1 PUSH1 0x1 PUSH2 0x100 EXP DUP2 SLOAD DUP2 PUSH1 0xFF MUL NOT AND SWAP1 DUP4 ISZERO ISZERO MUL OR SWAP1 SSTORE POP CALLVALUE DUP1 ISZERO PUSH3 0x45 JUMPI PUSH1 0x0 DUP1 REVERT JUMPDEST POP PUSH1 0x40 MLOAD PUSH3 0x1A35 CODESIZE SUB DUP1 PUSH3 0x1A35 DUP4 CODECOPY DUP2 DUP2 ADD PUSH1 0x40 MSTORE DUP2 ADD SWAP1 PUSH3 0x6B SWAP2 SWAP1 PUSH3 0x1FF JUMP JUMPDEST CALLER PUSH1 0x1 PUSH1 0x0 ADD PUSH1 0x0 PUSH2 0x100 EXP DUP2 SLOAD DUP2 PUSH20 0xFFFFFFFFFFFFFFFFFFFFFFFFFFFFFFFFFFFFFFFF MUL NOT AND SWAP1 DUP4 PUSH20 0xFFFFFFFFFFFFFFFFFFFFFFFFFFFFFFFFFFFFFFFF AND MUL OR SWAP1 SSTORE POP DUP1 PUSH1 0x1 DUP1 ADD SWAP1 DUP1 MLOAD SWAP1 PUSH1 0x20 ADD SWAP1 PUSH3 0xC9 SWAP3 SWAP2 SWAP1 PUSH3 0xD1 JUMP JUMPDEST POP POP PUSH3 0x3D4 JUMP JUMPDEST DUP3 DUP1 SLOAD PUSH3 0xDF SWAP1 PUSH3 0x2E5 JUMP JUMPDEST SWAP1 PUSH1 0x0 MSTORE PUSH1 0x20 PUSH1 0x0 KECCAK256 SWAP1 PUSH1 0x1F ADD PUSH1 0x20 SWAP1 DIV DUP2 ADD SWAP3 DUP3 PUSH3 0x103 JUMPI PUSH1 0x0 DUP6 SSTORE PUSH3 0x14F JUMP JUMPDEST DUP3 PUSH1 0x1F LT PUSH3 0x11E JUMPI DUP1 MLOAD PUSH1 0xFF NOT AND DUP4 DUP1 ADD OR DUP6 SSTORE PUSH3 0x14F JUMP JUMPDEST DUP3 DUP1 ADD PUSH1 0x1 ADD DUP6 SSTORE DUP3 ISZERO PUSH3 0x14F JUMPI SWAP2 DUP3 ADD JUMPDEST DUP3 DUP2 GT ISZERO PUSH3 0x14E JUMPI DUP3 MLOAD DUP3 SSTORE SWAP2 PUSH1 0x20 ADD SWAP2 SWAP1 PUSH1 0x1 ADD SWAP1 PUSH3 0x131 JUMP JUMPDEST JUMPDEST POP SWAP1 POP PUSH3 0x15E SWAP2 SWAP1 PUSH3 0x162 JUMP JUMPDEST POP SWAP1 JUMP JUMPDEST JUMPDEST DUP1 DUP3 GT ISZERO PUSH3 0x17D JUMPI PUSH1 0x0 DUP2 PUSH1 0x0 SWAP1 SSTORE POP PUSH1 0x1 ADD PUSH3 0x163 JUMP JUMPDEST POP SWAP1 JUMP JUMPDEST PUSH1 0x0 PUSH3 0x198 PUSH3 0x192 DUP5 PUSH3 0x279 JUMP JUMPDEST PUSH3 0x250 JUMP JUMPDEST SWAP1 POP DUP3 DUP2 MSTORE PUSH1 0x20 DUP2 ADD DUP5 DUP5 DUP5 ADD GT ISZERO PUSH3 0x1B7 JUMPI PUSH3 0x1B6 PUSH3 0x3B4 JUMP JUMPDEST JUMPDEST PUSH3 0x1C4 DUP5 DUP3 DUP6 PUSH3 0x2AF JUMP JUMPDEST POP SWAP4 SWAP3 POP POP POP JUMP JUMPDEST PUSH1 0x0 DUP3 PUSH1 0x1F DUP4 ADD SLT PUSH3 0x1E4 JUMPI PUSH3 0x1E3 PUSH3 0x3AF JUMP JUMPDEST JUMPDEST DUP2 MLOAD PUSH3 0x1F6 DUP5 DUP3 PUSH1 0x20 DUP7 ADD PUSH3 0x181 JUMP JUMPDEST SWAP2 POP POP SWAP3 SWAP2 POP POP JUMP JUMPDEST PUSH1 0x0 PUSH1 0x20 DUP3 DUP5 SUB SLT ISZERO PUSH3 0x218 JUMPI PUSH3 0x217 PUSH3 0x3BE JUMP JUMPDEST JUMPDEST PUSH1 0x0 DUP3 ADD MLOAD PUSH8 0xFFFFFFFFFFFFFFFF DUP2 GT ISZERO PUSH3 0x239 JUMPI PUSH3 0x238 PUSH3 0x3B9 JUMP JUMPDEST JUMPDEST PUSH3 0x247 DUP5 DUP3 DUP6 ADD PUSH3 0x1CC JUMP JUMPDEST SWAP2 POP POP SWAP3 SWAP2 POP POP JUMP JUMPDEST PUSH1 0x0 PUSH3 0x25C PUSH3 0x26F JUMP JUMPDEST SWAP1 POP PUSH3 0x26A DUP3 DUP3 PUSH3 0x31B JUMP JUMPDEST SWAP2 SWAP1 POP JUMP JUMPDEST PUSH1 0x0 PUSH1 0x40 MLOAD SWAP1 POP SWAP1 JUMP JUMPDEST PUSH1 0x0 PUSH8 0xFFFFFFFFFFFFFFFF DUP3 GT ISZERO PUSH3 0x297 JUMPI PUSH3 0x296 PUSH3 0x380 JUMP JUMPDEST JUMPDEST PUSH3 0x2A2 DUP3 PUSH3 0x3C3 JUMP JUMPDEST SWAP1 POP PUSH1 0x20 DUP2 ADD SWAP1 POP SWAP2 SWAP1 POP JUMP JUMPDEST PUSH1 0x0 JUMPDEST DUP4 DUP2 LT ISZERO PUSH3 0x2CF JUMPI DUP1 DUP3 ADD MLOAD DUP2 DUP5 ADD MSTORE PUSH1 0x20 DUP2 ADD SWAP1 POP PUSH3 0x2B2 JUMP JUMPDEST DUP4 DUP2 GT ISZERO PUSH3 0x2DF JUMPI PUSH1 0x0 DUP5 DUP5 ADD MSTORE JUMPDEST POP POP POP POP JUMP JUMPDEST PUSH1 0x0 PUSH1 0x2 DUP3 DIV SWAP1 POP PUSH1 0x1 DUP3 AND DUP1 PUSH3 0x2FE JUMPI PUSH1 0x7F DUP3 AND SWAP2 POP JUMPDEST PUSH1 0x20 DUP3 LT DUP2 EQ ISZERO PUSH3 0x315 JUMPI PUSH3 0x314 PUSH3 0x351 JUMP JUMPDEST JUMPDEST POP SWAP2 SWAP1 POP JUMP JUMPDEST PUSH3 0x326 DUP3 PUSH3 0x3C3 JUMP JUMPDEST DUP2 ADD DUP2 DUP2 LT PUSH8 0xFFFFFFFFFFFFFFFF DUP3 GT OR ISZERO PUSH3 0x348 JUMPI PUSH3 0x347 PUSH3 0x380 JUMP JUMPDEST JUMPDEST DUP1 PUSH1 0x40 MSTORE POP POP POP JUMP JUMPDEST PUSH32 0x4E487B7100000000000000000000000000000000000000000000000000000000 PUSH1 0x0 MSTORE PUSH1 0x22 PUSH1 0x4 MSTORE PUSH1 0x24 PUSH1 0x0 REVERT JUMPDEST PUSH32 0x4E487B7100000000000000000000000000000000000000000000000000000000 PUSH1 0x0 MSTORE PUSH1 0x41 PUSH1 0x4 MSTORE PUSH1 0x24 PUSH1 0x0 REVERT JUMPDEST PUSH1 0x0 DUP1 REVERT JUMPDEST PUSH1 0x0 DUP1 REVERT JUMPDEST PUSH1 0x0 DUP1 REVERT JUMPDEST PUSH1 0x0 DUP1 REVERT JUMPDEST PUSH1 0x0 PUSH1 0x1F NOT PUSH1 0x1F DUP4 ADD AND SWAP1 POP SWAP2 SWAP1 POP JUMP JUMPDEST PUSH2 0x1651 DUP1 PUSH3 0x3E4 PUSH1 0x0 CODECOPY PUSH1 0x0 RETURN INVALID PUSH1 0x80 PUSH1 0x40 MSTORE PUSH1 0x4 CALLDATASIZE LT PUSH2 0x70 JUMPI PUSH1 0x0 CALLDATALOAD PUSH1 0xE0 SHR DUP1 PUSH4 0x7A781658 GT PUSH2 0x4E JUMPI DUP1 PUSH4 0x7A781658 EQ PUSH2 0xCE JUMPI DUP1 PUSH4 0x8C4ADCBD EQ PUSH2 0xD8 JUMPI DUP1 PUSH4 0x93D6D824 EQ PUSH2 0x101 JUMPI DUP1 PUSH4 0xAE0ABA8C EQ PUSH2 0x118 JUMPI PUSH2 0x70 JUMP JUMPDEST DUP1 PUSH4 0x41C0E1B5 EQ PUSH2 0x75 JUMPI DUP1 PUSH4 0x5A9B0B89 EQ PUSH2 0x8C JUMPI DUP1 PUSH4 0x74CD7AED EQ PUSH2 0xB7 JUMPI JUMPDEST PUSH1 0x0 DUP1 REVERT JUMPDEST CALLVALUE DUP1 ISZERO PUSH2 0x81 JUMPI PUSH1 0x0 DUP1 REVERT JUMPDEST POP PUSH2 0x8A PUSH2 0x12F JUMP JUMPDEST STOP JUMPDEST CALLVALUE DUP1 ISZERO PUSH2 0x98 JUMPI PUSH1 0x0 DUP1 REVERT JUMPDEST POP PUSH2 0xA1 PUSH2 0x200 JUMP JUMPDEST PUSH1 0x40 MLOAD PUSH2 0xAE SWAP2 SWAP1 PUSH2 0x123B JUMP JUMPDEST PUSH1 0x40 MLOAD DUP1 SWAP2 SUB SWAP1 RETURN JUMPDEST CALLVALUE DUP1 ISZERO PUSH2 0xC3 JUMPI PUSH1 0x0 DUP1 REVERT JUMPDEST POP PUSH2 0xCC PUSH2 0x5FF JUMP JUMPDEST STOP JUMPDEST PUSH2 0xD6 PUSH2 0x6E3 JUMP JUMPDEST STOP JUMPDEST CALLVALUE DUP1 ISZERO PUSH2 0xE4 JUMPI PUSH1 0x0 DUP1 REVERT JUMPDEST POP PUSH2 0xFF PUSH1 0x4 DUP1 CALLDATASIZE SUB DUP2 ADD SWAP1 PUSH2 0xFA SWAP2 SWAP1 PUSH2 0xE45 JUMP JUMPDEST PUSH2 0x81E JUMP JUMPDEST STOP JUMPDEST CALLVALUE DUP1 ISZERO PUSH2 0x10D JUMPI PUSH1 0x0 DUP1 REVERT JUMPDEST POP PUSH2 0x116 PUSH2 0xA03 JUMP JUMPDEST STOP JUMPDEST CALLVALUE DUP1 ISZERO PUSH2 0x124 JUMPI PUSH1 0x0 DUP1 REVERT JUMPDEST POP PUSH2 0x12D PUSH2 0xAE7 JUMP JUMPDEST STOP JUMPDEST PUSH1 0x1 PUSH1 0x0 ADD PUSH1 0x0 SWAP1 SLOAD SWAP1 PUSH2 0x100 EXP SWAP1 DIV PUSH20 0xFFFFFFFFFFFFFFFFFFFFFFFFFFFFFFFFFFFFFFFF AND PUSH20 0xFFFFFFFFFFFFFFFFFFFFFFFFFFFFFFFFFFFFFFFF AND CALLER PUSH20 0xFFFFFFFFFFFFFFFFFFFFFFFFFFFFFFFFFFFFFFFF AND EQ PUSH2 0x1C2 JUMPI PUSH1 0x40 MLOAD PUSH32 0x8C379A000000000000000000000000000000000000000000000000000000000 DUP2 MSTORE PUSH1 0x4 ADD PUSH2 0x1B9 SWAP1 PUSH2 0x121B JUMP JUMPDEST PUSH1 0x40 MLOAD DUP1 SWAP2 SUB SWAP1 REVERT JUMPDEST PUSH1 0x1 PUSH1 0x0 ADD PUSH1 0x0 SWAP1 SLOAD SWAP1 PUSH2 0x100 EXP SWAP1 DIV PUSH20 0xFFFFFFFFFFFFFFFFFFFFFFFFFFFFFFFFFFFFFFFF AND PUSH20 0xFFFFFFFFFFFFFFFFFFFFFFFFFFFFFFFFFFFFFFFF AND SELFDESTRUCT JUMPDEST PUSH2 0x208 PUSH2 0xC70 JUMP JUMPDEST PUSH1 0x1 PUSH1 0x40 MLOAD DUP1 PUSH2 0x1A0 ADD PUSH1 0x40 MSTORE SWAP1 DUP2 PUSH1 0x0 DUP3 ADD PUSH1 0x0 SWAP1 SLOAD SWAP1 PUSH2 0x100 EXP SWAP1 DIV PUSH20 0xFFFFFFFFFFFFFFFFFFFFFFFFFFFFFFFFFFFFFFFF AND PUSH20 0xFFFFFFFFFFFFFFFFFFFFFFFFFFFFFFFFFFFFFFFF AND PUSH20 0xFFFFFFFFFFFFFFFFFFFFFFFFFFFFFFFFFFFFFFFF AND DUP2 MSTORE PUSH1 0x20 ADD PUSH1 0x1 DUP3 ADD DUP1 SLOAD PUSH2 0x27C SWAP1 PUSH2 0x137C JUMP JUMPDEST DUP1 PUSH1 0x1F ADD PUSH1 0x20 DUP1 SWAP2 DIV MUL PUSH1 0x20 ADD PUSH1 0x40 MLOAD SWAP1 DUP2 ADD PUSH1 0x40 MSTORE DUP1 SWAP3 SWAP2 SWAP1 DUP2 DUP2 MSTORE PUSH1 0x20 ADD DUP3 DUP1 SLOAD PUSH2 0x2A8 SWAP1 PUSH2 0x137C JUMP JUMPDEST DUP1 ISZERO PUSH2 0x2F5 JUMPI DUP1 PUSH1 0x1F LT PUSH2 0x2CA JUMPI PUSH2 0x100 DUP1 DUP4 SLOAD DIV MUL DUP4 MSTORE SWAP2 PUSH1 0x20 ADD SWAP2 PUSH2 0x2F5 JUMP JUMPDEST DUP3 ADD SWAP2 SWAP1 PUSH1 0x0 MSTORE PUSH1 0x20 PUSH1 0x0 KECCAK256 SWAP1 JUMPDEST DUP2 SLOAD DUP2 MSTORE SWAP1 PUSH1 0x1 ADD SWAP1 PUSH1 0x20 ADD DUP1 DUP4 GT PUSH2 0x2D8 JUMPI DUP3 SWAP1 SUB PUSH1 0x1F AND DUP3 ADD SWAP2 JUMPDEST POP POP POP POP POP DUP2 MSTORE PUSH1 0x20 ADD PUSH1 0x2 DUP3 ADD PUSH1 0x0 SWAP1 SLOAD SWAP1 PUSH2 0x100 EXP SWAP1 DIV PUSH20 0xFFFFFFFFFFFFFFFFFFFFFFFFFFFFFFFFFFFFFFFF AND PUSH20 0xFFFFFFFFFFFFFFFFFFFFFFFFFFFFFFFFFFFFFFFF AND PUSH20 0xFFFFFFFFFFFFFFFFFFFFFFFFFFFFFFFFFFFFFFFF AND DUP2 MSTORE PUSH1 0x20 ADD PUSH1 0x3 DUP3 ADD DUP1 SLOAD PUSH2 0x364 SWAP1 PUSH2 0x137C JUMP JUMPDEST DUP1 PUSH1 0x1F ADD PUSH1 0x20 DUP1 SWAP2 DIV MUL PUSH1 0x20 ADD PUSH1 0x40 MLOAD SWAP1 DUP2 ADD PUSH1 0x40 MSTORE DUP1 SWAP3 SWAP2 SWAP1 DUP2 DUP2 MSTORE PUSH1 0x20 ADD DUP3 DUP1 SLOAD PUSH2 0x390 SWAP1 PUSH2 0x137C JUMP JUMPDEST DUP1 ISZERO PUSH2 0x3DD JUMPI DUP1 PUSH1 0x1F LT PUSH2 0x3B2 JUMPI PUSH2 0x100 DUP1 DUP4 SLOAD DIV MUL DUP4 MSTORE SWAP2 PUSH1 0x20 ADD SWAP2 PUSH2 0x3DD JUMP JUMPDEST DUP3 ADD SWAP2 SWAP1 PUSH1 0x0 MSTORE PUSH1 0x20 PUSH1 0x0 KECCAK256 SWAP1 JUMPDEST DUP2 SLOAD DUP2 MSTORE SWAP1 PUSH1 0x1 ADD SWAP1 PUSH1 0x20 ADD DUP1 DUP4 GT PUSH2 0x3C0 JUMPI DUP3 SWAP1 SUB PUSH1 0x1F AND DUP3 ADD SWAP2 JUMPDEST POP POP POP POP POP DUP2 MSTORE PUSH1 0x20 ADD PUSH1 0x4 DUP3 ADD SLOAD DUP2 MSTORE PUSH1 0x20 ADD PUSH1 0x5 DUP3 ADD DUP1 SLOAD PUSH2 0x400 SWAP1 PUSH2 0x137C JUMP JUMPDEST DUP1 PUSH1 0x1F ADD PUSH1 0x20 DUP1 SWAP2 DIV MUL PUSH1 0x20 ADD PUSH1 0x40 MLOAD SWAP1 DUP2 ADD PUSH1 0x40 MSTORE DUP1 SWAP3 SWAP2 SWAP1 DUP2 DUP2 MSTORE PUSH1 0x20 ADD DUP3 DUP1 SLOAD PUSH2 0x42C SWAP1 PUSH2 0x137C JUMP JUMPDEST DUP1 ISZERO PUSH2 0x479 JUMPI DUP1 PUSH1 0x1F LT PUSH2 0x44E JUMPI PUSH2 0x100 DUP1 DUP4 SLOAD DIV MUL DUP4 MSTORE SWAP2 PUSH1 0x20 ADD SWAP2 PUSH2 0x479 JUMP JUMPDEST DUP3 ADD SWAP2 SWAP1 PUSH1 0x0 MSTORE PUSH1 0x20 PUSH1 0x0 KECCAK256 SWAP1 JUMPDEST DUP2 SLOAD DUP2 MSTORE SWAP1 PUSH1 0x1 ADD SWAP1 PUSH1 0x20 ADD DUP1 DUP4 GT PUSH2 0x45C JUMPI DUP3 SWAP1 SUB PUSH1 0x1F AND DUP3 ADD SWAP2 JUMPDEST POP POP POP POP POP DUP2 MSTORE PUSH1 0x20 ADD PUSH1 0x6 DUP3 ADD SLOAD DUP2 MSTORE PUSH1 0x20 ADD PUSH1 0x7 DUP3 ADD DUP1 SLOAD PUSH2 0x49C SWAP1 PUSH2 0x137C JUMP JUMPDEST DUP1 PUSH1 0x1F ADD PUSH1 0x20 DUP1 SWAP2 DIV MUL PUSH1 0x20 ADD PUSH1 0x40 MLOAD SWAP1 DUP2 ADD PUSH1 0x40 MSTORE DUP1 SWAP3 SWAP2 SWAP1 DUP2 DUP2 MSTORE PUSH1 0x20 ADD DUP3 DUP1 SLOAD PUSH2 0x4C8 SWAP1 PUSH2 0x137C JUMP JUMPDEST DUP1 ISZERO PUSH2 0x515 JUMPI DUP1 PUSH1 0x1F LT PUSH2 0x4EA JUMPI PUSH2 0x100 DUP1 DUP4 SLOAD DIV MUL DUP4 MSTORE SWAP2 PUSH1 0x20 ADD SWAP2 PUSH2 0x515 JUMP JUMPDEST DUP3 ADD SWAP2 SWAP1 PUSH1 0x0 MSTORE PUSH1 0x20 PUSH1 0x0 KECCAK256 SWAP1 JUMPDEST DUP2 SLOAD DUP2 MSTORE SWAP1 PUSH1 0x1 ADD SWAP1 PUSH1 0x20 ADD DUP1 DUP4 GT PUSH2 0x4F8 JUMPI DUP3 SWAP1 SUB PUSH1 0x1F AND DUP3 ADD SWAP2 JUMPDEST POP POP POP POP POP DUP2 MSTORE PUSH1 0x20 ADD PUSH1 0x8 DUP3 ADD PUSH1 0x0 SWAP1 SLOAD SWAP1 PUSH2 0x100 EXP SWAP1 DIV PUSH1 0xFF AND ISZERO ISZERO ISZERO ISZERO DUP2 MSTORE PUSH1 0x20 ADD PUSH1 0x9 DUP3 ADD SLOAD DUP2 MSTORE PUSH1 0x20 ADD PUSH1 0xA DUP3 ADD PUSH1 0x0 SWAP1 SLOAD SWAP1 PUSH2 0x100 EXP SWAP1 DIV PUSH1 0xFF AND ISZERO ISZERO ISZERO ISZERO DUP2 MSTORE PUSH1 0x20 ADD PUSH1 0xB DUP3 ADD SLOAD DUP2 MSTORE PUSH1 0x20 ADD PUSH1 0xC DUP3 ADD DUP1 SLOAD PUSH2 0x578 SWAP1 PUSH2 0x137C JUMP JUMPDEST DUP1 PUSH1 0x1F ADD PUSH1 0x20 DUP1 SWAP2 DIV MUL PUSH1 0x20 ADD PUSH1 0x40 MLOAD SWAP1 DUP2 ADD PUSH1 0x40 MSTORE DUP1 SWAP3 SWAP2 SWAP1 DUP2 DUP2 MSTORE PUSH1 0x20 ADD DUP3 DUP1 SLOAD PUSH2 0x5A4 SWAP1 PUSH2 0x137C JUMP JUMPDEST DUP1 ISZERO PUSH2 0x5F1 JUMPI DUP1 PUSH1 0x1F LT PUSH2 0x5C6 JUMPI PUSH2 0x100 DUP1 DUP4 SLOAD DIV MUL DUP4 MSTORE SWAP2 PUSH1 0x20 ADD SWAP2 PUSH2 0x5F1 JUMP JUMPDEST DUP3 ADD SWAP2 SWAP1 PUSH1 0x0 MSTORE PUSH1 0x20 PUSH1 0x0 KECCAK256 SWAP1 JUMPDEST DUP2 SLOAD DUP2 MSTORE SWAP1 PUSH1 0x1 ADD SWAP1 PUSH1 0x20 ADD DUP1 DUP4 GT PUSH2 0x5D4 JUMPI DUP3 SWAP1 SUB PUSH1 0x1F AND DUP3 ADD SWAP2 JUMPDEST POP POP POP POP POP DUP2 MSTORE POP POP SWAP1 POP SWAP1 JUMP JUMPDEST PUSH1 0x1 PUSH1 0x0 ADD PUSH1 0x0 SWAP1 SLOAD SWAP1 PUSH2 0x100 EXP SWAP1 DIV PUSH20 0xFFFFFFFFFFFFFFFFFFFFFFFFFFFFFFFFFFFFFFFF AND PUSH20 0xFFFFFFFFFFFFFFFFFFFFFFFFFFFFFFFFFFFFFFFF AND CALLER PUSH20 0xFFFFFFFFFFFFFFFFFFFFFFFFFFFFFFFFFFFFFFFF AND EQ PUSH2 0x692 JUMPI PUSH1 0x40 MLOAD PUSH32 0x8C379A000000000000000000000000000000000000000000000000000000000 DUP2 MSTORE PUSH1 0x4 ADD PUSH2 0x689 SWAP1 PUSH2 0x121B JUMP JUMPDEST PUSH1 0x40 MLOAD DUP1 SWAP2 SUB SWAP1 REVERT JUMPDEST PUSH1 0x1 DUP1 PUSH1 0x8 ADD PUSH1 0x0 PUSH2 0x100 EXP DUP2 SLOAD DUP2 PUSH1 0xFF MUL NOT AND SWAP1 DUP4 ISZERO ISZERO MUL OR SWAP1 SSTORE POP TIMESTAMP PUSH1 0x1 PUSH1 0x9 ADD DUP2 SWAP1 SSTORE POP PUSH1 0x1 ISZERO ISZERO PUSH1 0x1 PUSH1 0xA ADD PUSH1 0x0 SWAP1 SLOAD SWAP1 PUSH2 0x100 EXP SWAP1 DIV PUSH1 0xFF AND ISZERO ISZERO EQ ISZERO PUSH2 0x6E1 JUMPI PUSH2 0x6E0 PUSH2 0xC64 JUMP JUMPDEST JUMPDEST JUMP JUMPDEST PUSH1 0x1 ISZERO ISZERO PUSH1 0x1 PUSH1 0x8 ADD PUSH1 0x0 SWAP1 SLOAD SWAP1 PUSH2 0x100 EXP SWAP1 DIV PUSH1 0xFF AND ISZERO ISZERO EQ DUP1 ISZERO PUSH2 0x71F JUMPI POP PUSH1 0x1 ISZERO ISZERO PUSH1 0x1 PUSH1 0xA ADD PUSH1 0x0 SWAP1 SLOAD SWAP1 PUSH2 0x100 EXP SWAP1 DIV PUSH1 0xFF AND ISZERO ISZERO EQ JUMPDEST PUSH2 0x728 JUMPI PUSH1 0x0 DUP1 REVERT JUMPDEST PUSH1 0x1 PUSH1 0x2 ADD PUSH1 0x0 SWAP1 SLOAD SWAP1 PUSH2 0x100 EXP SWAP1 DIV PUSH20 0xFFFFFFFFFFFFFFFFFFFFFFFFFFFFFFFFFFFFFFFF AND PUSH20 0xFFFFFFFFFFFFFFFFFFFFFFFFFFFFFFFFFFFFFFFF AND CALLER PUSH20 0xFFFFFFFFFFFFFFFFFFFFFFFFFFFFFFFFFFFFFFFF AND EQ PUSH2 0x7BB JUMPI PUSH1 0x40 MLOAD PUSH32 0x8C379A000000000000000000000000000000000000000000000000000000000 DUP2 MSTORE PUSH1 0x4 ADD PUSH2 0x7B2 SWAP1 PUSH2 0x11DB JUMP JUMPDEST PUSH1 0x40 MLOAD DUP1 SWAP2 SUB SWAP1 REVERT JUMPDEST PUSH1 0x1 PUSH1 0x4 ADD SLOAD CALLVALUE EQ PUSH2 0x802 JUMPI PUSH1 0x40 MLOAD PUSH32 0x8C379A000000000000000000000000000000000000000000000000000000000 DUP2 MSTORE PUSH1 0x4 ADD PUSH2 0x7F9 SWAP1 PUSH2 0x11FB JUMP JUMPDEST PUSH1 0x40 MLOAD DUP1 SWAP2 SUB SWAP1 REVERT JUMPDEST PUSH1 0x1 PUSH1 0x0 DUP1 PUSH2 0x100 EXP DUP2 SLOAD DUP2 PUSH1 0xFF MUL NOT AND SWAP1 DUP4 ISZERO ISZERO MUL OR SWAP1 SSTORE POP JUMP JUMPDEST PUSH1 0x1 PUSH1 0x0 ADD PUSH1 0x0 SWAP1 SLOAD SWAP1 PUSH2 0x100 EXP SWAP1 DIV PUSH20 0xFFFFFFFFFFFFFFFFFFFFFFFFFFFFFFFFFFFFFFFF AND PUSH20 0xFFFFFFFFFFFFFFFFFFFFFFFFFFFFFFFFFFFFFFFF AND CALLER PUSH20 0xFFFFFFFFFFFFFFFFFFFFFFFFFFFFFFFFFFFFFFFF AND EQ PUSH2 0x8B1 JUMPI PUSH1 0x40 MLOAD PUSH32 0x8C379A000000000000000000000000000000000000000000000000000000000 DUP2 MSTORE PUSH1 0x4 ADD PUSH2 0x8A8 SWAP1 PUSH2 0x121B JUMP JUMPDEST PUSH1 0x40 MLOAD DUP1 SWAP2 SUB SWAP1 REVERT JUMPDEST PUSH1 0x1 PUSH1 0x0 ADD PUSH1 0x0 SWAP1 SLOAD SWAP1 PUSH2 0x100 EXP SWAP1 DIV PUSH20 0xFFFFFFFFFFFFFFFFFFFFFFFFFFFFFFFFFFFFFFFF AND PUSH20 0xFFFFFFFFFFFFFFFFFFFFFFFFFFFFFFFFFFFFFFFF AND DUP6 PUSH20 0xFFFFFFFFFFFFFFFFFFFFFFFFFFFFFFFFFFFFFFFF AND EQ ISZERO PUSH2 0x945 JUMPI PUSH1 0x40 MLOAD PUSH32 0x8C379A000000000000000000000000000000000000000000000000000000000 DUP2 MSTORE PUSH1 0x4 ADD PUSH2 0x93C SWAP1 PUSH2 0x11BB JUMP JUMPDEST PUSH1 0x40 MLOAD DUP1 SWAP2 SUB SWAP1 REVERT JUMPDEST DUP5 PUSH1 0x1 PUSH1 0x2 ADD PUSH1 0x0 PUSH2 0x100 EXP DUP2 SLOAD DUP2 PUSH20 0xFFFFFFFFFFFFFFFFFFFFFFFFFFFFFFFFFFFFFFFF MUL NOT AND SWAP1 DUP4 PUSH20 0xFFFFFFFFFFFFFFFFFFFFFFFFFFFFFFFFFFFFFFFF AND MUL OR SWAP1 SSTORE POP DUP6 PUSH1 0x1 PUSH1 0x3 ADD SWAP1 DUP1 MLOAD SWAP1 PUSH1 0x20 ADD SWAP1 PUSH2 0x9A2 SWAP3 SWAP2 SWAP1 PUSH2 0xD08 JUMP JUMPDEST POP DUP4 PUSH1 0x1 PUSH1 0x4 ADD DUP2 SWAP1 SSTORE POP DUP3 PUSH1 0x1 PUSH1 0x5 ADD SWAP1 DUP1 MLOAD SWAP1 PUSH1 0x20 ADD SWAP1 PUSH2 0x9C6 SWAP3 SWAP2 SWAP1 PUSH2 0xD08 JUMP JUMPDEST POP DUP2 PUSH1 0x1 PUSH1 0x7 ADD SWAP1 DUP1 MLOAD SWAP1 PUSH1 0x20 ADD SWAP1 PUSH2 0x9E0 SWAP3 SWAP2 SWAP1 PUSH2 0xD08 JUMP JUMPDEST POP DUP1 PUSH1 0x1 PUSH1 0xC ADD SWAP1 DUP1 MLOAD SWAP1 PUSH1 0x20 ADD SWAP1 PUSH2 0x9FA SWAP3 SWAP2 SWAP1 PUSH2 0xD08 JUMP JUMPDEST POP POP POP POP POP POP POP JUMP JUMPDEST PUSH1 0x1 PUSH1 0x2 ADD PUSH1 0x0 SWAP1 SLOAD SWAP1 PUSH2 0x100 EXP SWAP1 DIV PUSH20 0xFFFFFFFFFFFFFFFFFFFFFFFFFFFFFFFFFFFFFFFF AND PUSH20 0xFFFFFFFFFFFFFFFFFFFFFFFFFFFFFFFFFFFFFFFF AND CALLER PUSH20 0xFFFFFFFFFFFFFFFFFFFFFFFFFFFFFFFFFFFFFFFF AND EQ PUSH2 0xA96 JUMPI PUSH1 0x40 MLOAD PUSH32 0x8C379A000000000000000000000000000000000000000000000000000000000 DUP2 MSTORE PUSH1 0x4 ADD PUSH2 0xA8D SWAP1 PUSH2 0x11DB JUMP JUMPDEST PUSH1 0x40 MLOAD DUP1 SWAP2 SUB SWAP1 REVERT JUMPDEST PUSH1 0x1 DUP1 PUSH1 0xA ADD PUSH1 0x0 PUSH2 0x100 EXP DUP2 SLOAD DUP2 PUSH1 0xFF MUL NOT AND SWAP1 DUP4 ISZERO ISZERO MUL OR SWAP1 SSTORE POP TIMESTAMP PUSH1 0x1 PUSH1 0xB ADD DUP2 SWAP1 SSTORE POP PUSH1 0x1 ISZERO ISZERO PUSH1 0x1 PUSH1 0x8 ADD PUSH1 0x0 SWAP1 SLOAD SWAP1 PUSH2 0x100 EXP SWAP1 DIV PUSH1 0xFF AND ISZERO ISZERO EQ ISZERO PUSH2 0xAE5 JUMPI PUSH2 0xAE4 PUSH2 0xC64 JUMP JUMPDEST JUMPDEST JUMP JUMPDEST PUSH1 0x1 PUSH1 0x0 ADD PUSH1 0x0 SWAP1 SLOAD SWAP1 PUSH2 0x100 EXP SWAP1 DIV PUSH20 0xFFFFFFFFFFFFFFFFFFFFFFFFFFFFFFFFFFFFFFFF AND PUSH20 0xFFFFFFFFFFFFFFFFFFFFFFFFFFFFFFFFFFFFFFFF AND CALLER PUSH20 0xFFFFFFFFFFFFFFFFFFFFFFFFFFFFFFFFFFFFFFFF AND EQ PUSH2 0xB7A JUMPI PUSH1 0x40 MLOAD PUSH32 0x8C379A000000000000000000000000000000000000000000000000000000000 DUP2 MSTORE PUSH1 0x4 ADD PUSH2 0xB71 SWAP1 PUSH2 0x121B JUMP JUMPDEST PUSH1 0x40 MLOAD DUP1 SWAP2 SUB SWAP1 REVERT JUMPDEST PUSH1 0x1 ISZERO ISZERO PUSH1 0x0 DUP1 SLOAD SWAP1 PUSH2 0x100 EXP SWAP1 DIV PUSH1 0xFF AND ISZERO ISZERO EQ PUSH2 0xBCE JUMPI PUSH1 0x40 MLOAD PUSH32 0x8C379A000000000000000000000000000000000000000000000000000000000 DUP2 MSTORE PUSH1 0x4 ADD PUSH2 0xBC5 SWAP1 PUSH2 0x119B JUMP JUMPDEST PUSH1 0x40 MLOAD DUP1 SWAP2 SUB SWAP1 REVERT JUMPDEST PUSH1 0x1 PUSH1 0x0 PUSH1 0x1 PUSH2 0x100 EXP DUP2 SLOAD DUP2 PUSH1 0xFF MUL NOT AND SWAP1 DUP4 ISZERO ISZERO MUL OR SWAP1 SSTORE POP PUSH1 0x1 PUSH1 0x0 ADD PUSH1 0x0 SWAP1 SLOAD SWAP1 PUSH2 0x100 EXP SWAP1 DIV PUSH20 0xFFFFFFFFFFFFFFFFFFFFFFFFFFFFFFFFFFFFFFFF AND PUSH20 0xFFFFFFFFFFFFFFFFFFFFFFFFFFFFFFFFFFFFFFFF AND PUSH2 0x8FC PUSH1 0x1 PUSH1 0x4 ADD SLOAD SWAP1 DUP2 ISZERO MUL SWAP1 PUSH1 0x40 MLOAD PUSH1 0x0 PUSH1 0x40 MLOAD DUP1 DUP4 SUB DUP2 DUP6 DUP9 DUP9 CALL SWAP4 POP POP POP POP ISZERO DUP1 ISZERO PUSH2 0xC59 JUMPI RETURNDATASIZE PUSH1 0x0 DUP1 RETURNDATACOPY RETURNDATASIZE PUSH1 0x0 REVERT JUMPDEST POP PUSH2 0xC62 PUSH2 0x12F JUMP JUMPDEST JUMP JUMPDEST TIMESTAMP PUSH1 0x1 PUSH1 0x6 ADD DUP2 SWAP1 SSTORE POP JUMP JUMPDEST PUSH1 0x40 MLOAD DUP1 PUSH2 0x1A0 ADD PUSH1 0x40 MSTORE DUP1 PUSH1 0x0 PUSH20 0xFFFFFFFFFFFFFFFFFFFFFFFFFFFFFFFFFFFFFFFF AND DUP2 MSTORE PUSH1 0x20 ADD PUSH1 0x60 DUP2 MSTORE PUSH1 0x20 ADD PUSH1 0x0 PUSH20 0xFFFFFFFFFFFFFFFFFFFFFFFFFFFFFFFFFFFFFFFF AND DUP2 MSTORE PUSH1 0x20 ADD PUSH1 0x60 DUP2 MSTORE PUSH1 0x20 ADD PUSH1 0x0 DUP2 MSTORE PUSH1 0x20 ADD PUSH1 0x60 DUP2 MSTORE PUSH1 0x20 ADD PUSH1 0x0 DUP2 MSTORE PUSH1 0x20 ADD PUSH1 0x60 DUP2 MSTORE PUSH1 0x20 ADD PUSH1 0x0 ISZERO ISZERO DUP2 MSTORE PUSH1 0x20 ADD PUSH1 0x0 DUP2 MSTORE PUSH1 0x20 ADD PUSH1 0x0 ISZERO ISZERO DUP2 MSTORE PUSH1 0x20 ADD PUSH1 0x0 DUP2 MSTORE PUSH1 0x20 ADD PUSH1 0x60 DUP2 MSTORE POP SWAP1 JUMP JUMPDEST DUP3 DUP1 SLOAD PUSH2 0xD14 SWAP1 PUSH2 0x137C JUMP JUMPDEST SWAP1 PUSH1 0x0 MSTORE PUSH1 0x20 PUSH1 0x0 KECCAK256 SWAP1 PUSH1 0x1F ADD PUSH1 0x20 SWAP1 DIV DUP2 ADD SWAP3 DUP3 PUSH2 0xD36 JUMPI PUSH1 0x0 DUP6 SSTORE PUSH2 0xD7D JUMP JUMPDEST DUP3 PUSH1 0x1F LT PUSH2 0xD4F JUMPI DUP1 MLOAD PUSH1 0xFF NOT AND DUP4 DUP1 ADD OR DUP6 SSTORE PUSH2 0xD7D JUMP JUMPDEST DUP3 DUP1 ADD PUSH1 0x1 ADD DUP6 SSTORE DUP3 ISZERO PUSH2 0xD7D JUMPI SWAP2 DUP3 ADD JUMPDEST DUP3 DUP2 GT ISZERO PUSH2 0xD7C JUMPI DUP3 MLOAD DUP3 SSTORE SWAP2 PUSH1 0x20 ADD SWAP2 SWAP1 PUSH1 0x1 ADD SWAP1 PUSH2 0xD61 JUMP JUMPDEST JUMPDEST POP SWAP1 POP PUSH2 0xD8A SWAP2 SWAP1 PUSH2 0xD8E JUMP JUMPDEST POP SWAP1 JUMP JUMPDEST JUMPDEST DUP1 DUP3 GT ISZERO PUSH2 0xDA7 JUMPI PUSH1 0x0 DUP2 PUSH1 0x0 SWAP1 SSTORE POP PUSH1 0x1 ADD PUSH2 0xD8F JUMP JUMPDEST POP SWAP1 JUMP JUMPDEST PUSH1 0x0 PUSH2 0xDBE PUSH2 0xDB9 DUP5 PUSH2 0x1282 JUMP JUMPDEST PUSH2 0x125D JUMP JUMPDEST SWAP1 POP DUP3 DUP2 MSTORE PUSH1 0x20 DUP2 ADD DUP5 DUP5 DUP5 ADD GT ISZERO PUSH2 0xDDA JUMPI PUSH2 0xDD9 PUSH2 0x1442 JUMP JUMPDEST JUMPDEST PUSH2 0xDE5 DUP5 DUP3 DUP6 PUSH2 0x133A JUMP JUMPDEST POP SWAP4 SWAP3 POP POP POP JUMP JUMPDEST PUSH1 0x0 DUP2 CALLDATALOAD SWAP1 POP PUSH2 0xDFC DUP2 PUSH2 0x15ED JUMP JUMPDEST SWAP3 SWAP2 POP POP JUMP JUMPDEST PUSH1 0x0 DUP3 PUSH1 0x1F DUP4 ADD SLT PUSH2 0xE17 JUMPI PUSH2 0xE16 PUSH2 0x143D JUMP JUMPDEST JUMPDEST DUP2 CALLDATALOAD PUSH2 0xE27 DUP5 DUP3 PUSH1 0x20 DUP7 ADD PUSH2 0xDAB JUMP JUMPDEST SWAP2 POP POP SWAP3 SWAP2 POP POP JUMP JUMPDEST PUSH1 0x0 DUP2 CALLDATALOAD SWAP1 POP PUSH2 0xE3F DUP2 PUSH2 0x1604 JUMP JUMPDEST SWAP3 SWAP2 POP POP JUMP JUMPDEST PUSH1 0x0 DUP1 PUSH1 0x0 DUP1 PUSH1 0x0 DUP1 PUSH1 0xC0 DUP8 DUP10 SUB SLT ISZERO PUSH2 0xE62 JUMPI PUSH2 0xE61 PUSH2 0x144C JUMP JUMPDEST JUMPDEST PUSH1 0x0 DUP8 ADD CALLDATALOAD PUSH8 0xFFFFFFFFFFFFFFFF DUP2 GT ISZERO PUSH2 0xE80 JUMPI PUSH2 0xE7F PUSH2 0x1447 JUMP JUMPDEST JUMPDEST PUSH2 0xE8C DUP10 DUP3 DUP11 ADD PUSH2 0xE02 JUMP JUMPDEST SWAP7 POP POP PUSH1 0x20 PUSH2 0xE9D DUP10 DUP3 DUP11 ADD PUSH2 0xDED JUMP JUMPDEST SWAP6 POP POP PUSH1 0x40 PUSH2 0xEAE DUP10 DUP3 DUP11 ADD PUSH2 0xE30 JUMP JUMPDEST SWAP5 POP POP PUSH1 0x60 DUP8 ADD CALLDATALOAD PUSH8 0xFFFFFFFFFFFFFFFF DUP2 GT ISZERO PUSH2 0xECF JUMPI PUSH2 0xECE PUSH2 0x1447 JUMP JUMPDEST JUMPDEST PUSH2 0xEDB DUP10 DUP3 DUP11 ADD PUSH2 0xE02 JUMP JUMPDEST SWAP4 POP POP PUSH1 0x80 DUP8 ADD CALLDATALOAD PUSH8 0xFFFFFFFFFFFFFFFF DUP2 GT ISZERO PUSH2 0xEFC JUMPI PUSH2 0xEFB PUSH2 0x1447 JUMP JUMPDEST JUMPDEST PUSH2 0xF08 DUP10 DUP3 DUP11 ADD PUSH2 0xE02 JUMP JUMPDEST SWAP3 POP POP PUSH1 0xA0 DUP8 ADD CALLDATALOAD PUSH8 0xFFFFFFFFFFFFFFFF DUP2 GT ISZERO PUSH2 0xF29 JUMPI PUSH2 0xF28 PUSH2 0x1447 JUMP JUMPDEST JUMPDEST PUSH2 0xF35 DUP10 DUP3 DUP11 ADD PUSH2 0xE02 JUMP JUMPDEST SWAP2 POP POP SWAP3 SWAP6 POP SWAP3 SWAP6 POP SWAP3 SWAP6 JUMP JUMPDEST PUSH2 0xF4B DUP2 PUSH2 0x12F2 JUMP JUMPDEST DUP3 MSTORE POP POP JUMP JUMPDEST PUSH2 0xF5A DUP2 PUSH2 0x12E0 JUMP JUMPDEST DUP3 MSTORE POP POP JUMP JUMPDEST PUSH2 0xF69 DUP2 PUSH2 0x1304 JUMP JUMPDEST DUP3 MSTORE POP POP JUMP JUMPDEST PUSH1 0x0 PUSH2 0xF7A DUP3 PUSH2 0x12B3 JUMP JUMPDEST PUSH2 0xF84 DUP2 DUP6 PUSH2 0x12BE JUMP JUMPDEST SWAP4 POP PUSH2 0xF94 DUP2 DUP6 PUSH1 0x20 DUP7 ADD PUSH2 0x1349 JUMP JUMPDEST PUSH2 0xF9D DUP2 PUSH2 0x1451 JUMP JUMPDEST DUP5 ADD SWAP2 POP POP SWAP3 SWAP2 POP POP JUMP JUMPDEST PUSH1 0x0 PUSH2 0xFB5 PUSH1 0x2D DUP4 PUSH2 0x12CF JUMP JUMPDEST SWAP2 POP PUSH2 0xFC0 DUP3 PUSH2 0x1462 JUMP JUMPDEST PUSH1 0x40 DUP3 ADD SWAP1 POP SWAP2 SWAP1 POP JUMP JUMPDEST PUSH1 0x0 PUSH2 0xFD8 PUSH1 0x2F DUP4 PUSH2 0x12CF JUMP JUMPDEST SWAP2 POP PUSH2 0xFE3 DUP3 PUSH2 0x14B1 JUMP JUMPDEST PUSH1 0x40 DUP3 ADD SWAP1 POP SWAP2 SWAP1 POP JUMP JUMPDEST PUSH1 0x0 PUSH2 0xFFB PUSH1 0x27 DUP4 PUSH2 0x12CF JUMP JUMPDEST SWAP2 POP PUSH2 0x1006 DUP3 PUSH2 0x1500 JUMP JUMPDEST PUSH1 0x40 DUP3 ADD SWAP1 POP SWAP2 SWAP1 POP JUMP JUMPDEST PUSH1 0x0 PUSH2 0x101E PUSH1 0x22 DUP4 PUSH2 0x12CF JUMP JUMPDEST SWAP2 POP PUSH2 0x1029 DUP3 PUSH2 0x154F JUMP JUMPDEST PUSH1 0x40 DUP3 ADD SWAP1 POP SWAP2 SWAP1 POP JUMP JUMPDEST PUSH1 0x0 PUSH2 0x1041 PUSH1 0x27 DUP4 PUSH2 0x12CF JUMP JUMPDEST SWAP2 POP PUSH2 0x104C DUP3 PUSH2 0x159E JUMP JUMPDEST PUSH1 0x40 DUP3 ADD SWAP1 POP SWAP2 SWAP1 POP JUMP JUMPDEST PUSH1 0x0 PUSH2 0x1A0 DUP4 ADD PUSH1 0x0 DUP4 ADD MLOAD PUSH2 0x1070 PUSH1 0x0 DUP7 ADD DUP3 PUSH2 0xF42 JUMP JUMPDEST POP PUSH1 0x20 DUP4 ADD MLOAD DUP5 DUP3 SUB PUSH1 0x20 DUP7 ADD MSTORE PUSH2 0x1088 DUP3 DUP3 PUSH2 0xF6F JUMP JUMPDEST SWAP2 POP POP PUSH1 0x40 DUP4 ADD MLOAD PUSH2 0x109D PUSH1 0x40 DUP7 ADD DUP3 PUSH2 0xF51 JUMP JUMPDEST POP PUSH1 0x60 DUP4 ADD MLOAD DUP5 DUP3 SUB PUSH1 0x60 DUP7 ADD MSTORE PUSH2 0x10B5 DUP3 DUP3 PUSH2 0xF6F JUMP JUMPDEST SWAP2 POP POP PUSH1 0x80 DUP4 ADD MLOAD PUSH2 0x10CA PUSH1 0x80 DUP7 ADD DUP3 PUSH2 0x118C JUMP JUMPDEST POP PUSH1 0xA0 DUP4 ADD MLOAD DUP5 DUP3 SUB PUSH1 0xA0 DUP7 ADD MSTORE PUSH2 0x10E2 DUP3 DUP3 PUSH2 0xF6F JUMP JUMPDEST SWAP2 POP POP PUSH1 0xC0 DUP4 ADD MLOAD PUSH2 0x10F7 PUSH1 0xC0 DUP7 ADD DUP3 PUSH2 0x118C JUMP JUMPDEST POP PUSH1 0xE0 DUP4 ADD MLOAD DUP5 DUP3 SUB PUSH1 0xE0 DUP7 ADD MSTORE PUSH2 0x110F DUP3 DUP3 PUSH2 0xF6F JUMP JUMPDEST SWAP2 POP POP PUSH2 0x100 DUP4 ADD MLOAD PUSH2 0x1126 PUSH2 0x100 DUP7 ADD DUP3 PUSH2 0xF60 JUMP JUMPDEST POP PUSH2 0x120 DUP4 ADD MLOAD PUSH2 0x113B PUSH2 0x120 DUP7 ADD DUP3 PUSH2 0x118C JUMP JUMPDEST POP PUSH2 0x140 DUP4 ADD MLOAD PUSH2 0x1150 PUSH2 0x140 DUP7 ADD DUP3 PUSH2 0xF60 JUMP JUMPDEST POP PUSH2 0x160 DUP4 ADD MLOAD PUSH2 0x1165 PUSH2 0x160 DUP7 ADD DUP3 PUSH2 0x118C JUMP JUMPDEST POP PUSH2 0x180 DUP4 ADD MLOAD DUP5 DUP3 SUB PUSH2 0x180 DUP7 ADD MSTORE PUSH2 0x117F DUP3 DUP3 PUSH2 0xF6F JUMP JUMPDEST SWAP2 POP POP DUP1 SWAP2 POP POP SWAP3 SWAP2 POP POP JUMP JUMPDEST PUSH2 0x1195 DUP2 PUSH2 0x1330 JUMP JUMPDEST DUP3 MSTORE POP POP JUMP JUMPDEST PUSH1 0x0 PUSH1 0x20 DUP3 ADD SWAP1 POP DUP2 DUP2 SUB PUSH1 0x0 DUP4 ADD MSTORE PUSH2 0x11B4 DUP2 PUSH2 0xFA8 JUMP JUMPDEST SWAP1 POP SWAP2 SWAP1 POP JUMP JUMPDEST PUSH1 0x0 PUSH1 0x20 DUP3 ADD SWAP1 POP DUP2 DUP2 SUB PUSH1 0x0 DUP4 ADD MSTORE PUSH2 0x11D4 DUP2 PUSH2 0xFCB JUMP JUMPDEST SWAP1 POP SWAP2 SWAP1 POP JUMP JUMPDEST PUSH1 0x0 PUSH1 0x20 DUP3 ADD SWAP1 POP DUP2 DUP2 SUB PUSH1 0x0 DUP4 ADD MSTORE PUSH2 0x11F4 DUP2 PUSH2 0xFEE JUMP JUMPDEST SWAP1 POP SWAP2 SWAP1 POP JUMP JUMPDEST PUSH1 0x0 PUSH1 0x20 DUP3 ADD SWAP1 POP DUP2 DUP2 SUB PUSH1 0x0 DUP4 ADD MSTORE PUSH2 0x1214 DUP2 PUSH2 0x1011 JUMP JUMPDEST SWAP1 POP SWAP2 SWAP1 POP JUMP JUMPDEST PUSH1 0x0 PUSH1 0x20 DUP3 ADD SWAP1 POP DUP2 DUP2 SUB PUSH1 0x0 DUP4 ADD MSTORE PUSH2 0x1234 DUP2 PUSH2 0x1034 JUMP JUMPDEST SWAP1 POP SWAP2 SWAP1 POP JUMP JUMPDEST PUSH1 0x0 PUSH1 0x20 DUP3 ADD SWAP1 POP DUP2 DUP2 SUB PUSH1 0x0 DUP4 ADD MSTORE PUSH2 0x1255 DUP2 DUP5 PUSH2 0x1057 JUMP JUMPDEST SWAP1 POP SWAP3 SWAP2 POP POP JUMP JUMPDEST PUSH1 0x0 PUSH2 0x1267 PUSH2 0x1278 JUMP JUMPDEST SWAP1 POP PUSH2 0x1273 DUP3 DUP3 PUSH2 0x13AE JUMP JUMPDEST SWAP2 SWAP1 POP JUMP JUMPDEST PUSH1 0x0 PUSH1 0x40 MLOAD SWAP1 POP SWAP1 JUMP JUMPDEST PUSH1 0x0 PUSH8 0xFFFFFFFFFFFFFFFF DUP3 GT ISZERO PUSH2 0x129D JUMPI PUSH2 0x129C PUSH2 0x140E JUMP JUMPDEST JUMPDEST PUSH2 0x12A6 DUP3 PUSH2 0x1451 JUMP JUMPDEST SWAP1 POP PUSH1 0x20 DUP2 ADD SWAP1 POP SWAP2 SWAP1 POP JUMP JUMPDEST PUSH1 0x0 DUP2 MLOAD SWAP1 POP SWAP2 SWAP1 POP JUMP JUMPDEST PUSH1 0x0 DUP3 DUP3 MSTORE PUSH1 0x20 DUP3 ADD SWAP1 POP SWAP3 SWAP2 POP POP JUMP JUMPDEST PUSH1 0x0 DUP3 DUP3 MSTORE PUSH1 0x20 DUP3 ADD SWAP1 POP SWAP3 SWAP2 POP POP JUMP JUMPDEST PUSH1 0x0 PUSH2 0x12EB DUP3 PUSH2 0x1310 JUMP JUMPDEST SWAP1 POP SWAP2 SWAP1 POP JUMP JUMPDEST PUSH1 0x0 PUSH2 0x12FD DUP3 PUSH2 0x1310 JUMP JUMPDEST SWAP1 POP SWAP2 SWAP1 POP JUMP JUMPDEST PUSH1 0x0 DUP2 ISZERO ISZERO SWAP1 POP SWAP2 SWAP1 POP JUMP JUMPDEST PUSH1 0x0 PUSH20 0xFFFFFFFFFFFFFFFFFFFFFFFFFFFFFFFFFFFFFFFF DUP3 AND SWAP1 POP SWAP2 SWAP1 POP JUMP JUMPDEST PUSH1 0x0 DUP2 SWAP1 POP SWAP2 SWAP1 POP JUMP JUMPDEST DUP3 DUP2 DUP4 CALLDATACOPY PUSH1 0x0 DUP4 DUP4 ADD MSTORE POP POP POP JUMP JUMPDEST PUSH1 0x0 JUMPDEST DUP4 DUP2 LT ISZERO PUSH2 0x1367 JUMPI DUP1 DUP3 ADD MLOAD DUP2 DUP5 ADD MSTORE PUSH1 0x20 DUP2 ADD SWAP1 POP PUSH2 0x134C JUMP JUMPDEST DUP4 DUP2 GT ISZERO PUSH2 0x1376 JUMPI PUSH1 0x0 DUP5 DUP5 ADD MSTORE JUMPDEST POP POP POP POP JUMP JUMPDEST PUSH1 0x0 PUSH1 0x2 DUP3 DIV SWAP1 POP PUSH1 0x1 DUP3 AND DUP1 PUSH2 0x1394 JUMPI PUSH1 0x7F DUP3 AND SWAP2 POP JUMPDEST PUSH1 0x20 DUP3 LT DUP2 EQ ISZERO PUSH2 0x13A8 JUMPI PUSH2 0x13A7 PUSH2 0x13DF JUMP JUMPDEST JUMPDEST POP SWAP2 SWAP1 POP JUMP JUMPDEST PUSH2 0x13B7 DUP3 PUSH2 0x1451 JUMP JUMPDEST DUP2 ADD DUP2 DUP2 LT PUSH8 0xFFFFFFFFFFFFFFFF DUP3 GT OR ISZERO PUSH2 0x13D6 JUMPI PUSH2 0x13D5 PUSH2 0x140E JUMP JUMPDEST JUMPDEST DUP1 PUSH1 0x40 MSTORE POP POP POP JUMP JUMPDEST PUSH32 0x4E487B7100000000000000000000000000000000000000000000000000000000 PUSH1 0x0 MSTORE PUSH1 0x22 PUSH1 0x4 MSTORE PUSH1 0x24 PUSH1 0x0 REVERT JUMPDEST PUSH32 0x4E487B7100000000000000000000000000000000000000000000000000000000 PUSH1 0x0 MSTORE PUSH1 0x41 PUSH1 0x4 MSTORE PUSH1 0x24 PUSH1 0x0 REVERT JUMPDEST PUSH1 0x0 DUP1 REVERT JUMPDEST PUSH1 0x0 DUP1 REVERT JUMPDEST PUSH1 0x0 DUP1 REVERT JUMPDEST PUSH1 0x0 DUP1 REVERT JUMPDEST PUSH1 0x0 PUSH1 0x1F NOT PUSH1 0x1F DUP4 ADD AND SWAP1 POP SWAP2 SWAP1 POP JUMP JUMPDEST PUSH32 0x5061796D656E74206D757374206265206D616465206265666F72652077697468 PUSH1 0x0 DUP3 ADD MSTORE PUSH32 0x64726177696E672066756E647300000000000000000000000000000000000000 PUSH1 0x20 DUP3 ADD MSTORE POP JUMP JUMPDEST PUSH32 0x50726F6D69736F7220616E642050726F6D69736565206D757374206265206469 PUSH1 0x0 DUP3 ADD MSTORE PUSH32 0x66666572656E7420706172746965730000000000000000000000000000000000 PUSH1 0x20 DUP3 ADD MSTORE POP JUMP JUMPDEST PUSH32 0x6F6E6C79207468652070726F6D69736F722063616E2073656E64207468697320 PUSH1 0x0 DUP3 ADD MSTORE PUSH32 0x6D65737361676500000000000000000000000000000000000000000000000000 PUSH1 0x20 DUP3 ADD MSTORE POP JUMP JUMPDEST PUSH32 0x596F75206D757374207061792074686520616D6F756E742073746970756C6174 PUSH1 0x0 DUP3 ADD MSTORE PUSH32 0x6564000000000000000000000000000000000000000000000000000000000000 PUSH1 0x20 DUP3 ADD MSTORE POP JUMP JUMPDEST PUSH32 0x6F6E6C79207468652070726F6D697365652063616E2073656E64207468697320 PUSH1 0x0 DUP3 ADD MSTORE PUSH32 0x6D65737361676500000000000000000000000000000000000000000000000000 PUSH1 0x20 DUP3 ADD MSTORE POP JUMP JUMPDEST PUSH2 0x15F6 DUP2 PUSH2 0x12E0 JUMP JUMPDEST DUP2 EQ PUSH2 0x1601 JUMPI PUSH1 0x0 DUP1 REVERT JUMPDEST POP JUMP JUMPDEST PUSH2 0x160D DUP2 PUSH2 0x1330 JUMP JUMPDEST DUP2 EQ PUSH2 0x1618 JUMPI PUSH1 0x0 DUP1 REVERT JUMPDEST POP JUMP INVALID LOG2 PUSH5 0x6970667358 0x22 SLT KECCAK256 0xE8 GASPRICE 0xFC 0xE6 EQ PUSH11 0x980217523849B6F43F02E5 0xB3 SSTORE PUSH1 0x2E 0xA9 MOD 0xE4 0xE1 CALLDATASIZE 0xDA EXP PUSH1 0x5 0xEA 0xFB PUSH5 0x736F6C6343 STOP ADDMOD SMOD STOP CALLER "
				},
				"gasEstimates": {
					"creation": {
						"codeDepositCost": "1142600",
						"executionCost": "infinite",
						"totalCost": "infinite"
					},
					"external": {
						"acceptPayment()": "infinite",
						"getInfo()": "infinite",
						"kill()": "32063",
						"payBill()": "33053",
						"setDetails(string,address,uint256,string,string,string)": "infinite",
						"setPromiseeConsent()": "73080",
						"setPromisorConsent()": "73079"
					},
					"internal": {
						"setDateOfEntry()": "22128"
					}
				},
				"methodIdentifiers": {
					"acceptPayment()": "ae0aba8c",
					"getInfo()": "5a9b0b89",
					"kill()": "41c0e1b5",
					"payBill()": "7a781658",
					"setDetails(string,address,uint256,string,string,string)": "8c4adcbd",
					"setPromiseeConsent()": "74cd7aed",
					"setPromisorConsent()": "93d6d824"
				}
			},
			"storageLayout": {
				"storage": [
					{
						"astId": 5,
						"contract": "contracts/boe.sol:BillOfExchange",
						"label": "billPaid",
						"offset": 0,
						"slot": "0",
						"type": "t_bool"
					},
					{
						"astId": 8,
						"contract": "contracts/boe.sol:BillOfExchange",
						"label": "paymentAccepted",
						"offset": 1,
						"slot": "0",
						"type": "t_bool"
					},
					{
						"astId": 38,
						"contract": "contracts/boe.sol:BillOfExchange",
						"label": "bill",
						"offset": 0,
						"slot": "1",
						"type": "t_struct(billInfo)35_storage"
					}
				],
				"types": {
					"t_address": {
						"encoding": "inplace",
						"label": "address",
						"numberOfBytes": "20"
					},
					"t_address_payable": {
						"encoding": "inplace",
						"label": "address payable",
						"numberOfBytes": "20"
					},
					"t_bool": {
						"encoding": "inplace",
						"label": "bool",
						"numberOfBytes": "1"
					},
					"t_string_storage": {
						"encoding": "bytes",
						"label": "string",
						"numberOfBytes": "32"
					},
					"t_struct(billInfo)35_storage": {
						"encoding": "inplace",
						"label": "struct BillOfExchange.billInfo",
						"members": [
							{
								"astId": 10,
								"contract": "contracts/boe.sol:BillOfExchange",
								"label": "promisee",
								"offset": 0,
								"slot": "0",
								"type": "t_address_payable"
							},
							{
								"astId": 12,
								"contract": "contracts/boe.sol:BillOfExchange",
								"label": "promiseeName",
								"offset": 0,
								"slot": "1",
								"type": "t_string_storage"
							},
							{
								"astId": 14,
								"contract": "contracts/boe.sol:BillOfExchange",
								"label": "promisor",
								"offset": 0,
								"slot": "2",
								"type": "t_address"
							},
							{
								"astId": 16,
								"contract": "contracts/boe.sol:BillOfExchange",
								"label": "promisorName",
								"offset": 0,
								"slot": "3",
								"type": "t_string_storage"
							},
							{
								"astId": 18,
								"contract": "contracts/boe.sol:BillOfExchange",
								"label": "billAmount",
								"offset": 0,
								"slot": "4",
								"type": "t_uint256"
							},
							{
								"astId": 20,
								"contract": "contracts/boe.sol:BillOfExchange",
								"label": "billDescription",
								"offset": 0,
								"slot": "5",
								"type": "t_string_storage"
							},
							{
								"astId": 22,
								"contract": "contracts/boe.sol:BillOfExchange",
								"label": "dateOfEntry",
								"offset": 0,
								"slot": "6",
								"type": "t_uint256"
							},
							{
								"astId": 24,
								"contract": "contracts/boe.sol:BillOfExchange",
								"label": "dateOfExpiry",
								"offset": 0,
								"slot": "7",
								"type": "t_string_storage"
							},
							{
								"astId": 26,
								"contract": "contracts/boe.sol:BillOfExchange",
								"label": "promiseeConsent",
								"offset": 0,
								"slot": "8",
								"type": "t_bool"
							},
							{
								"astId": 28,
								"contract": "contracts/boe.sol:BillOfExchange",
								"label": "dateOfPromiseeConsent",
								"offset": 0,
								"slot": "9",
								"type": "t_uint256"
							},
							{
								"astId": 30,
								"contract": "contracts/boe.sol:BillOfExchange",
								"label": "promisorConsent",
								"offset": 0,
								"slot": "10",
								"type": "t_bool"
							},
							{
								"astId": 32,
								"contract": "contracts/boe.sol:BillOfExchange",
								"label": "dateOfPromisorConsent",
								"offset": 0,
								"slot": "11",
								"type": "t_uint256"
							},
							{
								"astId": 34,
								"contract": "contracts/boe.sol:BillOfExchange",
								"label": "naturalLanguage",
								"offset": 0,
								"slot": "12",
								"type": "t_string_storage"
							}
						],
						"numberOfBytes": "416"
					},
					"t_uint256": {
						"encoding": "inplace",
						"label": "uint256",
						"numberOfBytes": "32"
					}
				}
			},
			"userdoc": {
				"kind": "user",
				"methods": {},
				"version": 1
			}
		}
	}
}